:100000000C9411030C9455030C9470030C94550339
:100010000C9455030C9455030C9455030C94550300
:100020000C9455030C94F4110C94A0210C945503DA
:100030000C9455030C9455030C9455030C945503E0
:100040000C9455030C9455030C9455030C945503D0
:100050000C945503F60FF90F011006100B10101039
:1000600015101A101F10241029102E1030103310E4
:10007000361039103C103F104110461066116811BF
:100080006D117011731176117911AA17AA17DC1767
:10009000DC1729185D195D195D194718DC18ED1872
:1000A000ED184D195D195D195619F919F9190B1A41
:1000B0000B1A021A0B1A0B1A0B1AF919F919071A4B
:1000C0000B1A0B1A071A2B0014001A00080015004F
:1000D00017001C0018000C00120013002A00290051
:1000E00004001600070009000A000B000D000E00B6
:1000F0000F0033002800E1001D001B00060019005E
:100100000500110010003600370038003462E000AE
:100110000358E300E20001582C422C002C00500050
:10012000510052004F0035003A003B003C003D00BA
:100130003E0001002400250026000100010001000E
:100140003F0040004100420043002E0221002200F7
:1001500023002D0001000100440045004600470037
:10016000480025021E001F00200038002E0001005C
:1001700001000100010001530100010027002700D8
:1001800037003600290035021E021F02200221021C
:100190002202230224022502260227024C0001002B
:1001A00049004A004B00010001005000510052007C
:1001B0004F002D02010001004C004D004E000100D7
:1001C00001002F0230022F00300031003102010007
:1001D00001000100010001000100010002534A007A
:1001E0004E004B004D0001000100F000F90001003D
:1001F00001000100010001000100010004530100A1
:10020000F200F100F3000100010001000100010013
:10021000010001000100010001000100FA000100DD
:1002200001000100010001000100010001000100C6
:10023000035301000100F400F5000100F600AB00DB
:10024000AA00A900AE002B00005C1A0008001500EF
:1002500017001C003A003B003C003D0004532900FD
:100260000400BF5CC05C09000A000B001E001F00F8
:10027000200021000100E1001D00C25CC35C1900E8
:10028000050011001000360037003800E100E000E2
:10029000E200E300E6002C002C002C002C005000B3
:1002A000510052004F0032190A00047F3F1F643290
:1002B00014643214783C1E1E140A052223252628B5
:1002C000292A2C2D2F3032333536383A3B3D3E40EB
:1002D00042434547494A4C4E5051535557595A5C31
:1002E0005E6062646668696B6D6F71737577797B48
:1002F0007D7F81838587898A8C8E90929496989A47
:100300009C9E9FA1A3A5A7A8AAACAEAFB1B3B4B65B
:10031000B8B9BBBCBEBFC1C2C3C5C6C7C9CACBCCB6
:10032000CDCED0D1D2D2D3D4D5D6D7D7D8D9D9DA89
:10033000DADBDBDBDCDCDCDCDCDDDDDDDDDCDCDCFE
:10034000DCDCDBDBDBDADAD9D9D8D7D7D6D5D4D326
:10035000D2D2D1D0CECDCCCBCAC9C7C6C5C3C2C1FB
:10036000BFBEBCBBB9B8B6B4B3B1AFAEACAAA8A758
:10037000A5A3A19F9E9C9A98969492908E8C8A8910
:10038000878583817F7D7B79777573716F6D6B69ED
:1003900068666462605E5C5A5957555351504E4CC2
:1003A0004A4947454342403E3D3B3A383635333271
:1003B000302F2D2C2A292826252322FFAA7F5540BD
:1003C0000000000000000000000000010102030422
:1003D0000506080A0C0F1114181C2024292E333985
:1003E0003F464C535B626A7179818A929AA2AAB2A3
:1003F000B9C1C8CFD5DCE1E7EBF0F4F7FAFCFDFEBC
:10040000FFFEFDFCFAF7F4F0EBE7E1DCD5CFC8C165
:10041000B9B2AAA29A928A8179716A625B534C46F8
:100420003F39332E2924201C1814110F0C0A0806FA
:1004300005040302010100000000000000000000AC
:100440000001010101010101010102020202020297
:10045000020202030303030303030304040404046A
:100460000404050505050506060606060707070731
:100470000708080808090909090A0A0A0B0B0B0CE6
:100480000C0C0D0D0D0E0E0E0F0F0F101011111183
:100490001212131314141515161617171818191904
:1004A0001A1A1B1B1C1D1D1E1E1F20202122222369
:1004B0002424252626272829292A2B2C2D2D2E2FAA
:1004C00030313232333435363738393A3B3C3D3EC1
:1004D0003F404142434445464748494A4C4D4E4FB0
:1004E00050515354555658595A5B5D5E5F61626472
:1004F000656668696B6C6D6F7072737577787A7BFF
:100500007D7E8082838587888A8C8E8F9193959655
:10051000989A9C9EA0A2A3A5A7A9ABADAFB1B3B575
:10052000B7BABCBEC0C2C4C6C9CBCDCFD1D4D6D851
:10053000DBDDDFE2E4E7E9EBEEF0F3F5F8FAFDFFEF
:1005400009023B00020100A032090400000103017E
:100550000100092101010001224000070581030873
:10056000000109040100010300000009210101004C
:100570000122320007058303080001120110010067
:10058000000008504B400000020102030104033048
:100590000000000A034A004A003400300000000A4C
:1005A00003720077006B0062000000040309040579
:1005B000010980A101850319012AB700150126B799
:1005C00000950175108100C0050C0901A101850489
:1005D00019012AA002150126A002950175108100BB
:1005E000C005010906A101050719E029E715002545
:1005F00001950875018102950175088103050719A8
:100600000029FF150026FF009506750881000508E2
:10061000190129059505750191029501750391034D
:10062000C00011241FBECFE5D8E0DEBFCDBF04B6A9
:1006300003FE24C08091DD029091DE02A091DF02D2
:10064000B091E0028730904BA740B04BB9F41092C4
:10065000DD021092DE021092DF021092E00214BE60
:1006600084B7877F84BF0FB6F894A89581B5886159
:1006700081BD11BC0FBEE0E0F8E3099511E0A0E6F2
:10068000B0E0E4EFFCE402C005900D92A432B107A3
:10069000D9F722E0A4E2B1E001C01D92AD3DB2075E
:1006A000E1F70E9401220C9478260C940000A82FF8
:1006B000B92F80E090E041E050EA609530E009C059
:1006C0002D9182279795879510F084279527305E86
:1006D000C8F36F5FA8F30895EADF8D939D930895A3
:1006E000CF93CFB7CF93C395839BE9F7839B0EC07E
:1006F000839B0CC0839B0AC0839B08C0839B06C05E
:10070000C091B402C395C093B402A6C0DF93C09158
:10071000B302DD27C554DD4F839B02C0DF91E6CFD6
:100720002F930F931F9300B32FEF03FB20F94F93E9
:100730003F9310B34FEF012703FB21F93BE031C09A
:100740004E7F012F10B3216028C0102F4D7F2260F3
:10075000000000B329C04B7F2460012F000010B3BC
:100760002BC010B3477F28602AC04F7E00B32061A2
:100770002CC04F7D10B320622FC04F7B00B320648C
:1007800032C0422700B349934FEF0000102713FBFC
:1007900020F910B31C70C9F1297F91F2012703FBE6
:1007A00021F900B3237F89F2315058F1102713FB50
:1007B00022F910B3277E79F2012703FB23F92F7C5E
:1007C00081F200B3102713FB24F92F7971F200C0D6
:1007D00010B3012703FB25F92F7359F200C000B3B2
:1007E000102713FB26F9223040F200C010B3012776
:1007F00003FB27F9243028F64F77206810B3000058
:10080000F9CF10E81ABF00271CC03B503195C31B1D
:10081000D04010E81ABF0881033C11F10B3401F1FC
:100820002091B0021981110F1213EDCF4A81441F9C
:10083000093669F10D3211F0013E29F74F7009F0C8
:10084000042F0093B9023F914F911F910F912F9167
:10085000DF91CAB7C7FD47CFCF91CFBFCF911895D2
:100860002091B902222379F31091B702112309F0E4
:1008700044C034300AF443C03093B7022093B2022C
:100880001091B3023BE0311B3093B30238C00091AA
:10089000B702013094F50AE54F7049F430918500B4
:1008A00034FD2FC000938500CDE8D2E02EC0433048
:1008B00059F0443091F03091980234FD22C00093F9
:1008C0009802C9E9D2E021C03091D10234FD19C0AB
:1008D0000093D102C2EDD2E018C03091A40234FDE1
:1008E00010C00093A402C5EAD2E00FC02795A8F477
:1008F0005150A9F4220F0000F9CF4AE503C042EDA0
:1009000001C0432FC4E1D0E032E011B31C60939AE0
:1009100011BB02B320E41CE05F93012756E002BB49
:10092000279520F4515021F4220FF9CF012756E0EA
:1009300000003B5A02BBD0F2279528F4515029F40D
:10094000220F0000F9CF012756E0279502BB20F4C3
:10095000515021F4220FF9CF012756E0299133237A
:1009600002BB21F6037F1091B802110FC651D0408F
:1009700002BB11F01093B00210E81ABF086011B367
:10098000137F402F437F5F9100C000C002BB11BBAB
:1009900042BB59CF81E0089581E008950C94CC04C6
:1009A00008950C94D0041F93CF93DF9300D000D010
:1009B0001F92CDB7DEB749835A836B8330916301B1
:1009C00089819A81311114C0662359F0222349F09C
:1009D0000E94351F182F682F89819A810E94DE1E80
:1009E00003C00E94091F182F69817A81812F04C0DA
:1009F0000E94351F69817A810F900F900F900F90A0
:100A00000F90DF91CF911F910C949305FC01262F3D
:100A1000408151816281738184810C94D304CF938E
:100A2000DF93EC0160E00E940605BE01DF91CF91EB
:100A30000C94D1040E946720811102C00E941021F1
:100A40000E945F120C94AC070C94A80708950C94B4
:100A5000260581E008950C942905CF93C82F0E94A4
:100A600027058C2F0E942B05CF91089508950E9491
:100A7000E7190E9436052FEB87E299E0215080406C
:100A80009040E1F700C000000C94C6210F931F9323
:100A9000CF93DF93EC0161E00E9406058C01BE015B
:100AA0000E94CE048823A9F1BE01C8010E945711FB
:100AB000882379F1BE01C8010E942713882349F1D8
:100AC000BE01C8010E947913882319F1BE01C80133
:100AD0000E94A4148823E9F0BE01C8010E94DF0F20
:100AE0008823B9F08A81882369F001158CE51807FD
:100AF00031F00E3D1C4531F40E9410210AC00E94C5
:100B0000370507C0CE01DF91CF911F910F910C9453
:100B1000CA0480E0DF91CF911F910F91089580E08A
:100B200090E00895089520E3829FC0011124FC0104
:100B30002CE0729FE00DF11D1124E60FF11DEE0F68
:100B4000FF1FEA53FF4F859194910895880F991FD5
:100B5000FC01EA55FD4F859194910895CF93DF9361
:100B60000E9493050E94C006EC018115904508F093
:100B700043C0C11580E4D80708F0CBC0C03ED10502
:100B800028F5C03CD10508F0B3C0C83AD10578F4C7
:100B9000C53AD10508F0A4C0C130D10509F4ECC0B4
:100BA00008F4E8C0C430D10508F0E6C0E3C0CF3B8C
:100BB000D10508F0DFC0C85AD0E0CC0FDD1FCA57FE
:100BC000DF4F0990D881C02DD464D6C0C11590E202
:100BD000D90750F4C11521E0D20708F0CDC0C83EB6
:100BE000D10508F4C9C0C6C0C11580E3D80708F014
:100BF00086C0CE019F707FC0C11595E5D90708F06A
:100C000043C0C11524E5D20708F09AC0C11582E59A
:100C1000D80708F5C11591E5D90708F07DC0CE01C8
:100C200074E0969587957A95E1F783709C2F937081
:100C300021E030E002C0220F331F9A95E2F73C68B2
:100C4000382BCF70C695C69580E2C89FE00111246D
:100C5000C22BD32B91C09E01237033278C2F8695F6
:100C60008695C115D34508F05CC0C1E0D0E002C054
:100C7000CC0FDD1F2A95E2F720E2829FC0011124EC
:100C8000C82BD92BDC6878C0C11529E5D207A0F4A0
:100C9000C11588E5D80708F058C0C11596E5D907F1
:100CA00008F068C08C2F0E9454078F71C82FD0E0C5
:100CB000DC2FCC27D06260C0C1152AE5D20708F42A
:100CC00049C0CE0190568115904208F053C08D2F37
:100CD0008F710E945407DD27D0628F71D82B4CC0D2
:100CE000C55AD0E0CC54DF4FC881D0E0D06444C0B6
:100CF000CE01805C91090E94A605EC013DC0CE01A9
:100D00009927D3FF03C0EC01D86C36C0EC01D06C3E
:100D100033C0DF70D06A30C0DC2FCC27C16FD06AFF
:100D20002BC0C1E0D0E002C0CC0FDD1F2A95E2F756
:100D300020E2829FC0011124C82BD92BDA681CC085
:100D4000DC2FCC27C46FD06A17C0DC2FCC27C06F34
:100D5000D06A12C08C2F8F700E94540794E0D695F1
:100D6000C7959A95E1F7CF70D0E0DC2FCC27D069FA
:100D7000C82B02C0C0E0D0E0CE01DF91CF91089532
:100D80008238910569F1B0F48133910509F46DC0A1
:100D900048F48932910509F463C08A32910509F457
:100DA00069C008958533910509F455C089339105CB
:100DB000B9F00895833E910569F138F4803E9105BC
:100DC000B1F0823E910509F10895863E9105A9F1A1
:100DD000873E9105B9F1843E910509F064C023C0B6
:100DE00020918B0220FD4FC021FD4DC008958091C0
:100DF0008B0280FD44C080918C0280FF44C08091B2
:100E00008B0284FD42C083EE4DC080918B0282FF35
:100E100038C0F5CF80918B0282FD33C080918C0267
:100E200080FD31C0ECCF80918C0281FF32C0809177
:100E30008B0284FD2AC087EE35C080918B0283FF30
:100E400026C0F5CF80918B0283FD21C080918C025A
:100E500081FD1FC0ECCF80918B0285FD1CC01DC0A1
:100E600080918B0285FD19C016C080918B0286FD92
:100E700016C017C080918B0286FD13C010C089E395
:100E800011C082EE0FC080EE0DC080E00BC086EE78
:100E900009C084EE07C089E205C085E303C08AE289
:100EA00001C081E390E0089590918B0292FF0DC004
:100EB000282F2871283019F4877F846006C0282FD6
:100EC0002471243011F48B7F886093FF0DC0282F8C
:100ED0002871283119F4877E846106C0282F247177
:100EE000243111F48B7E886120918C0220FF0DC08B
:100EF000382F3871383019F4877F816006C0382F59
:100F00003171313011F48E7F886021FF0DC0282FA0
:100F10002871283119F4877E816106C0282F21713C
:100F2000213111F48E7E886194FD877E0895E82F2B
:100F3000F0E0EE0FFF1FE659FD4F8081918108958B
:100F4000089588E78A95F1F7089508950C94A50708
:100F50000C94A6070C94A5070C94AA07CF93DF93D3
:100F6000A3ECB0E047EC50E061E070E08D91E82F39
:100F7000E295EF70F0E021A98F70EB0102C0CC0F79
:100F8000DD1F8A95E2F7CE019C2F9095922391ABBD
:100F900092A9892B82AB4A175B0741F7A7EBB0E018
:100FA00041E050E08D91E82FE295EF70F0E021A94B
:100FB0008F70BA0102C0660F771F8A95E2F7CB01E6
:100FC000962F9095922391AB92A9892B82AB70E0DA
:100FD000A33CB70739F71092630210926202109295
:100FE0006B0210926A0210926502109264021092D3
:100FF0006D0210926C0210926702109266021092BB
:101000006F0210926E0210926902109268021092A2
:1010100071021092700284E00E949F08DF91CF91CC
:101020000C941A056F927F928F929F92AF92BF920B
:10103000CF92DF92EF92FF920F931F93CF93DF93A4
:1010400083ECC82E80E0D82E02E612E09AE6A92EA4
:1010500092E0B92E712C88248394912CF601819111
:101060006F01C82FC295CF70D0E099A98F7074011D
:1010700001C0EE0C8A95EAF7892F8E2989AB8AA9DF
:101080006E2C609486218AAB0E94A107E7EBF0E00A
:1010900040E050E020E030E06191A62FA295AF70D3
:1010A000B0E0D0968C9190E06F7002C095958795D6
:1010B0006A95E2F780FD08C0C401042E02C0880FC3
:1010C000991F0A94E2F702C080E090E0282B392BA8
:1010D0004F5F5F4F4C305105F9F689A9682269AA24
:1010E0008AA9E82AEAAAF80180819181281739079C
:1010F00021F03183208381E001C080E0782A0E5FF7
:101100001F4FA016B10609F0A9CF272D44E06AE6CB
:1011100072E082E692E00E94A0080E942405872DDA
:10112000DF91CF911F910F91FF90EF90DF90CF90C3
:10113000BF90AF909F908F907F906F90089508958B
:10114000FF920F931F93CF93DF93F82E092F162F43
:10115000D72FC42F222349F081E0809326010E94DB
:101160008521909325018093240180912601882375
:10117000D9F080912401909125010E949121069738
:1011800098F0EF2DF02FA12FBD2F80E090E04C2F95
:1011900050E08417950734F4219131912D933D93BC
:1011A0000196F7CF10922601DF91CF911F910F91F9
:1011B000FF900895EF92FF920F931F93CF93DF93C9
:1011C0008B01682F11110AC0442329F0E82FF0E0A9
:1011D000E05CFB4F6491762F862F75C0212F30E0A5
:1011E000E82FF0E0442321F0E05CFB4FE491F0E0D5
:1011F00046E0049FC0011124CFEFD0E0BE010E9461
:101200001B254BEA4603C001479F900D1124800F18
:10121000911D800F911D982F990F890FAE01421BD0
:10122000530B4E9FD0014F9FB00D5E9FB00D112408
:101230009B2F189FA0011124452F55278E01041BB9
:10124000150B0E9FA0010F9F500D1E9F500D1124D6
:101250007E01E81AF108E29E8001E39E100DF29EE5
:10126000100D1124212F3327C21BD30BCE9F9001C9
:10127000CF9F300DDE9F300D112462307105A9F033
:1012800048F46115710569F061307105C9F48B2F5F
:10129000752F0DC06430710581F058F0663071050E
:1012A00079F47E2F8B2F932F0DC0832F7B2F9E2FB2
:1012B00009C08E2F7B2F952F05C08E2F732F02C054
:1012C0007E2F852F692FDF91CF911F910F91FF9076
:1012D000EF90089541E00E94DA0808950895CF93B1
:1012E000DF93762FE901682F842F0E946A097983A2
:1012F00068838A83DF91CF91089580917202282FAD
:10130000269530E02115310519F48170826005C001
:101310002B32310524F08170846580937202089528
:1013200088E090E00C940D26CF92DF92EF92FF922E
:101330006B017C010E947D09B701A60188E090E065
:10134000FF90EF90DF90CF900C942A26E2E7F2E036
:1013500083E0808311828FEF828383831482608194
:101360007181828193810C9494098091720280FF33
:1013700002C08695089580E008959091760293309A
:1013800018F49F5F90937602882351F06091720267
:101390007091730280917402909175020C9494097B
:1013A000089581E00C94BD0990917602992319F07B
:1013B000915090937602882351F06091720270915F
:1013C000730280917402909175020C9494090895AF
:1013D00081E00C94D40970E00C9471126091680063
:1013E0008091720280FF0AC08091670023E0829F93
:1013F000C001112489589D4F0C94EB09809169001C
:1014000090916A00891780F7E82FF0E09F01220F82
:10141000331FE20FF31FE958FD4F11821082128231
:101420008F5FF0CF9091720290FF16C0909169008B
:1014300020916A00921770F4E92FF0E0DF01AA0F03
:10144000BB1FEA0FFB1FE958FD4F81836083428376
:101450009F5FF0CF0C94EE090895CF93DF9300D0F7
:101460001F92CDB7DEB79091720290FF0AC09E0125
:101470002F5F3F4F0E946F094B8169818A810E94D3
:10148000120A0F900F900F90DF91CF910895CF9394
:10149000DF93EC01EC81F0E0E554FD4F4491E2E78D
:1014A000F2E0628181810E942D0A8C818F5F8C83A2
:1014B000DF91CF910895CF93DF93EC01E2E7F2E063
:1014C000438162818C810E942D0A8C818F5F8C8385
:1014D000DF91CF9108950F931F93CF93DF9300D0A7
:1014E0001F92CDB7DEB78C018091270181110AC010
:1014F0009E012F5F3F4F4FEF6FEF0E946F098A8170
:1015000080932701F8018481813051F028F08230E6
:1015100061F4409127010AC08091270140E007C093
:101520006091270140E080E003C040E080E060E09F
:101530000E94120AF801848190E0019663E070E055
:101540000E942F2584830F900F900F90DF91CF91F1
:101550001F910F910895AF92BF92CF92DF92EF92B9
:10156000FF920F931F93CF93DF9300D01F92CDB7BD
:10157000DEB7182FF62E042FE22E9091720290FF04
:101580006DC0E92FE695AE2FB0E0A953BF4F8C9107
:1015900080934A019E7F923061F49E012F5F3F4FFE
:1015A000812F0E946F094B8169818A810E94120AF2
:1015B00043C0823019F4009175023EC0863019F4A0
:1015C0001091730239C08930D9F38931A9F5E951F5
:1015D0008E2F8170D82EE695F0E0E554FC4FA59053
:1015E000B490C12CBB2460916B00C61618F52C2D4D
:1015F00030E0A29EC001A39E900DB29E900D1124DA
:1016000070E00E941B25812FD11002C0860F01C0FF
:10161000861B90916900290F311DA901440F551FA8
:10162000240F351F29583D4F402F6F2D0E946F0901
:10163000C394D9CF0E94EE0910937302F092740202
:1016400000937502EE2051F0609172027091730266
:1016500080917402909175020E9494090F900F90EE
:101660000F90DF91CF911F910F91FF90EF90DF903E
:10167000CF90BF90AF900895E2E7F2E09181282FDC
:101680004381628188E0890F0C94AB0A81E00C945D
:101690003C0BE2E7F2E09181282F4381628188EFE1
:1016A000890F0C94AB0A81E00C94490BE2E7F2E05D
:1016B000628121E1620F08F46FEF282F438181815D
:1016C0000C94AB0A81E00C94560BE2E7F2E06281E5
:1016D00021E1621B08F460E0282F438181810C9492
:1016E000AB0A81E00C94650BE2E7F2E0438121E173
:1016F000420F08F44FEF282F628181810C94AB0ACE
:1017000081E00C94740BE2E7F2E0438121E1421B9B
:1017100008F440E0282F628181810C94AB0A81E0BB
:101720000C94830B20E00C94AB0AFF920F931F9351
:10173000CF93DF93EC01F12C0FEF10E060916B0081
:10174000F616F0F4809169002F2D30E0280F311D3E
:10175000C901880F991F280F391F29583D4F70E084
:10176000C8010E942F25962F8C81409175026091AF
:101770007402F99E800D11240E946F09F394DECF4C
:101780000E94EE099A818C8190FF02C08F5F01C098
:1017900081508C83DF91CF911F910F91FF9008951D
:1017A000AF92BF92CF92DF92EF92FF920F931F936F
:1017B000CF93DF93FC01828180FF02C00FEF01C055
:1017C00001E010E045E0A42E80916B00181708F0AE
:1017D00043C080916900C12ED12CE601C80FD11DF4
:1017E000CE01880F991FC80FD91FC958DD4F198224
:1017F00018821A8234E0E32EF12CB12C8091290159
:101800008B0D86302CF06A2D0E940D25892F05C086
:1018100087FF03C090916B00890F082E000C990B75
:10182000C816D90691F4809175028E9DA0018F9DF6
:10183000500D112455954795559547959E016091FA
:101840007402809173020E946F09B00EF1E0EF1AEA
:10185000F108A1F61F5FB8CF0E94EE09809129011F
:10186000013031F4811102C080916B00815007C0BA
:1018700090E0019660916B0070E00E942F258093AC
:101880002901DF91CF911F910F91FF90EF90DF9091
:10189000CF90BF90AF900895CF93809169009091C1
:1018A0006A00891770F4E82FF0E09F01220F331FC0
:1018B000E20FF31FE958FD4F1182108212828F5FF1
:1018C000F0CFC0E060916B00C617C0F5EC2FF0E0E0
:1018D00070E0CF010E942F2520916900820F209196
:1018E0002801022E000C330B90E0E217F307CCF036
:1018F00020916600022E000C330B2E173F078CF050
:101900009C01220F331F820F931F9C0129583D4FCA
:101910004091750260917402809173020E946F0978
:101920000BC0FC01EE0FFF1F8E0F9F1FFC01E9583B
:10193000FD4F118210821282CF5FC4CF0E94EE0948
:101940002091650080912801820F80932801909159
:101950006600920F9093660019165CF4082E000C36
:10196000990B40916B0050E0415051098417950745
:101970001CF0219520936500CF9108958F929F923E
:10198000AF92BF92CF92DF92EF92FF920F931F938D
:10199000CF93DF938C01FC014481C42FD0E09E01E2
:1019A000DE010E9473259B01AC010E9489256B0119
:1019B0007C01E0E2F0E0EC1BFD0BA5E5B0E09B0153
:1019C000AC010E9489254B015C019F01DF010E944F
:1019D0006B259B01AC010E9494259B01AC012C0D51
:1019E0003D1D4E1D5F1DC501B4010E944325C22F40
:1019F000D22F2A3228F4F3E02F9F900111240DC03A
:101A000025E530E02C1B3109C901880F991F280FEB
:101A1000391F37FF02C02F5F3F4F35952795C22FE3
:101A2000C095F12C85E5E82EED1A80916B00F81633
:101A3000C8F4F1FC02C08E2D01C08D2F9091690079
:101A40002F2D30E0290F311DA901440F551F240F00
:101A5000351F29583D4F4C2F609174020E946F0929
:101A6000F394E3CF0E94EE09F8018481811102C052
:101A700091E003C0803219F49FEF9093640090913D
:101A80006400890FF8018483DF91CF911F910F913A
:101A9000FF90EF90DF90CF90BF90AF909F908F908E
:101AA00008950F931F93CF93DF93EC0100E010E0B4
:101AB00080916B00282F30E00217130724F59091D6
:101AC00069009801290F311DA901440F551F240FEA
:101AD000351F29583D4F869590E04C81081719070E
:101AE0001CF4442331F002C0411103C0409175023F
:101AF00001C040E060917402809173020E946F09FE
:101B00000F5F1F4FD5CF0E94EE098C8190E00196A8
:101B1000817099278C83DF91CF911F910F91089548
:101B20008F929F92AF92BF92CF92DF92EF92FF92ED
:101B30000F931F93CF93DF93FC01B280948081E0D9
:101B4000848300E015E05BE4A52E88248394EE24D2
:101B5000EA94F12C7BE4C72ED12C80916B000817FE
:101B600008F08FC0C02FD0E01C9FF0011D9FF00D2A
:101B70001124E65DFE4F911003C01382128267C0EC
:101B80002381222389F1215023833481332319F0C7
:101B90009A2D921B01C0922F809175021C9FF0011B
:101BA0001D9FF00D1124E65DFE4F899FC001112499
:101BB000B6010E941B256283211104C0332311F05A
:101BC0001482A38222E02B1508F441C01C9FF0016F
:101BD0001D9FF00D1124E65DFE4F809173028083FE
:101BE00080917402818333C00E94E8258230914045
:101BF00074F582E08B1530F40E94E825B7010E944D
:101C00002F2502C0809173021C9FF0011D9FF00DD3
:101C10001124E65DFE4F808322E02B1558F40E94CC
:101C2000E825209174022695622F70E00E942F25EE
:101C3000820F02C0809174021C9FF0011D9FF00D65
:101C40001124E65DFE4F81831282A38284828091FB
:101C500069009E01280F311DC901880F991F280FA7
:101C6000391F29583D4F1C9FF0011D9FF00D112475
:101C7000E65DFE4F4281618180810E946F090F5FA6
:101C80006CCFDF91CF911F910F91FF90EF90DF907C
:101C9000CF90BF90AF909F908F900C94EE09E2E7A9
:101CA000F2E080818E7F8083608171818281938167
:101CB0000E94940910924B012FEB84ED91E021508A
:101CC00080409040E1F700C000000C94EE09609164
:101CD0007202669570E04BE050E08CE690E00E9466
:101CE000F825892B19F481E080934B010E9485210E
:101CF000909344018093430108959091720290FF64
:101D000035C09170811102C0926006C08B3210F014
:101D1000946502C0880F982B90937202662351F04D
:101D200060917202709173028091740290917502B9
:101D30000E94940960917202669570E04BE050E059
:101D40008CE690E00E94F825892B19F010924B0147
:101D500002C00E94670E81E08093460140917502A7
:101D600060917402809173020C94920B0895682F15
:101D700090917202969581E0890F8B3208F081E094
:101D80000C947D0E81E00C94B70E682F9091720236
:101D900096958FEF890F09F48AE20C947D0E81E00D
:101DA0000C94C50E61E00C947D0EE2E7F2E08081B8
:101DB0008160808386950C94D20E8091720280FDA2
:101DC0000C944F0E0C94D50E60E00C947D0E809117
:101DD000490181112EC00E946720811104C00E9418
:101DE00010210E94A6090E949009609372027093CC
:101DF000730280937402909375026E7F61F40E9467
:101E0000A6090E94900960937202709373028093F6
:101E10007402909375020E947D0910924B0180918B
:101E2000720280FF03C086950E94E40E81E08093D9
:101E3000490108950F931F93CF93DF9380914B0136
:101E4000882309F49CC080914A01E0917202E695D2
:101E5000E81BE0934501823049F4F0E0E954FD4F7E
:101E6000E491CE2FD0E007E41AE059C0863049F45F
:101E7000F0E0EC54FD4FE491CE2FD0E00BE51AE0FA
:101E80004EC0893051F4E695F0E0EF54FD4FE491F7
:101E9000CE2FD0E005E91BE042C08F3051F4E6952B
:101EA000F0E0E255FD4FE491CE2FD0E000ED1BE0D5
:101EB00036C0853149F4F0E0E555FD4FE491CE2F71
:101EC000D0E00CE41CE02BC08831D9F0833239F427
:101ED000E9EAF2E0C591D4910BE61AE020C0843221
:101EE000A9F08532C1F48E2F63E00E940125E92F0D
:101EF000F0E0EA55FD4FE491CE2FD0E000E91DE07F
:101F00000EC0C8E2D0E00EEB1CE009C0C4EFD1E087
:101F100001E51DE004C0C0EDD7E00EE619E08091B8
:101F20004601882389F0109246010E9485219E0176
:101F300020953095820F931F909344018093430125
:101F40001092480110924701809143019091440101
:101F50000E9491218C179D0790F0E0914301F09130
:101F60004401CE0FDF1FD0934401C093430183E4AB
:101F700091E0F801DF91CF911F910F910994DF91CA
:101F8000CF911F910F910895882311F0FA0101C09C
:101F9000FB010994CF93DF93C82FD62F0E94B50978
:101FA0008C1740F00E94B5098D1720F4DF91CF9176
:101FB0000C94C20E8C2FDF91CF910C94D20E0F9304
:101FC0001F93CF93FB01C281CC2309F463C08C0122
:101FD0000E94B61F8272F801E25CFC45E431F10513
:101FE00008F059C0E65DFF4F0C9465250E94DD0E98
:101FF00006C04FEC5EE062EC7EE00E94C40FC0E0E1
:102000004AC042EC5EE06FEC7EE0F7CF43E55BE078
:1020100066E47BE0F2CF46E45BE063E57BE0EDCF96
:1020200041E75BE062E67BE0E8CF42E65BE061E748
:102030007BE0E3CF4FE85BE060E87BE0DECF40E8A9
:102040005BE06FE87BE0D9CF48EE59E061ED79E0E5
:10205000D4CF41ED59E068EE79E0CFCF81E017C0F1
:1020600065E082E010C068E086E00DC06EE089E0C7
:102070000AC064E18FE007C067E185E104C088E140
:1020800006C062E289E10E94CA0FB9CF83E20E94D2
:10209000D20EB5CFC1E08C2FCF911F910F91089533
:1020A0008091860286958695869508958091860210
:1020B00081FD07C08260809386020E949C200C9460
:1020C000E31108958091860281FF07C08D7F809380
:1020D00086020E949C200C94ED1108958091860246
:1020E00081FD0C9462100C945610809186028695A6
:1020F000817008958091770008950E946720811172
:1021000002C00E9410210E94982080938602282FEE
:1021100026952695269530E02D30310524F08770E0
:102120008066809386028091860280FF04C0869537
:102130008695869501C080E00C94BF11209186029F
:10214000822F869586958695482F50E04C30510514
:1021500054F48F5F982F990F990F990F822F8770E2
:10216000892B80938602809186028160809386020B
:102170000E949C20809186028695869586950C9477
:10218000BF1180918602982F969596959695A1F00D
:10219000915E990F990F990F8770892B8093860212
:1021A000887F91E009F490E08091860290FB80F9AD
:1021B000809386020E949C20809186028695869557
:1021C00086950C94BF118091860280FD13C08160BA
:1021D00080938602813019F489E080938602809191
:1021E00086020E949C20809186028695869586951F
:1021F0000C94BF1108958091860280FF08C08E7FE5
:10220000809386020E949C2080E00C94BF11089568
:102210008091860280FD0C94FB100C94E310909149
:102220008602892F8695869586958F5F8F71977028
:102230008D3038F4880F880F880F892B80938602A1
:1022400002C09093860280918602887F91E009F413
:1022500090E08091860290FB80F9809386020E9434
:102260009C20809186028695869586950C94BF1158
:102270008D3008F08CE0909186029770282F220F05
:10228000220F220F922B90938602987F21E009F46F
:1022900020E09091860220FB90F9909386020C94A6
:1022A000BF110E943811809186020C949C20FC0181
:1022B000DB0112968C918823F9F0EB5BFC45E7304B
:1022C000F105D8F4E25CFF4F0C9465258CE001C069
:1022D00080E00E94511180E008950E94C110FBCF60
:1022E0000E949E10F8CF0E940811F5CF0E940F1196
:1022F000F2CF0E946E10EFCF81E008958C9A9498EF
:10230000089594980895CF92DF92EF92FF928C37C0
:1023100024E1920728F469E070E00E941B2529C09F
:10232000A0E0B0E08A50974DAF4FBF4F6627782F9F
:10233000892F9A2F25EF38E241E050E00E94432593
:1023400069017A01CA01B9010E94F1249B01AC0123
:10235000C701B6010E94F124BB27A92F982F872F10
:10236000009721E0A207B10511F0BC0102C06FEF98
:102370007FEFCB01FF90EF90DF90CF900895CF9348
:10238000C82F8D3040F4811107C08FB58F7D8FBD70
:102390000E94811104C0CCE08FB580628FBD2C2FCC
:1023A00030E0AFEFBFEF0E9473252CE030E040E05B
:1023B00050E00E944325C9010E94831199BD88BD48
:1023C000CF910895089510924D0110924C011092F2
:1023D0004E0189B7846089BF089589B78B7F89BF13
:1023E0000E9450100C94BF111F920F920FB60F92C3
:1023F00011242F933F934F935F936F937F938F930A
:102400009F93AF93BF93CF93EF93FF930E947A1064
:1024100040914C0150914D014F5F5F4F94EF899F68
:1024200090011124CA01B9010E941B2590934D010E
:1024300080934C01B901660F672F661F770B71956A
:102440000E941B256F7780914E01823019F4603411
:1024500041F404C0813029F46F3719F489B78B7FB8
:1024600089BFE62FF0E0E054FC4FC4910E94501069
:10247000282F41E051E0C49FC001C59F900D112459
:102480006CE070E00E941B25269FC001279F900DE5
:1024900011240E94831199BD88BDFF91EF91CF91C6
:1024A000BF91AF919F918F917F916F915F914F916C
:1024B0003F912F910F900FBE0F901F9018950E9483
:1024C0007E1182E28FBD89E18EBD8FEF9FEF97BDB8
:1024D00086BD0E947D100E94751081110C94E3113D
:1024E00008950F931F93CF93DF938C01EB0180919D
:1024F0004F01811105C00E94D51481E080934F01E6
:10250000AE01440F551F4C0F5D1F24E630E0B801AB
:1025100080EBDF91CF911F910F910C945F15AF92DB
:10252000BF92CF92DF92EF92FF920F931F93CF93C0
:10253000DF937C015B01C42FD22FFC0182818823B1
:10254000F9F0409352010E948521909351018093AC
:10255000500180E28C0F883008F06EC0C77081E0B7
:1025600001C0880FCA95EAF7DF91CF911F910F91B3
:10257000FF90EF90DF90CF90BF90AF900C946617D4
:1025800080915201481335C08091500190915101C2
:102590000E9491216C01B701C5010E94A01CC816C0
:1025A000D90638F510E21D0FCD17B9F080E28C0F77
:1025B000883040F4C77081E001C0880FCA95EAF7FF
:1025C0000E946D17183058F581E09D2F977001C05B
:1025D000880F9A95EAF70E946617802F0E9453177A
:1025E000183050F5D77081E001C0880FDA95EAF70E
:1025F0000AC080E28C0F8830F8F4C77081E001C017
:10260000880FCA95EAF7DF91CF911F910F91FF9044
:10261000EF90DF90CF90BF90AF900C946D17802F0C
:10262000DF91CF911F910F91FF90EF90DF90CF90AE
:10263000BF90AF900C945317DF91CF911F910F91E2
:10264000FF90EF90DF90CF90BF90AF9008950F93E1
:102650009C01CB01233F4CE5340731F188F4283D40
:10266000FCE53F07D9F0293D4CE5340779F1273DDA
:102670003C45A9F506E221EE41EE67ED7CE52BC075
:10268000253FFCE53F07E1F0A8F0263F3C4539F542
:1026900007E225EE46EE66EF7CE51DC007E225EE7B
:1026A00045EE68ED7CE517C006E221EE40EE63EFF3
:1026B0007CE511C007E225EE44EE64EF7CE50BC03B
:1026C00006E221EE42EE65EF7CE505C008E221E07E
:1026D00045EE69ED7CE50E948F1280E008C0FC01A8
:1026E0008281882319F01092520101C081E00F917C
:1026F0000895CF93DF93EC01FB018281882309F4D5
:102700001FC1C230FCE5DF0708F41BC1C6319CE5E0
:10271000D90738F09E012A5F3C452930310508F081
:1027200010C10E947A2090938C0280938B02C0315A
:10273000ECE5DE0709F4C3C008F041C0C8308CE501
:10274000D80709F49AC0F0F4C430ECE5DE0709F4C8
:1027500087C068F4C2308CE5D80709F477C0C3306D
:10276000DC4509F0E3C080918B02826076C0C63000
:10277000ECE5DE0709F46EC008F07BC080918B02A7
:1027800088606BC0CC308CE5D80709F485C068F44C
:10279000CA30ECE5DE0709F474C008F079C00E9485
:1027A000E71980918B02806858C0CE308CE5D8073D
:1027B00009F476C008F07FC080918B028BC0CB3FBC
:1027C000ECE5DE0709F44FC018F5C3318CE5D807F6
:1027D00009F47DC078F4C131ECE5DE0709F473C07B
:1027E000C231DC4509F0A2C00E94E71980918B023A
:1027F0008F7733C0C5318CE5D80709F472C008F46F
:1028000086C0CA3FDC4509F091C080918C023EC071
:10281000CF3FFCE5DF0709F45FC058F4CD3F9CE5EE
:10282000D90709F444C008F43FC080918C0282604B
:102830002DC0C130FDE5DF0709F475C008F45DC0A7
:10284000C230DD4509F072C080E06EC080918B021D
:10285000816003C080918B02806180938B0266C08F
:1028600080918B0211C080918C02826080938C02D7
:102870005DC080918B028062F0CF80918B0280647A
:10288000ECCF80918B0288608460E7CF8160EECFCF
:1028900080918B028E7FE1CF80918B028D7FDDCF87
:1028A00080918B02877FD9CF80918C0218C0809154
:1028B0008C028D7FDBCF80918B028F7ECECF80917B
:1028C0008B028F7DCACF80918B028F7BC6CF809188
:1028D0008B02877F8B7FC1CF80918C028D7F8E7F13
:1028E000C5CF80918B0282FB222720F991E09227AD
:1028F00090FB82F990FB83F9B0CF80918C02982FE6
:10290000909591708E7F892B90FB81F9AFCF0E94BB
:10291000E71980918B0287FB222720F991E092270B
:1029200090FB87F99ACF81E00E94122180918B025F
:1029300090918C020E948B200E94E71980E001C0D8
:1029400081E0DF91CF910895CF93DF9386319C454D
:1029500041F5EB010E94B61F982F8A8120917800E3
:1029600030917900882379F09A7A81E009F480E047
:1029700080935301911102C069E201C065E3C9016E
:102980000E9459210AC080915301811102C069E25D
:1029900001C065E3C9010E945B210E94042080E020
:1029A00001C081E0DF91CF91089511B887E080B92F
:1029B00085B3836085BB86B7846086BF86B7816038
:1029C00086BF86B7806486BF0895EF92FF920F930B
:1029D0001F93CF93DF93182FEB0116BE84EA86BFB7
:1029E0000E9485217C0106B607FC0EC0CF3F8FEF09
:1029F000D807C9F30E9485218E199F098C179D075E
:102A000090F38EEF9FEF28C081B1887F883039F036
:102A100081B1887F803119F08FEF9FEF1DC013B90E
:102A200084E886BF0E9485218C0106B607FC0CC095
:102A3000CF3F8FEFD807C9F30E948521801B910BF0
:102A40008C179D0790F3DDCF81B1887F883111F01D
:102A5000803411F780E090E0DF91CF911F910F91CA
:102A6000FF90EF9008950F931F93CF93DF93EB01A7
:102A700083B984E886BF0E9485218C0106B607FCD5
:102A80000EC0CF3F8FEFD807C9F30E948521801B6E
:102A9000910B8C179D0790F38EEF9FEF0BC021B128
:102AA000287F81E090E0283211F480E090E0919559
:102AB00081959109DF91CF911F910F910895CF9248
:102AC000DF92EF92FF920F931F93CF93DF936B01EF
:102AD0008A017901B9010E94E514E6010C0D1D1D62
:102AE000C017D10759F424E926BFDF91CF911F9178
:102AF0000F91FF90EF90DF90CF90089597FDF3CF67
:102B0000B70189910E943315EBCF909359018093BF
:102B100058010895E0915801F0915901309721F042
:102B20000190F081E02D099480E00895E091580132
:102B3000F0915901309721F00280F381E02D099442
:102B4000089520915601309157012817390771F0E7
:102B50009093570180935601E0915801F0915901EB
:102B6000309721F00680F781E02D09940895209197
:102B70005401309155012817390771F09093550190
:102B800080935401E0915801F0915901309721F060
:102B90000084F185E02D0994089584B7806884BF8E
:102BA00084B7806884BF089508950C94D4150C945C
:102BB000D5150C94D4150C94D4150E94CD150E94F3
:102BC000D9150C94D71581E008950C94E3150E9453
:102BD0007E210E94AE070E94DF210E947D100E948C
:102BE000E70E0C94DB157F928F929F92AF92BF926B
:102BF000CF92DF92EF92FF920F931F93CF93DF93C9
:102C0000CDB7DEB72A970FB6F894DEBF0FBECDBFA3
:102C10000E9412080E94E515811111C08FEF89836F
:102C20008A831B820E9485218160782F9D838C83FB
:102C300049815A816B818D810E94A5164FC04BE559
:102C4000A42E41E0B42E00E010E0702E802F0E94F0
:102C500097076C01F501819091905F018826992674
:102C60008114910431F40F5F1F4F0430110569F78F
:102C7000D5CF8091CF0181FD0E94A00780E0EE2496
:102C8000E394F12C94012E213F21232B09F18E8313
:102C90007F82CE20DF2081E0CD2809F480E0888784
:102CA0000E9485218160782F9A8789874E815F8174
:102CB00068858A850E94A516000F111FF801E55A44
:102CC000FE4F80819181E826F926F182E08206C0DC
:102CD0008F5FEE0CFF1C8C30A9F6C5CF0E941A0F37
:102CE0000E94E2110E948A1590915A018917C9F039
:102CF0000E948A1580935A012A960FB6F894DEBF77
:102D00000FBECDBFDF91CF911F910F91FF90EF903C
:102D1000DF90CF90BF90AF909F908F907F900C945A
:102D20002D052A960FB6F894DEBF0FBECDBFDF91FA
:102D3000CF911F910F91FF90EF90DF90CF90BF90B8
:102D4000AF909F908F907F900895CF93DF93CDB7F2
:102D5000DEB72B970FB6F894DEBF0FBECDBF4F8303
:102D6000588769877A878B87DE01119686E0FD0197
:102D700011928A95E9F785E0FE01379601900D9250
:102D80008A95E1F749815A816B817C818D819E8191
:102D90000E94A31C2B960FB6F894DEBF0FBECDBFCA
:102DA000DF91CF910895FC01808191810E94771F6E
:102DB0000895CF93882309F448C0C82F8CEF8C0F57
:102DC000813AD0F46C2F80917800909179000E9424
:102DD0002321882349F06C2F80917800909179000D
:102DE0000E945B210E9404206C2F809178009091BA
:102DF00079000E9459210CC080E28C0F883058F471
:102E0000C77081E001C0880FCA95EAF70E94B91F18
:102E1000CF910C940420EBE5EC0FE33040F4F0E0AC
:102E2000E05EFE4F808190E0CF910C94A115C85ACE
:102E3000C73158F4EC2FF0E0EE0FFF1FEE50FF4FBC
:102E400080819181CF910C94B715CF9108958823FB
:102E500049F1682F8CEF860F813A38F48091780021
:102E6000909179000E945B210CC080E2860F88302F
:102E700050F4677081E001C0880F6A95EAF70E94FC
:102E8000BF1F0C9404208BE5860F833020F480E074
:102E900090E00C94A115685A673120F480E090E02E
:102EA0000C94B7150895CF93C82F0E94D916C93333
:102EB00049F42FEF8DEE92E0215080409040E1F7F1
:102EC00000C000008C2FCF910C942717882321F08D
:102ED0000E94B91F0C9404200895882321F00E94B9
:102EE000BF1F0C9404200895CF92DF92EF92FF92BF
:102EF0000F931F93CF93DF937C01062FC72FFC0105
:102F0000158112951F70D281D1110E94D61F0E9487
:102F1000AF1F882399F0DD2389F08C2F807F8034C8
:102F200021F080E2800F883048F082E00E944E203D
:102F30000E94AF1F91E0D82ED92601C0D12CCC2EF3
:102F4000C2948FE0C8228C2D90E0FC01EB5BFF4F18
:102F50000C9465258C2F807FCF70882311F0C2954B
:102F6000C07FDD2399F0CC2309F482C180E2800F79
:102F7000883010F0011104C08C2F0E94B91F03C0CB
:102F80008C2F0E94C91F0E94042072C1802F0E94B2
:102F90002717CC2309F491C180E2800F883010F00C
:102FA000011104C08C2F0E94BF1F03C08C2F0E94F0
:102FB000CF1F0E94042081C18C2F807FCF70803270
:102FC00011F0C295C07F002319F00130C9F022C072
:102FD000DD2371F0112341F0113031F40E94E91F1B
:102FE0008C2B0E94F11F69C10E94E91F8C2B1DC010
:102FF000112319F0113009F460C10E94FA1F25C095
:10300000DD2321F0163008F058C10EC0153008F04D
:1030100054C11BC0DD2361F0112331F0F70185811C
:1030200080FF26C18F7085838C2F0E94661745C153
:10303000112359F0093309F02CC1FFEF2DEE82E086
:10304000F15020408040E1F722C18C2F0E946D1783
:1030500034C18C2F86958695837019F0813061F08C
:103060002CC1DD2321F0802F9C2F937002C080E0C3
:1030700090E00E94A11529C1DD2321F0802F9C2F13
:10308000937002C080E090E00E94B7151EC18C2FA3
:10309000837009F045C0D11114C1402F4295469567
:1030A0004770440F440F602F6F70862F90E0A0E0B0
:1030B000B0E0042E04C0880F991FAA1FBB1F0A94FA
:1030C000D2F704FF10C00FE010E020E030E004C0B1
:1030D000000F111F221F331F4A95D2F7009510953C
:1030E0002095309503C000E010E09801C695C69584
:1030F000C370BC01CD01602B712B822B932BC2308E
:1031000049F058F4C13019F00E94F41DDAC00E9451
:10311000E21DD7C00E94061ED4C00E94E01DD1C08F
:10312000DD2319F08C2F817001C08695882309F466
:10313000C8C0402F429546954770440F440F602FFA
:103140006F70862F90E0A0E0B0E0042E04C0880FDE
:10315000991FAA1FBB1F0A94D2F704FF10C00FE0EB
:1031600010E020E030E004C0000F111F221F331FC9
:103170004A95D2F7009510952095309503C000E050
:1031800010E09801C695C695C370BC01CD01602BB7
:10319000712B822B932BC23049F058F4C13019F0B7
:1031A0000E94B91E8EC00E94A71E8BC00E94CB1E1B
:1031B00088C00E941A1E85C0CF70DD2339F08C2F85
:1031C0000E94401E802F0E9466177BC0802F0E94A5
:1031D0006D178C2F0E94611E74C0023F01F128F40C
:1031E000003F41F0013FA1F03FC0033FF9F0043F31
:1031F00039F13AC0DD2341F0153008F05EC08C2F64
:103200008F710E94861E59C0163008F056C0F7CF45
:10321000DD2339F08C2F8F710E94401E4EC0DD23BC
:10322000C9F38C2F8F710E94611E47C0DD2329F0E6
:103230008C2F8F710E942B1E40C00E94261E3DC005
:10324000DD2349F0CF718C2F0E94401E63E08C2F4C
:103250000E94392032C081E00E944E20123068F175
:1032600082E00E944E2029C0DD2331F0112391F22B
:10327000802F0E94D91621C0112399F2093349F4F5
:103280009FEFEDEEF2E09150E040F040E1F700C03A
:103290000000802F0E94271710C04C2F4F70602F06
:1032A000C7010E948F050E94511D0FC04C2F4F7007
:1032B000602FC7010E94920508C088EF8C0D8430F2
:1032C00020F40E948A150E942D05DD20C9F00E947D
:1032D000AB1F80FD15C0F70112820E94A51F0E943E
:1032E000401EC7010E94A1190E94A51FDF91CF9126
:1032F0001F910F91FF90EF90DF90CF900C94611E83
:10330000DF91CF911F910F91FF90EF90DF90CF90C1
:1033100008950F931F93CF93DF93EC016881798118
:103320008A810E94821F8C010E94DD1E0E94CE1D98
:10333000B801CE010E947417DF91CF911F910F91B8
:103340000895CF93DF93EC01988189812B813C8193
:10335000232B31F08F3F31F481E09F3F19F403C0FC
:1033600081E001C080E080FD19C0CE010E944605C9
:1033700081110CC00E94AF1F882381F08A818823AD
:1033800069F082E0DF91CF910C944E20CE010E9433
:103390008919CE01DF91CF910C940F05DF91CF9168
:1033A00008950E94D61F0E94E61F0E94042080E01C
:1033B00090E00E94A11580E090E00C94B7158091F8
:1033C0007800909179000E945D210C94D1190E949F
:1033D000C61F0C94DF19E92FE295EF704E2F50E0D5
:1033E000FA013297EE30F105B0F4EB5AFF4F0C942E
:1033F0006525803F91F018F4883E68F40EC0843F44
:1034000051F40BC0883E48F0813F29F406C093FB7D
:10341000882780F9089580E0089581E008950E944A
:10342000771F0E94EB190895CF93DF9300D000D04F
:103430001F92CDB7DEB70F900F900F900F900F90A7
:10344000DF91CF910895CF93DF9300D000D000D0CB
:10345000CDB7DEB726960FB6F894DEBF0FBECDBF50
:10346000DF91CF9108951F93CF93DF93C0916401B3
:1034700016E080916501C81799F0D0E01C9FF0011B
:103480001D9FF00D1124EA59FE4F40815181628148
:103490007381848195810E94231A2196C770E9CF98
:1034A000DF91CF911F91089540919601509197011E
:1034B000609198017091990180919A0190919B017E
:1034C0000C94231A0F931F93CF93DF9380919B014A
:1034D00082958F7009F05DC080919801882309F46E
:1034E00058C08091640110916501609196017091BE
:1034F0009701C0919901D0919A0191E06F3F09F035
:1035000090E0292F06E0811709F443C0209721F0AD
:103510007F3F21F030E003C031E001C0322F90E066
:1035200030FD34C0089FF001099FF00D1124DF0128
:10353000AA59BE4F11963C911197371327C03C9161
:10354000361324C012963C91129731111FC0139666
:103550004D915C9114974C1B5D0B483C5105B0F4A8
:1035600080919B018F70806180939B01E559FE4F94
:1035700080818F708061808386E991E00E94A1192B
:10358000DF91CF911F910F910C94331A01968770A0
:10359000BACFDF91CF911F910F9108959F92AF9273
:1035A000BF92CF92DF92EF92FF920F931F93CF9330
:1035B000DF93CDB7DEB761970FB6F894DEBF0FBECD
:1035C000CDBF8C0185E0F801DE011D9601900D92C2
:1035D0008A95E1F7F80140815181E280909196014E
:1035E000609197012091990130919A01211531053F
:1035F00031F06F3F31F481E09F3F19F403C081E067
:1036000001C080E0F82FF1709F2E80FD46C1F801C7
:10361000A380B48086E9C82E81E0D82EF09098016E
:10362000F501E21BF30BFF2009F4DFC080919B0141
:10363000E83CF10508F09BC0282F207F09F052C01C
:10364000561313C0491311C0FE2CE1100EC08F7029
:10365000806180939B010E94541AC6010E94A119A7
:1036600080919B01F801858358C1AB2831F05F3F01
:1036700031F481E04F3F19F403C081E001C080E0E4
:1036800080FD03C081E08E2502C080E090E0F82F2D
:10369000F170FF2E80FF1CC08091640120916501B4
:1036A00036E0821709F417C190E0389FF001399F86
:1036B000F00D1124EA59FE4F6181561306C0608156
:1036C000461303C06281E61203C001968770E9CFFA
:1036D000FE2CEE2009F421C180919B018160809332
:1036E0009B015AC0561306C0491304C0E11002C022
:1036F000F8019FC04D875E878D859E850E940F1AB9
:10370000882379F1EE2069F120919B01822F829527
:103710008F7090E0029774F08091960190919701DC
:1037200098878F831986BB86AA862C87CE01079639
:103730000E94A11986E0F801A6E9B1E001900D927E
:103740008A95E1F70E94621A0E94541A0DC056171A
:1037500029F14D875E878D859E850E940F1A811104
:103760002CC0C8010E94A119FF24F394D6C0282FB1
:10377000207F69F77A2DB98AA88A6E2D89890E94DF
:10378000141A86E991E00E94A11986E0F6011192CF
:103790008A95E9F70E94541AF12CBFC04913D9CF7A
:1037A000E110D7CFF8018583C8010E94A11986E0F6
:1037B000F60111928A95E9F7B0C0EE2091F22091BE
:1037C0009B01822F82958F7090E002970CF4B2CF0C
:1037D00080919601909197019A8389831B82BD8283
:1037E000AC822E83CE010196A3CFE83CF10508F010
:1037F00047C0FE2CEE2009F4B4CF561330C0491355
:103800002EC020919B0120FD21C0822F82958F70B8
:10381000482F50E041155105C9F0F80125834F307C
:10382000510541F08F5F982F9295907F822F8F7076
:10383000892B8583C8010E94A11986E0F801A6E9B9
:10384000B1E001900D928A95E1F742C086E0F8015F
:10385000A6E9B1E001900D928A95E1F75EC04D872F
:103860005E878D859E850E940F1A811163CF80919E
:103870009B01816080939B01C8010E94A1194DC0EA
:103880007A2DB98AA88A6E2D89890E94141A86E039
:10389000F60111928A95E9F71BC0EE2009F461CF79
:1038A0004D875E878D859E850E940F1AF82E88238E
:1038B00009F457CF86E0F801A6E9B1E001900D9236
:1038C0008A95E1F786E991E00E94D3160E94621A78
:1038D0000E94541A22C04D875E878D859E850E9466
:1038E000771F292F22952F70223028F49F7039F0EE
:1038F000811105C00BC0243028F49F7049F4805E0C
:10390000883020F0C8010E94A1199F2CF92C05C015
:10391000F8019581907F99F7F9CF8F2D61960FB6B9
:10392000F894DEBF0FBECDBFDF91CF911F910F91F5
:10393000FF90EF90DF90CF90BF90AF909F90089551
:1039400088EC90E008951F93CF93DF93CDB7DEB757
:103950002C970FB6F894DEBF0FBECDBF4F835887AC
:1039600069877A878B879C87CE0107960E94CE1A3B
:103970008823D1F09F8188852A853B85232B31F0D0
:103980008F3F31F481E09F3F19F403C081E001C013
:1039900080E080FD47C04F81588569857A858B8599
:1039A0009C850E94231A3EC086E0FE013796DE0108
:1039B000119601900D928A95E1F7FF81E8856A855D
:1039C0007B856115710531F0EF3F31F481E0FF3FF8
:1039D00019F403C081E001C080E080FD23C0209184
:1039E000650130E0C9010196877099274091640113
:1039F00050E084179507F1F1F983EA837D836C83A6
:103A000096E0929FD001939FB00D1124AA59BE4F0A
:103A1000FE01319601900D929A95E1F78093650130
:103A20000E94331A16E08091640190916501891714
:103A300071F1189FC00111248A599E4F0E94CE1A1D
:103A4000882329F1E09164011E9FF0011124EA59B5
:103A5000FE4F4081518162817381848195810E94F2
:103A6000231A8091640190E00196877099278093D2
:103A70006401D9CF0E94E719109265011092640188
:103A8000E6E9F1E086E0DF011D928A95E9F72C96E0
:103A90000FB6F894DEBF0FBECDBFDF91CF911F915F
:103AA0000895EF92FF920F931F93CF93DF938C01B2
:103AB000892B09F46CC0F12CEE24E394E8012196E3
:103AC000F8018491843740F4843008F051C081308B
:103AD00081F0823019F15BC0853709F444C0A8F148
:103AE0009CE7980F903708F052C08F770E942717F5
:103AF00041C00E5F1F4FFE01849190E2980F9830F5
:103B000050F48770FE2D01C0FF0F8A95EAF78F2FC2
:103B10000E94D91F14C00E94D9162DC00E5F1F4FDE
:103B2000FE01849190E2980F983060F48770FE2D2A
:103B300001C0FF0F8A95EAF78F2F0E94DF1F0E94B6
:103B4000042019C00E94271716C00E5F1F4FFE01E8
:103B5000C491CC2381F087EB9BE00197F1F700C083
:103B60000000C150F6CF0E5F1F4FFE01F49003C05E
:103B70000E94D9168E018F2D882309F49FCFE7EB81
:103B8000FBE03197F1F700C000008150F5CFDF91E5
:103B9000CF911F910F91FF90EF9008950895089590
:103BA0000C94CF1D0C94D01D0E94D21D6093BE01B9
:103BB0007093BF018093C0019093C1010C94D119FF
:103BC0000C94D41D0F931F930091BE011091BF015F
:103BD0002091C0013091C101602B712B822B932B5E
:103BE0001F910F910C94D41D0F931F930091BE0150
:103BF0001091BF012091C0013091C1016023712358
:103C0000822393231F910F910C94D41D0F931F9324
:103C10000091BE011091BF012091C0013091C101FE
:103C200060277127822793271F910F910C94D41D31
:103C30000C94CF1D0E94181E6093BA017093BB01B3
:103C40008093BC019093BD010C94D11960E070E0A9
:103C5000CB010C941A1E0F931F9341E050E060E0DB
:103C600070E08A019B0104C0000F111F221F331F47
:103C70008A95D2F7C901B8011F910F910C941A1EB1
:103C80000F931F9341E050E060E070E004C0440FE8
:103C9000551F661F771F8A95D2F78091BA019091C0
:103CA000BB01A091BC01B091BD018A019B01082B11
:103CB000192B2A2B3B2BC901B8011F910F910C9492
:103CC0001A1E0F931F9341E050E060E070E004C0C3
:103CD000440F551F661F771F8A95D2F74095509560
:103CE000609570958091BA019091BB01A091BC0143
:103CF000B091BD018A019B01082319232A233B238C
:103D0000C901B8011F910F910C941A1E0F931F93B4
:103D100041E050E060E070E004C0440F551F661FB2
:103D2000771F8A95D2F78091BA019091BB01A0913B
:103D3000BC01B091BD018A019B01082719272A27E0
:103D40003B27C901B8011F910F910C941A1E0F93C4
:103D50001F930091BA011091BB012091BC013091D9
:103D6000BD01602B712B822B932B1F910F910C9413
:103D70001A1E0F931F930091BA011091BB0120915D
:103D8000BC013091BD0160237123822393231F91D5
:103D90000F910C941A1E0F931F930091BA0110916A
:103DA000BB012091BC013091BD01602771278227A2
:103DB00093271F910F910C941A1E08952CE0929F47
:103DC000800D1124E82FE695E695E695877051E081
:103DD00001C0550F8A95EAF785E0E89FF0011124AC
:103DE000E456FE4F20E030E070E04081CB01022E2F
:103DF00002C0969587950A94E2F781708195842791
:103E00008523842781932F5F3F4F2530310569F744
:103E100008952CE0929F800D1124682F6695669579
:103E20006695982F977085E0689FB001112440E057
:103E300050E080E0FB01E40FF51FE456FE4F2081C7
:103E400030E0092E02C0369527950A94E2F72170DA
:103E50003327042E01C0220F0A94EAF7822B4F5F0A
:103E60005F4F4530510531F70895BF92CF92DF92F1
:103E7000EF92FF920F931F93CF93DF938C01C0902B
:103E8000BA01D090BB01E090BC01F090BD018091DF
:103E9000BE019091BF01A091C001B091C101C82A9B
:103EA000D92AEA2AFB2ACFE1D0E0D701C6010C2E9D
:103EB00004C0B695A795979587950A94D2F780FD8B
:103EC00004C0219790F7B12C07C0BC2EB8018C2FED
:103ED0000E94AE050197A9F38B2DDF91CF911F9121
:103EE0000F91FF90EF90DF90CF90BF900895CF9308
:103EF000DF93EC010E94351FBE010E94AE05DF91E9
:103F0000CF9108951F93CF93DF93EB0190916301BD
:103F1000992321F0CB010E94771F13C0882349F019
:103F2000CB010E94351F182F682FCE010E94DE1E84
:103F300004C0CB010E94091F182FBE01812F0E94CF
:103F4000AE05DF91CF911F9108958091C2018595B3
:103F50008595859508958091C20187700895909107
:103F6000C201977081E009F480E008958091CE014C
:103F700008959091CE01892B8093CE01089580956C
:103F80009091CE0189238093CE0108951092CE01A5
:103F900008959091CD01892B8093CD01089580954E
:103FA0009091CD0189238093CD0108951092CD0188
:103FB00008959091CC01892B8093CC010895809530
:103FC0009091CC0189238093CC0108951092CC016B
:103FD00008958091C301089508950C94EC1F0C94EA
:103FE000ED1F9091C301981721F08093C3010C94A9
:103FF000EF1F08958091C301882329F01092C30117
:1040000080E00C94EF1F0895E0917800F091790022
:104010008091CE018083E0917800F09179009081C9
:104020008091CD01892B8083E0917800F091790017
:1040300090818091CC01892B80838091C30188235A
:1040400081F0E0917800F09179009081892B808354
:1040500080917800909179000E94172181110E942F
:10406000FA1F80917800909179000C9496150C9429
:10407000EC1F98E0899F90011124262B2093C20108
:104080000E94401E8091C2018595859585950C946E
:1040900037201092C20180E00C9437202091C20199
:1040A000809582238093C201982F977079F430E035
:1040B000482F082E000C550B2417350739F085952D
:1040C000859585950E94611E0C944920089580E095
:1040D00090E00E94132621E08C3E9E4F09F020E0E4
:1040E000822F089582E090E00C94052683E090E012
:1040F0000C940526CF9384E090E00E940526C82FFB
:1041000081E290E00E9405262C2F30E0A901582B77
:10411000CA01CF910895CF93C92F682F84E090E012
:104120000E9419266C2F81E290E0CF910C94192601
:1041300086E090E00C940526682F86E090E00C94D1
:104140001926AB01BC018FE090E00C942A26AB014C
:10415000BC0183E190E00C942A2660E070E0CB0182
:104160000C94A72060E070E0CB010E94A1200C9489
:10417000AD206CEE7EEF80E090E00E94362660E09D
:1041800082E090E00E94192660E083E090E00E94C7
:1041900019261092BE011092BF011092C001109218
:1041A000C10160E084E090E00E94192660E081E2B5
:1041B00090E00E94192660E085E090E00E941926B8
:1041C00060E086E090E00E9419266FEF87E090E0C3
:1041D0000E94192640E050E0BA0188E090E00E9479
:1041E0002A2660E08DE090E00E94192640E050E031
:1041F000BA0188E190E00E942A2660E087E190E021
:104200000E94192640E050E0BA018CE190E00E9443
:104210002A2660E080E290E00E9419260C94B220E9
:104220000C94B920682F8EE090E00C941926FC01C4
:10423000329697E080E0915029F021912223D9F322
:104240008F5FF9CF0895662349F0FC0132960896F6
:104250002191621729F0E817F907D1F780E0089556
:1042600081E008959C01FC0132969FEF80E041912E
:10427000461789F09F3F19F4411101C0982F8F5FB5
:104280008630A9F79F3F39F0F901E90FF11D97FD3D
:10429000FA956283089508959C012A5F3F4FFC01BF
:1042A0004281461301C01282019682179307B9F723
:1042B00008950C9432210C944C21029626E0FC01C6
:1042C00011922A95E9F7089508950C9464210C94AD
:1042D0006421CF930E9467210E9412080E946521E9
:1042E000C0E08C2F0E949707892B29F4CF5FC43040
:1042F000C1F780E001C081E0CF9108958BE083BFDA
:104300008BEB8CBF82E089BF08952FB7F894809122
:10431000870290918802A0918902B0918A022FBFF2
:1043200008959C014FB7F89480918702909188027C
:10433000A0918902B0918A024FBF821B930B08950E
:1043400078941F920F920FB60F9211248F939F9320
:10435000AF93BF938091870290918802A0918902C8
:10436000B0918A020196A11DB11D8093870290939E
:104370008802A0938902B0938A02BF91AF919F9166
:104380008F910F900FBE0F901F90189560E081E005
:1043900090E00E943C2687E090EBDC018093DD02F8
:1043A0009093DE02A093DF02B093E0029CE088E1EC
:1043B0000FB6F894A89581BD0FBE91BDFFCF0E94A6
:1043C0006720811102C00E9410210E9472208093F8
:1043D000CF010E947A2090938C0280938B020E94DE
:1043E0007620682F70E080E090E00E94E01D6091F0
:1043F000BA017091BB018091BC019091BD010C94F8
:10440000181E0F931F93CF93DF930E9485218C0179
:104410000E94DD150E94F8220E9485150E94D62474
:104420008B9A80E0815041F0A895E7EBFBE0319753
:10443000F1F700C00000F6CF8B987894FFEB24EDE5
:1044400031E0F15020403040E1F700C000000E9410
:10445000E715C0E0DCE08091B402882331F01092CF
:10446000B4020E9485218C0107C0C8010E949121DD
:10447000069788F4C1110FC00E94DF238091BA0211
:10448000882329F08091980284FD0E94F3150E94F0
:104490009F22C0E0E0CF0E946921811102C0C1E0EB
:1044A000DACFF89491B3939A892F8C6081BB82B351
:1044B0008D2782BB8FE5EAEEF0E08150E040F040CE
:1044C000E1F700C0000082B38D2782BB91BB9398B7
:1044D0007894E5CF8091610208950895CF93DF939A
:1044E00000D01F92CDB7DEB79091D201981307C0CC
:1044F0002091D0013091D1012617370791F0809398
:10450000D2017093D1016093D00189837B836A8348
:104510008091D10284FF05C063E0CE0101960E9424
:10452000DB230F900F900F90DF91CF910895BC0186
:1045300084E00C946E22BC0183E00C946E22CF9335
:10454000DF93CAE0D0E08091980284FF18C0809188
:10455000DE019091DF019817E1F028E0829FC00111
:10456000112468E080529E4F0E94D7238091DE0183
:1045700090E001968F7099278093DE010AC00E9417
:10458000DF2387EB9BE00197F1F700C00000219744
:10459000D1F6DF91CF910895CF93DF93EC01A091F5
:1045A000DF01B0E0CD0101968F7099272091DE01E7
:1045B000281779F093E0AA0FBB1F9A95E1F7A05254
:1045C000BE4F98E0FE0101900D929A95E1F780931D
:1045D000DF010E94DF230E949F2288E0FE01A6EDFA
:1045E000B1E001900D928A95E1F7DF91CF910895A6
:1045F0008AE790E00895FC01808180768032A1F501
:104600008181813061F484819581892B69F586ED02
:1046100091E09093B6028093B50288E008958230CD
:1046200041F480E692E09093B6028093B50281E077
:1046300008958A3021F483818093600215C0893007
:1046400099F4828193818115924081F484819581CE
:10465000892B61F481E08093D501868197819093C5
:10466000D4018093D30102C080E008958FEF0895B4
:104670002091D3013091D401232B71F02091D501E9
:10468000213051F4FC018081809361021092D401A9
:104690001092D30181E008958FEF08950895FC01F1
:1046A00093819330D9F068F4913081F0923009F021
:1046B0005AC080E495E09093B6028093B5028BE3F4
:1046C0000895913251F19232C1F14DC08BE795E0DE
:1046D0009093B6028093B50282E108958281813081
:1046E00059F038F0823059F08330E9F58DE895E0E3
:1046F0000EC08BEA95E00BC08FE995E002C083E91C
:1047000095E09093B6028093B5028AE00895909365
:10471000B6028093B50284E008958281882329F04F
:10472000813009F58BE695E002C082E595E0909333
:10473000B6028093B50289E008958481958100973F
:1047400051F0019781F48FEA95E09093B60280933F
:10475000B50282E3089581EE95E09093B6028093CE
:10476000B50280E4089580E008951F93CF93DF930E
:10477000162FEA01288124FF05C0398128E8232764
:10478000298302C02AE52883212FFC01CE0102964D
:10479000DC0131913D9321501216DCF3612F0E9410
:1047A0006C031C5F1883DF91CF911F91089548E936
:1047B00052E00C94B52341ED52E00C94B523CF9315
:1047C000DF936091B702635067FD93C08091B3029D
:1047D000CCE0D0E0C81BD109C554DD4F8091B202B6
:1047E000803120F4CE010E944E2381C08D3209F029
:1047F0006EC0683009F07BC083EC80938D028AE53F
:10480000809385001092B1028881807621F0CE01DC
:104810000E94FB2249C09A811092960289818111DF
:1048200006C01092970226E932E082E038C0853057
:1048300019F49093B80230C08630A1F48B81813096
:1048400041F0823031F0833021F0813211F0823238
:1048500021F4CE010E944F2301C080E090E49093A8
:10486000B10222C0883089F0893019F49093BA02DD
:1048700013C08A3069F08B3079F48BE4809399020D
:104880008093D2028093A50207C02AEB32E002C0D7
:1048900026E932E081E003C026E932E080E030938F
:1048A000B6022093B50209C08F3F39F4988197FD75
:1048B0008E8190E89093B10207C09F81911104C04E
:1048C0009E81981708F4892F8093840010C08091EE
:1048D000B10287FF0CC0CE010E9438238F3F21F424
:1048E0008EE18093850003C08111109284001092A4
:1048F000B7028091850084FF4CC0809184008F3F77
:1049000009F447C0C82F893008F0C8E08C1B809399
:10491000840090918D0288E8892780938D02CC23B2
:1049200059F18091B5029091B6022091B10226FF13
:1049300012C0ADE8B2E02C2FAC014D585240FA0144
:10494000EA0FFB1FE4911196EC93119721501196F9
:104950002111F5CF08C0EEE8F2E0DC012C2F3D91EB
:1049600031932150E1F701962FEF2C0F820F911D0B
:104970009093B6028093B5026C2F8EE892E00E946D
:104980006C03CC5FCC3019F08FEF80938400C09320
:10499000850084E190B39C7031F48150D9F7109276
:1049A000B8021092B002DF91CF910895CF93DF93B8
:1049B00085B7886085BF8BB780688BBFC8E9D2E0B8
:1049C0008BE48983A1EDB2E011968C931197E4EA10
:1049D000F2E081838AE588838C938083DF91CF9195
:1049E0000895DB018F939F930E948925BF91AF911A
:1049F000A29F800D911DA39F900DB29F900D112439
:104A00000895991B79E004C0991F961708F0961B2A
:104A1000881F7A95C9F78095089587FB082E06268A
:104A200087FD819567FD61950E9401250EF49195A2
:104A300007FC81950895AA1BBB1B51E107C0AA1F63
:104A4000BB1FA617B70710F0A61BB70B881F991F2F
:104A50005A95A9F780959095BC01CD01089597FBD3
:104A6000072E16F4009407D077FD09D00E941B256D
:104A700007FC05D03EF4909581959F4F0895709561
:104A800061957F4F0895A1E21A2EAA1BBB1BFD0161
:104A90000DC0AA1FBB1FEE1FFF1FA217B307E4071D
:104AA000F50720F0A21BB30BE40BF50B661F771F75
:104AB000881F991F1A9469F7609570958095909555
:104AC0009B01AC01BD01CF010895EE0FFF1F0590C2
:104AD000F491E02D09940E947325332312F48A1B6C
:104AE0009B0B0C948425A29FB001B39FC001A39F90
:104AF000700D811D1124911DB29F700D811D112417
:104B0000911D08950E947325B7FF0895821B930B92
:104B100008950E947325A59F900DB49F900DA49FAA
:104B2000800D911D11240895B7FF0C9489250E94D2
:104B30008925821B930B08958F929F92AF92BF920B
:104B4000CF92DF92EF92FF92CF93DF93EC016881D7
:104B500079818A819B81611571058105910521F417
:104B600064E279ED8BE597E02DE133EF41E050E031
:104B70000E94592649015A019B01AC01A7EAB1E400
:104B80000E9489256B017C01ACEEB4EFA501940174
:104B90000E949725DC01CB018C0D9D1DAE1DBF1D14
:104BA000B7FF03C00197A109B04888839983AA83FE
:104BB000BB839F77DF91CF91FF90EF90DF90CF90F5
:104BC000BF90AF909F908F9008950E949C2508956C
:104BD00080E690E00E949C250895A0E0B0E08093DC
:104BE000600090936100A0936200B0936300089509
:104BF000FC014150504030F001900616D1F731973A
:104C0000CF010895882799270895E199FECF9FBB8A
:104C10008EBBE09A99278DB30895A6E1B0E044E0F9
:104C200050E00C944B26A8E1B0E042E050E00C9438
:104C30004B26262FE199FECF9FBB8EBBE09A0197B2
:104C40000DB2021631F02DBB0FB6F894E29AE19A3C
:104C50000FBE08950396272F0E941A260E94192638
:104C6000252F0E941A26242F0C941A260196272FEE
:104C70000E941A260C941926262FE199FECF9FBB7D
:104C80008EBB2DBB0FB6F894E29AE19A0FBE019647
:104C90000895DC01CB01FC01E199FECF06C0FFBB0A
:104CA000EEBBE09A31960DB20D9241505040B8F7EC
:104CB0000895052E97FB1EF400940E94702657FD60
:104CC00007D00E94432507FC03D04EF40C947026B5
:104CD00050954095309521953F4F4F4F5F4F089528
:104CE00090958095709561957F4F8F4F9F4F089558
:044CF000F894FFCF66
:104CF40001000000010102000500050501191A1B4D
:104D04001C1D1E1F20212206C4016A22CC226D22F2
:104D14009B229722FF5AE200E900EA00B500B600A0
:104D2400B700CD008301CC008A01920194012102D5
:104D3400230224022502260227022A02B300B40019
:104D44006F0070008182833435363794959697933B
:104D540092919060616364000102020202060606F9
:104D64000909090909090F0F0F0F0F0F1515151858
:104D7400191919191919191919192324252525255A
:104D84002525E200E900EA00B500B600B700CD0031
:104D94008301CC008A01920194012102230224029E
:104DA4002502260227022A02B300B4006F00700015
:044DB4008182830075
:00000001FF
