:100000000C9419020C9438020C9438020C943802A7
:100010000C9438020C9438020C9438020C94380278
:100020000C9438020C9438020C949C200C9472218D
:100030000C94F0180C9438020C9438020C9438028A
:100040000C9438020C9438020C9438020C94380248
:100050000C9438020C943D190C9438020C9438021C
:100060000C9438020C9438020C9438020C94380228
:100070000C9438020C9438020C9438020C94380218
:100080000C9438020C9438020C9438020C94380208
:100090000C9438020C943802600E600E920E920E90
:1000A000DF0EFD0E1E101E10080F9D0FAE0FAE0FBF
:1000B0000E101E101E101710BE10BE10D010D01043
:1000C000C710D010D010D010BE10BE10CC10D01061
:1000D000D010CC10E3210A2202230A220223562246
:1000E00079220223D022DF222B0014001A000800FC
:1000F000150017001C0018000C00120013002A0045
:10010000290004001600070009000A000B000D007A
:100110000E000F0033002800E1001D001B00060048
:100120001900050011001000360037003800346255
:10013000E0000358E300E20001582C422C002C00A0
:100140005000510052004F0035003A003B003C0087
:100150003D003E00010024002500260001000100B2
:1001600001003F0040004100420043002E022100F8
:10017000220023002D00010001004400450046003C
:100180004700480025021E001F00200038002E00F6
:1001900001000100010001000153010001002700DE
:1001A000270037003600290035021E021F022002F8
:1001B00021022202230224022502260227024C00E9
:1001C000010049004A004B000100010050005100AD
:1001D00052004F002D02010001004C004D004E0066
:1001E000010001002F0230022F00300031003102E7
:1001F00001000100010001000100010001000253A3
:100200004A004E004B004D0001000100F000F900D3
:100210000100010001000100010001000100045380
:100220000100F200F100F3000100010001000100F3
:100230000100010001000100010001000100FA00BD
:1002400001000100010001000100010001000100A6
:100250000100035301000100F400F5000100F60065
:10026000AB00AA00A900AE002B00005C1A00080039
:10027000150017001C003A003B003C003D000453F1
:1002800029000400C05CC15C09000A000B001E00CC
:100290001F00200021000100E1001D00C35CC45CC0
:1002A0001900050011001000360037003800E10089
:1002B000E000E200E300E6002C002C002C002C0003
:1002C0005000510052004F000E037400650065009D
:1002D0006E007300790000000A03720077006B0063
:1002E000620000000403090409023B00020100A0AF
:1002F000320904000001030101000921110100017C
:100300002240000705810308000A090401000103D7
:1003100000000009211101000122BC000705820331
:1003200020000A1201100100000008EDFE606001CB
:10033000000102000105010902A10185020901A1D4
:10034000000509190129051500250195057501818B
:1003500002950175038101050109300931158125D7
:100360007F95027508810609381581257F950175ED
:10037000088106050C0A38021581257F950175084C
:100380008106C0C005010980A101850319012AB7B2
:1003900000150126B700950175108100C0050C09F4
:1003A00001A101850419012AA002150126A00295C8
:1003B0000175108100C005010906A1018505050729
:1003C00019E029E715002501950875018102050747
:1003D000190029EF1500250195F075018102050826
:1003E0001901290595057501910295017503910182
:1003F000C005010906A101050719E029E715002537
:10040000019508750181029501750881010507199B
:100410000029FF150026FF009506750881000508D4
:100420001901290595057501910295017503910141
:10043000C00011241FBECFEFD0E2DEBFCDBF12E05F
:10044000A0E0B1E0E6E5F7E400E00BBF02C00790F2
:100450000D92A83AB107D9F724E0A8EAB2E001C0AA
:100460001D92A334B207E1F70E94DD1D0C94A9236D
:100470000C940000FC0190E3A0E0B1E001900D922B
:100480009A95E1F78091A8029091A902A091AA0201
:10049000B091AB028F6F9F6FAF6F8093A802909364
:1004A000A902A093AA02B093AB02089520E3829F11
:1004B000C00111248F5C9E4F0C943A02EDEAF2E0E9
:1004C00087E090E050E140E231E020E810821382C2
:1004D0005183548312821582168211864783428784
:1004E00010861386148617861586108A3687318BF8
:1004F000128A158A238B268B148A178A019778967D
:10050000009721F781E391E00C943A022F923F92F9
:100510004F925F926F927F928F929F92AF92BF9213
:10052000CF92DF92EF92FF920F931F93CF93DF93BF
:10053000CDB7DEB7A1970FB6F894DEBF0FBECDBF23
:100540000091A8021091A9022091AA023091AB0259
:1005500041E050E060E070E0082E04C0440F551FF9
:10056000661F771F0A94D2F7409550956095709555
:1005700040235123622373234093A8025093A9027E
:100580006093AA027093AB022CE0829FD0011124E9
:10059000A050BF4F2C912095422F477050E0BA01D8
:1005A0006F5F7F4F7A836983207722952F7030E0C9
:1005B000A9014F5F5F4F5C834B8311962C9111977C
:1005C0002095422F477050E0BA016F5F7F4F7E83C6
:1005D0006D83207722952F7030E0A9014F5F5F4F28
:1005E00058874F8312962C9112972095422F47706F
:1005F00050E0BA016F5F7F4F7A8769872077229535
:100600002F7030E0A9014F5F5F4F5C874B871396D7
:100610002C9113972095422F477050E0BA016F5FDD
:100620007F4F7E876D87207722952F7030E0A9015C
:100630004F5F5F4F588B4F8714962C9114972095DE
:10064000422F477050E0BA016F5F7F4F7A8B698B02
:10065000207722952F7030E0A9014F5F5F4F5C8BB0
:100660004B8B15962C9115972095422F477050E093
:10067000BA016F5F7F4F7E8B6D8B207722952F7035
:1006800030E0A9014F5F5F4F588F4F8B16962C912A
:1006900016972095422F477050E0BA016F5F7F4F49
:1006A0007A8F698F207722952F7030E0A9014F5FF4
:1006B0005F4F5C8F4B8F17969C9117979095292FC2
:1006C000277030E0A9014F5F5F4F5E8F4D8F9077AD
:1006D000292E22949FE02922312C5FEF251A350A1A
:1006E00018969C9118979095292F2770422E512C7F
:1006F0006FEF461A560A9077692E62942FE06222B5
:10070000712C7FEF671A770A19969C91199790952B
:100710009F8F9770C92ED12C2FEFC21AD20A3F8D0E
:10072000307732953F70432F50E04F5F5F4F59A3B2
:1007300048A31A960C911A970095902F9770A92E9E
:10074000B12C6FEFA61AB60A007702950F7010E071
:100750000F5F1F4F1B969C919095292F2770822E1B
:10076000912C7FEF871A970A9077E92EE2943FE069
:10077000E322F12C9FEFE91AF90A26E0829FF001AB
:100780001124E355FD4F20E030E02F5F3F4FC901BA
:100790006B817C810E943623482FC90169817A814F
:1007A0000E943623882319F08181877F02C08181CE
:1007B000886081838481442311F0877F01C0886031
:1007C0008483C9016F8178850E943623482FC9012F
:1007D0006D817E810E943623882319F082818D7F6E
:1007E00002C08281826082838581442311F08D7FE3
:1007F00001C082608583C9016B857C850E94362398
:10080000482FC90169857A850E943623882319F00B
:1008100081818D7F02C081818260818384814423B4
:1008200011F08D7F01C082608483C9016F85788952
:100830000E943623482FC9016D857E850E9436238C
:10084000882319F081818E7F02C08181816081833C
:100850008481442311F08E7F01C081608483C901AB
:100860006B897C890E943623482FC90169897A895E
:100870000E943623882319F080818F7702C08081FF
:10088000806880838381442311F08F7701C0806862
:100890008383C9016F89788D0E943623482FC9014F
:1008A0006D897E890E943623882319F080818F7B91
:1008B00002C08081806480838381442311F08F7B18
:1008C00001C080648383C9016B8D7C8D0E943623B7
:1008D000482FC901698D7A8D0E943623882319F02B
:1008E00080818F7D02C080818062808383814423E8
:1008F00011F08F7D01C080628383C901B1010E9424
:100900003623482FC9016D8D7E8D0E9436238823A2
:1009100019F080818F7E02C0808180618083838115
:10092000442311F08F7E01C080618383C901B3012C
:100930000E943623482FC901B2010E943623882322
:1009400019F08081877F02C08081886080838381E5
:10095000442311F0877F01C088608383C90168A1A7
:1009600079A10E943623482FC901B6010E9436237F
:10097000882319F080818B7F02C08081846080830E
:100980008381442311F08B7F01C084608383C9017C
:10099000B8010E943623482FC901B5010E943623B1
:1009A000882319F080818D7F02C0808182608083DE
:1009B0008381442311F08D7F01C082608383C9014C
:1009C000B7010E943623482FC901B4010E94362383
:1009D000882319F080818E7F02C0808181608083AE
:1009E0008381442311F08E7F01C0816083837896D8
:1009F0002730310509F0C9CEA1960FB6F894DEBFB5
:100A00000FBECDBFDF91CF911F910F91FF90EF905F
:100A1000DF90CF90BF90AF909F908F907F906F901E
:100A20005F904F903F902F900895CF93DF93D82FF2
:100A30008091AC02C82FC17080FD15C0869583706F
:100A40004091A8025091A9026091AA027091AB0254
:100A5000082E04C076956795579547950A94D2F766
:100A600040FD0E948602AFB7F89481B380B3E09155
:100A7000AC02F0E0CF01880F991FE80FF91FE35592
:100A8000FD4FB08128B157B131815474832F8B7BD6
:100A9000582B8EB14DB162814C7F962F9370492BAC
:100AA000DD2389F1EB2FC111E095732F7B70247F3B
:100AB000CC2321F0932F90959B7001C0972F292B69
:100AC000962F9270792B7B2B8D7FCC2319F0962F4C
:100AD00090959270892B711101C05F74922F9F7451
:100AE000232FC11101C02095207B292B711101C03A
:100AF0004E7F982F9E7F6170C11102C081E06827F0
:100B0000862F892B06C0247454748C7F4C7FB0E0F0
:100B1000E0E0E1BB28B98EB9B0BB57B94DB9AFBF62
:100B20008091AC028F5F883318F48093AC0202C0CE
:100B30001092AC02DF91CF910895CF93C091300114
:100B4000C0FF04C081E0CF910C941505C1FF06C021
:100B500080E00E941505CD7FC0933001CF910895AC
:100B60000C945E020C949D05CF92DF92EF92FF925F
:100B70006B017C0162FD08C0DC01CB01B695A79535
:100B800097958795817001C082E0C3FC83E0C4FC27
:100B900084E00E945602C701B601FF90EF90DF90FB
:100BA000CF90089581E0089581E008950C94D405D4
:100BB00008950C94D8051F93CF93DF9300D000D0F5
:100BC0001F92CDB7DEB749835A836B8330916B0395
:100BD00089819A81311114C0662359F0222349F08A
:100BE0000E94FA15182F682F89819A810E94A315F7
:100BF00003C00E94CE15182F69817A81812F04C00D
:100C00000E94FA1569817A810F900F900F900F90D2
:100C10000F90DF91CF911F910C948D06FC01262F30
:100C2000408151816281738184810C94DB05CF9373
:100C3000DF93EC0160E00E940E06BE01DF91CF91D0
:100C40000C94D9050E942C17811102C00E94D31761
:100C50000C94B0050C94B20508950E94AC100E944B
:100C60002C062FEF84E39CE0215080409040E1F778
:100C700000C000000C9463190F931F93CF93DF9370
:100C8000EC0161E00E940E068C01BE010E94D605B7
:100C9000882349F1BE01C8010E945E0A882319F128
:100CA000BE01C8010E94B00A8823E9F0BE01C80154
:100CB0000E94DB0B8823B9F08A81882369F0011533
:100CC0008CE5180731F00F3D1C4531F40E94D31715
:100CD0000AC00E942D0607C0CE01DF91CF911F915F
:100CE0000F910C94D20580E0DF91CF911F910F916D
:100CF000089508950C94790681E008950C947C067B
:100D0000CF93C82F0E947A068C2F0E947E06CF9127
:100D1000089580E090E00895089520E3829FC00147
:100D20001124FC012CE0729FE00DF11D1124E60F4F
:100D3000F11DEE0FFF1FE851FF4F8591949108952B
:100D4000880F991FFC01E853FD4F859194910895F8
:100D5000CF93DF930E948D060E94C007EC0181159E
:100D6000904508F041C0C11580E4D80708F0D1C013
:100D7000C83ED10510F5C03ED10508F0FDC0C83A07
:100D8000D10578F4C53AD10508F0A2C0C130D1052B
:100D900009F4F2C008F4EEC0C430D10508F0ECC08C
:100DA000E9C0CF3BD10508F49BC0C03CD10508F495
:100DB000E1C0CE01805C91099EC0C11590E2D907C7
:100DC00058F4C11521E0D20708F0D6C0C03FD105C4
:100DD00008F4D0C0D065D0C0C11580E3D80708F0B2
:100DE0008EC0CE019F7087C0C11595E5D90708F068
:100DF00043C0C11524E5D20708F0A2C0C11582E5A1
:100E0000D80708F5C11591E5D90708F085C0CE01CE
:100E100074E0969587957A95E1F783709C2F93708F
:100E200021E030E002C0220F331F9A95E2F73C68C0
:100E3000382BCF70C695C69580E2C89FE00111247B
:100E4000C22BD32B99C09E01237033278C2F8695FC
:100E50008695C115D34508F064C0C1E0D0E002C05A
:100E6000CC0FDD1F2A95E2F720E2829FC0011124FA
:100E7000C82BD92BDC6880C0C11529E5D207A0F4A6
:100E8000C11588E5D80708F060C0C11596E5D907F7
:100E900008F070C08C2F0E9454088F71C82FD0E0CA
:100EA000DC2FCC27D06268C0C1152AE5D20708F430
:100EB00051C0CE0190568115904208F05BC08D2F35
:100EC0008F710E945408DD27D0628F71D82B54C0D7
:100ED000C55AD0E0CC59DD4FC881D0E0D0644CC0B9
:100EE000C85AD0E0CC0FDD1FCA5CDD4F0990D88115
:100EF000C02DD46441C00E94A006EC013DC0CE01CB
:100F00009927D3FF03C0EC01D86C36C0EC01D06C3C
:100F100033C0DF70D06A30C0DC2FCC27C16FD06AFD
:100F20002BC0C1E0D0E002C0CC0FDD1F2A95E2F754
:100F300020E2829FC0011124C82BD92BDA681CC083
:100F4000DC2FCC27C46FD06A17C0DC2FCC27C06F32
:100F5000D06A12C08C2F8F700E94540894E0D695EE
:100F6000C7959A95E1F7CF70D0E0DC2FCC27D069F8
:100F7000C82B02C0C0E0D0E0CE01DF91CF91089530
:100F80008238910569F1B0F48133910509F46DC09F
:100F900048F48932910509F463C08A32910509F455
:100FA00069C008958533910509F455C089339105C9
:100FB000B9F00895833E910569F138F4803E9105BA
:100FC000B1F0823E910509F10895863E9105A9F19F
:100FD000873E9105B9F1843E910509F064C023C0B4
:100FE0002091340420FD4FC021FD4DC00895809113
:100FF000340480FD44C08091350480FF44C080915A
:10100000340484FD42C083EE4DC08091340482FFDD
:1010100038C0F5CF8091340482FD33C0809135040F
:1010200080FD31C0ECCF8091350481FF32C08091CA
:10103000340484FD2AC087EE35C08091340483FFD8
:1010400026C0F5CF8091340483FD21C08091350402
:1010500081FD1FC0ECCF8091340485FD1CC01DC0F4
:101060008091340485FD19C016C08091340486FD3A
:1010700016C017C08091340486FD13C010C089E3E8
:1010800011C082EE0FC080EE0DC080E00BC086EE76
:1010900009C084EE07C089E205C085E303C08AE287
:1010A00001C081E390E008959091340492FF0DC057
:1010B000282F2871283019F4877F846006C0282FD4
:1010C0002471243011F48B7F886093FF0DC0282F8A
:1010D0002871283119F4877E846106C0282F247175
:1010E000243111F48B7E88612091350420FF0DC0DE
:1010F000382F3871383019F4877F816006C0382F57
:101100003171313011F48E7F886021FF0DC0282F9E
:101110002871283119F4877E816106C0282F21713A
:10112000213111F48E7E886194FD877E0895E82F29
:10113000F0E0EE0FFF1FE85DFB4F80819181089585
:10114000089580EA8A95F1F70895F894E82FE295DA
:10115000EF70F0E031A1282F2F7081E090E001C006
:10116000880F2A95EAF7982F9095932391A392A13F
:10117000892B82A3789408950F931F93CF93DF93C5
:1011800084E90E94A50885E90E94A50886E90E94D5
:10119000A50887E90E94A508C7E6D2E003E712E0A8
:1011A00089910E94A5080C171D07D1F71092210400
:1011B0001092200410922904109228041092230403
:1011C0001092220410922B0410922A0410922504EB
:1011D0001092240410922D0410922C0410922704D3
:1011E0001092260410922F0410922E0484E00E9484
:1011F0008B09DF91CF911F910F910C9422067F9262
:101200008F929F92AF92BF92CF92DF92EF92FF9216
:101210000F931F93CF93DF93C3E7D2E080E2A82E12
:1012200084E0B82E98E2E92E94E0F92E712C01E0CA
:1012300010E06E018881F894E82FE295EF70F0E0FD
:1012400021A18F70A80102C0440F551F8A95E2F7B3
:10125000CA01922F982B91A392A18095892382A3F2
:1012600078940E94A108E7E6F2E020E030E0812CCB
:10127000912C4191A42FA295AF70B0E090968C91E3
:1012800090E04F7002C0959587954A95E2F780FDF2
:1012900008C0C801022E02C0880F991F0A94E2F705
:1012A00002C080E090E0882A992A2F5F3F4F2C30BF
:1012B0003105F9F62196F60180810E94A508F50115
:1012C000808191818816990621F09182808281E047
:1012D00001C080E0782AF2E0AF0EB11CEA14FB04F2
:1012E00009F0A7CF272D44E068E274E080E294E0A3
:1012F0000E948C090E942A06872DDF91CF911F91B1
:101300000F91FF90EF90DF90CF90BF90AF909F90A4
:101310008F907F9008950895FF920F931F93CF931E
:10132000DF93F82E092F162FD72FC42F222349F031
:1013300081E0809357030E94221990935603809373
:101340005503809157038823D9F0809155039091DC
:1013500056030E942E19069798F0EF2DF02FA12F1B
:10136000BD2F80E090E04C2F50E08417950734F4B7
:10137000219131912D933D930196F7CF1092570310
:10138000DF91CF911F910F91FF900895AF92BF927F
:10139000CF92DF92EF92FF920F931F93CF93DF9341
:1013A0007C015B01C42FD22FFC0182818823F9F0DC
:1013B00040935A030E942219909359038093580333
:1013C00080E28C0F883008F06EC0C77081E001C0E9
:1013D000880FCA95EAF7DF91CF911F910F91FF9087
:1013E000EF90DF90CF90BF90AF900C941C0E809147
:1013F0005A03481335C080915803909159030E94B5
:101400002E196C01B701C5010E946513C816D906D3
:1014100038F510E21D0FCD17B9F080E28C0F88303F
:1014200040F4C77081E001C0880FCA95EAF70E94B6
:10143000230E183058F581E09D2F977001C0880F5A
:101440009A95EAF70E941C0E802F0E94090E183010
:1014500050F5D77081E001C0880FDA95EAF70AC02D
:1014600080E28C0F8830F8F4C77081E001C0880FEB
:10147000CA95EAF7DF91CF911F910F91FF90EF90FE
:10148000DF90CF90BF90AF900C94230E802FDF9110
:10149000CF911F910F91FF90EF90DF90CF90BF9071
:1014A000AF900C94090EDF91CF911F910F91FF9097
:1014B000EF90DF90CF90BF90AF9008950F939C0175
:1014C000CB01243F4CE5340731F188F4293DFCE59C
:1014D0003F07D9F02A3D4CE5340779F1283D3C45DA
:1014E000A9F506E221EE41EE68ED7CE52BC0263F32
:1014F000FCE53F07E1F0A8F0273F3C4539F507E25E
:1015000025EE46EE67EF7CE51DC007E225EE45EED1
:1015100069ED7CE517C006E221EE40EE64EF7CE564
:1015200011C007E225EE44EE65EF7CE50BC006E254
:1015300021EE42EE66EF7CE505C008E221E045EED3
:101540006AED7CE50E94C60980E008C0FC0182814A
:10155000882319F010925A0301C081E00F91089579
:10156000CF93DF93EC01FB018281882309F41FC133
:10157000C230FCE5DF0708F41BC1C6319CE5D90782
:1015800038F09E012B5F3C452930310508F010C131
:101590000E943F179093350480933404C031ECE5EA
:1015A000DE0709F4C3C008F041C0C8308CE5D80795
:1015B00009F49AC0F0F4C430ECE5DE0709F487C002
:1015C00068F4C2308CE5D80709F477C0C330DC4535
:1015D00009F0E3C080913404826076C0C630ECE547
:1015E000DE0709F46EC008F07BC080913404886087
:1015F0006BC0CC308CE5D80709F485C068F4CA30DC
:10160000ECE5DE0709F474C008F079C00E94AC1064
:1016100080913404806858C0CE308CE5D80709F436
:1016200076C008F07FC0809134048BC0CC3FECE5DD
:10163000DE0709F44FC018F5C3318CE5D80709F46B
:101640007DC078F4C131ECE5DE0709F473C0C23126
:10165000DC4509F0A2C00E94AC10809134048F7761
:1016600033C0C5318CE5D80709F472C008F486C0D0
:10167000CB3FDC4509F091C0809135043EC0C115D7
:10168000FDE5DF0709F45FC058F4CE3F9CE5D907BC
:1016900009F444C008F43FC08091350482602DC035
:1016A000C230FDE5DF0709F475C008F45DC0C33042
:1016B000DD4509F072C080E06EC080913404816025
:1016C00003C08091340480618093340466C08091AB
:1016D000340411C0809135048260809335045DC06C
:1016E000809134048062F0CF809134048064ECCF28
:1016F0008091340488608460E7CF8160EECF809170
:1017000034048E7FE1CF809134048D7FDDCF8091D2
:101710003404877FD9CF8091350418C08091350477
:101720008D7FDBCF809134048F7ECECF80913404C7
:101730008F7DCACF809134048F7BC6CF80913404D3
:10174000877F8B7FC1CF809135048D7F8E7FC5CF02
:101750008091340482FB222720F991E0922790FBAC
:1017600082F990FB83F9B0CF80913504982F909542
:1017700091708E7F892B90FB81F9AFCF0E94AC10C6
:101780008091340487FB222720F991E0922790FB77
:1017900087F99ACF81E00E94D51780913404909107
:1017A00035040E9450170E94AC1080E001C081E017
:1017B000DF91CF910895CF93DF9386319C4541F51A
:1017C000EB010E947B16982F8A8120912102309193
:1017D0002202882379F09A7A81E009F480E08093EC
:1017E0005B03911102C069E201C065E3C9010E9477
:1017F00070180AC080915B03811102C069E201C0C8
:1018000065E3C9010E947B180E94C91680E001C0EF
:1018100081E0DF91CF9108959093610380936003FD
:101820000895E0916003F0916103309721F00190F9
:10183000F081E02D099480E00895E0916003F0913B
:101840006103309799F020913502222359F02091BD
:10185000340427FF07C0DC012C9111962C931197BB
:1018600025E02C930280F381E02D09940895E09106
:101870006003F0916103309739F022E0DC012C9392
:101880000480F581E02D0994089520915E03309144
:101890005F032817390771F090935F0380935E030D
:1018A000E0916003F0916103309721F00680F781A9
:1018B000E02D0994089520915C0330915D03281771
:1018C000390771F090935D0380935C03E0916003AE
:1018D000F0916103309721F00084F185E02D0994A7
:1018E000089585B7806885BF85B7806885BF0895EE
:1018F00081E008950C94780C08950C947C0C0C9461
:101900007C0C0C947F0C0C947C0C0C94830C0C942D
:101910007C0C0E94710C0E94870C0C94850C0E9418
:1019200019190E94BC080E9495190C94810C7F9291
:101930008F929F92AF92BF92CF92DF92EF92FF92DF
:101940000F931F93CF93DF93CDB7DEB72A970FB6D0
:10195000F894DEBF0FBECDBF0E947D0C0E947C0CB0
:101960000E94FF080E947A0C811111C08FEF8983B9
:101970008A831B820E9422198160782F9D838C8329
:1019800049815A816B818D810E944B0D4FC043E686
:10199000A42E43E0B42E00E010E0702E802F0E94B1
:1019A00097086C01F501819091905F018826992636
:1019B0008114910431F40F5F1F4F0430110569F752
:1019C000D5CF8091EF0381FD0E94A00880E0EE2436
:1019D000E394F12C94012E213F21232B09F18E83D6
:1019E0007F82CE20DF2081E0CD2809F480E0888747
:1019F0000E9422198160782F9A8789874E815F81A2
:101A000068858A850E944B0D000F111FF801ED5962
:101A1000FC4F80819181E826F926F182E08206C0A0
:101A20008F5FEE0CFF1C8C30A9F6C5CF0E94441BC3
:101A30000E94110C909162038917C9F00E94110C49
:101A4000809362032A960FB6F894DEBF0FBECDBF17
:101A5000DF91CF911F910F91FF90EF90DF90CF908A
:101A6000BF90AF909F908F907F900C9480062A96A5
:101A70000FB6F894DEBF0FBECDBFDF91CF911F919F
:101A80000F91FF90EF90DF90CF90BF90AF909F901D
:101A90008F907F900895CF93DF93CDB7DEB72B97CC
:101AA0000FB6F894DEBF0FBECDBF4F83588769874E
:101AB0007A878B87DE01119686E0FD0111928A9567
:101AC000E9F785E0FE01379601900D928A95E1F7DE
:101AD00049815A816B817C818D819E810E9468132E
:101AE0002B960FB6F894DEBF0FBECDBFDF91CF911E
:101AF0000895FC01808191810E943C160895CF9346
:101B0000882309F450C0C82F8CEF8C0F813AD0F491
:101B10006C2F80912102909122020E94F01788235D
:101B200049F06C2F80912102909122020E947B1833
:101B30000E94C9166C2F80912102909122020E946E
:101B400070180CC080E28C0F883058F4C77081E0A8
:101B500001C0880FCA95EAF70E947E16CF910C94B7
:101B6000C916EBE5EC0FE33040F4F0E0EB55FD4F28
:101B7000808190E0CF910C94450CE8E5EC0FE731C3
:101B800050F4F0E0EE0FFF1FE958FD4F8081918186
:101B9000CF910C945B0CC03F30F08C2F0E94391A0F
:101BA000CF910C94261BCF910895882389F19CEF47
:101BB000980F913A40F4682F80912102909122026F
:101BC0000E947B180DC090E2980F983058F48770EF
:101BD00091E001C0990F8A95EAF7892F0E94841637
:101BE0000C94C9169BE5980F933020F480E090E0A8
:101BF0000C94450C98E5980F973120F480E090E024
:101C00000C945B0C803F20F00E94A11A0C94261BC0
:101C10000895CF93C82F0E947F0DC93349F42FEF49
:101C200087EE93E0215080409040E1F700C0000033
:101C30008C2FCF910C94D50D882321F00E947E1615
:101C40000C94C9160895882321F00E9484160C94E0
:101C5000C9160895CF92DF92EF92FF920F931F93D0
:101C6000CF93DF937C01062FC72FFC0115811295BE
:101C70001F70D281D1110E949B160E947416882376
:101C800099F0DD2389F08C2F807F803421F080E271
:101C9000800F883048F082E00E9413170E9474166B
:101CA00091E0D82ED92601C0D12CCC2EC2948FE041
:101CB000C8228C2D90E0FC01E45BFF4F0C944A237A
:101CC0008C2F807FCF70882311F0C295C07FDD23D9
:101CD00099F0CC2309F48DC180E2800F883010F098
:101CE000011104C08C2F0E947E1603C08C2F0E940D
:101CF0008E160E94C9167DC1802F0E94D50DCC235F
:101D000009F49CC180E2800F883010F0011104C0FA
:101D10008C2F0E94841603C08C2F0E9494160E9460
:101D2000C9168CC18C2F807FCF70803211F0C29584
:101D3000C07F002319F00130C9F022C0DD2371F00B
:101D4000112341F0113031F40E94AE168C2B0E9409
:101D5000B61674C10E94AE168C2B1DC0112319F04B
:101D6000113009F46BC10E94BF1625C0DD2321F09C
:101D7000133008F063C10EC0123008F05FC11BC001
:101D8000DD2361F0112331F0F701858180FF31C13E
:101D90008F7085838C2F0E941C0E50C1112359F027
:101DA000093309F037C1FFEF27EE83E0F1502040FF
:101DB0008040E1F72DC18C2F0E94230E3FC18C2F54
:101DC00086958695837019F0813061F037C1DD23E7
:101DD00021F0802F9C2F937002C080E090E00E9441
:101DE000450C34C1DD2321F0802F9C2F937002C05D
:101DF00080E090E00E945B0C29C1802FDD2319F068
:101E00000E94391A02C00E94A11A0E94261B1EC1FC
:101E10008C2F837009F045C0D11114C1402F429519
:101E200046954770440F440F602F6F70862F90E0E7
:101E3000A0E0B0E0042E04C0880F991FAA1FBB1FAA
:101E40000A94D2F704FF10C00FE010E020E030E069
:101E500004C0000F111F221F331F4A95D2F70095AF
:101E600010952095309503C000E010E09801C695CC
:101E7000C695C370BC01CD01602B712B822B932BB7
:101E8000C23049F058F4C13019F00E94B914DAC0D8
:101E90000E94A714D7C00E94CB14D4C00E94A514DE
:101EA000D1C0DD2319F08C2F817001C08695882365
:101EB00009F4C8C0402F429546954770440F440F1F
:101EC000602F6F70862F90E0A0E0B0E0042E04C079
:101ED000880F991FAA1FBB1F0A94D2F704FF10C0D6
:101EE0000FE010E020E030E004C0000F111F221FBF
:101EF000331F4A95D2F7009510952095309503C071
:101F000000E010E09801C695C695C370BC01CD01F4
:101F1000602B712B822B932BC23049F058F4C130C7
:101F200019F00E947E158EC00E946C158BC00E9415
:101F3000901588C00E94DF1485C0CF70DD2339F072
:101F40008C2F0E940515802F0E941C0E7BC0802FB5
:101F50000E94230E8C2F0E94261574C0023F01F1AF
:101F600028F4003F41F0013FA1F03FC0033FF9F0EA
:101F7000043F39F13AC0DD2341F0123008F05EC071
:101F80008C2F8F710E944B1559C0133008F056C02A
:101F9000F7CFDD2339F08C2F8F710E9405154EC0CD
:101FA000DD23C9F38C2F8F710E94261547C0DD23D6
:101FB00029F08C2F8F710E94F01440C00E94EB1406
:101FC0003DC0DD2349F0CF718C2F0E94051563E0E1
:101FD0008C2F0E94FE1632C081E00E94131712302F
:101FE00068F182E00E94131729C0DD2331F011232C
:101FF00091F2802F0E947F0D21C0112399F20933A5
:1020000049F49FEFE7EEF3E09150E040F040E1F754
:1020100000C00000802F0E94D50D10C04C2F4F70C3
:10202000602FC7010E9489060E9416140FC04C2F12
:102030004F70602FC7010E948C0608C088EF8C0D7E
:10204000843020F40E94110C0E948006DD20C9F02B
:102050000E94701680FD15C0F70112820E946A1658
:102060000E940515C7010E9462100E946A16DF9146
:10207000CF911F910F91FF90EF90DF90CF900C9434
:102080002615DF91CF911F910F91FF90EF90DF9078
:10209000CF9008950F931F93CF93DF93EC01688146
:1020A00079818A810E9447168C010E94A2150E94A4
:1020B0009314B801CE010E942A0EDF91CF911F9197
:1020C0000F910895CF93DF93EC01988189812B8143
:1020D0003C81232B31F08F3F31F481E09F3F19F495
:1020E00003C081E001C080E080FD19C0CE010E94E4
:1020F0003C0681110CC00E947416882381F08A81ED
:10210000882369F082E0DF91CF910C941317CE0100
:102110000E944A10CE01DF91CF910C941706DF91F7
:10212000CF9108950E949B160E94AB160E94C9167B
:102130000E94571C0E94261B80E090E00E94450CE4
:1021400080E090E00C945B0C80912102909122023F
:102150000E9486180C9492100E948B160C94A41066
:10216000E92FE295EF704E2F50E0FA013297EE30F2
:10217000F105B0F4E45AFF4F0C944A23803F91F0EC
:1021800018F4883E68F40EC0843F51F40BC0883EBA
:1021900048F0813F29F406C093FB882780F9089511
:1021A00080E0089581E008950E943C160E94B010DE
:1021B0000895CF93DF9300D000D01F92CDB7DEB744
:1021C0000F900F900F900F900F90DF91CF91089587
:1021D000CF93DF9300D000D000D0CDB7DEB72696E6
:1021E0000FB6F894DEBF0FBECDBFDF91CF9108953B
:1021F0001F93CF93DF93C0916C0316E080916D0322
:10220000C81799F0D0E01C9FF0011D9FF00D11241C
:10221000E259FC4F408151816281738184819581B3
:102220000E94E8102196C770E9CFDF91CF911F91EE
:10223000089540919E0350919F036091A003709177
:10224000A1038091A2039091A3030C94E8100F9333
:102250001F93CF93DF938091A30382958F7009F032
:102260005DC08091A003882309F458C080916C035D
:1022700010916D0360919E0370919F03C091A10323
:10228000D091A20391E06F3F09F090E0292F06E082
:10229000811709F443C0209721F07F3F21F030E0FF
:1022A00003C031E001C0322F90E030FD34C0089F00
:1022B000F001099FF00D1124DF01A259BC4F1196C6
:1022C0003C911197371327C03C91361324C01296C6
:1022D0003C91129731111FC013964D915C91149748
:1022E0004C1B5D0B483C5105B0F48091A3038F70EB
:1022F00080618093A303ED58FC4F80818F708061D3
:1023000080838EE993E00E946210DF91CF911F914C
:102310000F910C94F81001968770BACFDF91CF918E
:102320001F910F9108959F92AF92BF92CF92DF922B
:10233000EF92FF920F931F93CF93DF93CDB7DEB74A
:1023400061970FB6F894DEBF0FBECDBF8C0185E05C
:10235000F801DE011D9601900D928A95E1F7F801D2
:1023600040815181E28090919E0360919F03209172
:10237000A1033091A2032115310531F06F3F31F4F3
:1023800081E09F3F19F403C081E001C080E0F82F95
:10239000F1709F2E80FD46C1F801A380B4808EE9C4
:1023A000C82E83E0D82EF090A003F501E21BF30BBA
:1023B000FF2009F4DFC08091A303E83CF10508F099
:1023C0009BC0282F207F09F052C0561313C0491319
:1023D00011C0FE2CE1100EC08F7080618093A303AA
:1023E0000E941911C6010E9462108091A303F80196
:1023F000858358C1AB2831F05F3F31F481E04F3F16
:1024000019F403C081E001C080E080FD03C081E0D9
:102410008E2502C080E090E0F82FF170FF2E80FF43
:102420001CC080916C0320916D0336E0821709F483
:1024300017C190E0389FF001399FF00D1124E25947
:10244000FC4F6181561306C06081461303C0628150
:10245000E61203C001968770E9CFFE2CEE2009F446
:1024600021C18091A30381608093A3035AC05613B6
:1024700006C0491304C0E11002C0F8019FC04D8797
:102480005E878D859E850E94D410882379F1EE2089
:1024900069F12091A303822F82958F7090E00297BB
:1024A00074F080919E0390919F0398878F83198683
:1024B000BB86AA862C87CE0107960E94621086E012
:1024C000F801AEE9B3E001900D928A95E1F70E9420
:1024D00027110E9419110DC0561729F14D875E87EB
:1024E0008D859E850E94D41081112CC0C8010E9448
:1024F0006210FF24F394D6C0282F207F69F77A2D2D
:10250000B98AA88A6E2D89890E94D9108EE993E034
:102510000E94621086E0F60111928A95E9F70E9406
:102520001911F12CBFC04913D9CFE110D7CFF80151
:102530008583C8010E94621086E0F60111928A9597
:10254000E9F7B0C0EE2091F22091A303822F82958B
:102550008F7090E002970CF4B2CF80919E0390911F
:102560009F039A8389831B82BD82AC822E83CE0116
:102570000196A3CFE83CF10508F047C0FE2CEE2001
:1025800009F4B4CF561330C049132EC02091A303D1
:1025900020FD21C0822F82958F70482F50E0411579
:1025A0005105C9F0F80125834F30510541F08F5F87
:1025B000982F9295907F822F8F70892B8583C801E9
:1025C0000E94621086E0F801AEE9B3E001900D923E
:1025D0008A95E1F742C086E0F801AEE9B3E00190E8
:1025E0000D928A95E1F75EC04D875E878D859E8549
:1025F0000E94D410811163CF8091A30381608093E6
:10260000A303C8010E9462104DC07A2DB98AA88A1E
:102610006E2D89890E94D91086E0F60111928A9563
:10262000E9F71BC0EE2009F461CF4D875E878D85E9
:102630009E850E94D410F82E882309F457CF86E097
:10264000F801AEE9B3E001900D928A95E1F78EE9C9
:1026500093E00E94790D0E9427110E94191122C057
:102660004D875E878D859E850E943C16292F229579
:102670002F70223028F49F7039F0811105C00BC0F3
:10268000243028F49F7049F4805E883020F0C8011F
:102690000E9462109F2CF92C05C0F8019581907F53
:1026A00099F7F9CF8F2D61960FB6F894DEBF0FBE64
:1026B000CDBFDF91CF911F910F91FF90EF90DF90F1
:1026C000CF90BF90AF909F90089588EC90E00895D0
:1026D0001F93CF93DF93CDB7DEB72C970FB6F89447
:1026E000DEBF0FBECDBF4F83588769877A878B8740
:1026F0009C87CE0107960E9493118823D1F09F8179
:1027000088852A853B85232B31F08F3F31F481E08A
:102710009F3F19F403C081E001C080E080FD47C005
:102720004F81588569857A858B859C850E94E81044
:102730003EC086E0FE013796DE01119601900D92B3
:102740008A95E1F7FF81E8856A857B8561157105CA
:1027500031F0EF3F31F481E0FF3F19F403C081E035
:1027600001C080E080FD23C020916D0330E0C901ED
:1027700001968770992740916C0350E08417950764
:10278000F1F1F983EA837D836C8396E0929FD00117
:10279000939FB00D1124A259BC4FFE0131960190B8
:1027A0000D929A95E1F780936D030E94F81016E060
:1027B00080916C0390916D03891771F1189FC0018E
:1027C000112482599C4F0E949311882329F1E09192
:1027D0006C031E9FF0011124E259FC4F408151818E
:1027E00062817381848195810E94E81080916C03DD
:1027F00090E001968770992780936C03D9CF0E944F
:10280000AC1010926D0310926C03EEE9F3E086E0D9
:10281000DF011D928A95E9F72C960FB6F894DEBF7A
:102820000FBECDBFDF91CF911F910895EF92FF9220
:102830000F931F93CF93DF938C01892B09F46CC006
:10284000F12CEE24E394E8012196F8018491843779
:1028500040F4843008F051C0813081F0823019F1A9
:102860005BC0853709F444C0A8F19CE7980F903706
:1028700008F052C08F770E94D50D41C00E5F1F4FE8
:10288000FE01849190E2980F983050F48770FE2DED
:1028900001C0FF0F8A95EAF78F2F0E949E1614C081
:1028A0000E947F0D2DC00E5F1F4FFE01849190E2AC
:1028B000980F983060F48770FE2D01C0FF0F8A9545
:1028C000EAF78F2F0E94A4160E94C91619C00E9411
:1028D000D50D16C00E5F1F4FFE01C491CC2381F0B1
:1028E0008FE99FE00197F1F700C00000C150F6CFDB
:1028F0000E5F1F4FFE01F49003C00E947F0D8E01FA
:102900008F2D882309F49FCFEFE9FFE03197F1F78E
:1029100000C000008150F5CFDF91CF911F910F9142
:10292000FF90EF900895089508950C9494140C94DA
:1029300095140E9497146093C6037093C703809305
:10294000C8039093C9030C9492100C9499140F939C
:102950001F930091C6031091C7032091C8033091C3
:10296000C903602B712B822B932B1F910F910C9419
:1029700099140F931F930091C6031091C7032091E0
:10298000C8033091C90360237123822393231F91CD
:102990000F910C9499140F931F930091C6031091FB
:1029A000C7032091C8033091C9036027712782278C
:1029B00093271F910F910C9499140C94B4050E94C5
:1029C000DD146093C2037093C3038093C403909398
:1029D000C5030C94921060E070E0CB010C94DF14FE
:1029E0000F931F9341E050E060E070E08A019B018B
:1029F00004C0000F111F221F331F8A95D2F7C9018F
:102A0000B8011F910F910C94DF140F931F9341E0B5
:102A100050E060E070E004C0440F551F661F771F50
:102A20008A95D2F78091C2039091C303A091C40309
:102A3000B091C5038A019B01082B192B2A2B3B2B34
:102A4000C901B8011F910F910C94DF140F931F93CC
:102A500041E050E060E070E004C0440F551F661F85
:102A6000771F8A95D2F74095509560957095809123
:102A7000C2039091C303A091C403B091C5038A011E
:102A80009B01082319232A233B23C901B8011F9165
:102A90000F910C94DF140F931F9341E050E060E01E
:102AA00070E004C0440F551F661F771F8A95D2F748
:102AB0008091C2039091C303A091C403B091C50358
:102AC0008A019B01082719272A273B27C901B8013A
:102AD0001F910F910C94DF140F931F930091C20369
:102AE0001091C3032091C4033091C503602B712B57
:102AF000822B932B1F910F910C94DF140F931F9334
:102B00000091C2031091C3032091C4033091C50307
:102B100060237123822393231F910F910C94DF1460
:102B20000F931F930091C2031091C3032091C4031C
:102B30003091C50360277127822793271F910F913A
:102B40000C94DF1408952CE0929F800D1124E82F3F
:102B5000E695E695E695877051E001C0550F8A9598
:102B6000EAF785E0E89FF0011124EC55FC4F20E0E6
:102B700030E070E04081CB01022E02C0969587952F
:102B80000A94E2F7817081958427852384278193B5
:102B90002F5F3F4F2530310569F708952CE0929F54
:102BA000800D1124682F669566956695982F97700D
:102BB00085E0689FB001112440E050E080E0FB0117
:102BC000E40FF51FEC55FC4F208130E0092E02C0C8
:102BD000369527950A94E2F721703327042E01C019
:102BE000220F0A94EAF7822B4F5F5F4F4530510561
:102BF00031F70895BF92CF92DF92EF92FF920F9339
:102C00001F93CF93DF938C01C090C203D090C30376
:102C1000E090C403F090C5038091C6039091C70370
:102C2000A091C803B091C903C82AD92AEA2AFB2A6D
:102C3000CFE1D0E0D701C6010C2E04C0B695A79510
:102C4000979587950A94D2F780FD04C0219790F755
:102C5000B12C07C0BC2EB8018C2F0E94A80601978A
:102C6000A9F38B2DDF91CF911F910F91FF90EF90E2
:102C7000DF90CF90BF900895CF93DF93EC010E9437
:102C8000FA15BE010E94A806DF91CF9108951F9307
:102C9000CF93DF93EB0190916B03992321F0CB014C
:102CA0000E943C1613C0882349F0CB010E94FA15FC
:102CB000182F682FCE010E94A31504C0CB010E94DB
:102CC000CE15182FBE01812F0E94A806DF91CF914B
:102CD0001F9108958091CA038595859585950895DE
:102CE0008091CA03877008959091CA03977081E01C
:102CF00009F480E008958091EE0308959091EE0329
:102D0000892B8093EE03089580959091EE0389239B
:102D10008093EE0308951092EE0308959091ED03D1
:102D2000892B8093ED03089580959091ED0389237D
:102D30008093ED0308951092ED0308959091EC03B4
:102D4000892B8093EC03089580959091EC0389235F
:102D50008093EC0308951092EC0308958091CB03C7
:102D6000089508950C94B1160C94B2169091CB036B
:102D7000981721F08093CB030C94B416089580919A
:102D8000CB03882329F01092CB0380E00C94B41677
:102D90000895E0912102F09122028091EE03808358
:102DA000E0912102F091220290818091ED03892B24
:102DB0008083E0912102F091220290818091EC03C6
:102DC000892B80838091CB03882381F0E0912102BD
:102DD000F09122029081892B808380912102909131
:102DE00022020E94DA1781110E94BF1680912102EF
:102DF000909122020C941D0C0C94B11698E0899FBE
:102E000090011124262B2093CA030E94051580915E
:102E1000CA038595859585950C94FC161092CA0376
:102E200080E00C94FC162091CA0380958223809345
:102E3000CA03982F977079F430E0482F082E000CC1
:102E4000550B2417350739F08595859585950E9492
:102E500026150C940E17089580E090E00E946F23D1
:102E600021E08C3E9E4F09F020E0822F089582E001
:102E700090E00C94672383E090E00C946723CF9359
:102E800084E090E00E946723C82F81E290E00E94D6
:102E900067232C2F30E0A901582BCA01CF91089548
:102EA000CF93C92F682F84E090E00E9475236C2F88
:102EB00081E290E0CF910C947523AB01BC018FE0CF
:102EC00090E00C948723AB01BC0183E190E00C946B
:102ED000872360E070E0CB010C94631760E070E042
:102EE000CB010E945D170C9469176CEE7EEF80E0B9
:102EF00090E00E94932360E082E090E00E947523BE
:102F000060E083E090E00E9475231092C603109267
:102F1000C7031092C8031092C90360E084E090E0F8
:102F20000E94752360E081E290E00E94752360E0DA
:102F300085E090E00E94752360E086E090E00E94CA
:102F400075236FEF87E090E00E94752340E050E02A
:102F5000BA0188E090E00E94872360E08DE090E075
:102F60000E94752340E050E0BA0188E190E00E94A1
:102F7000872360E087E190E00E94752340E050E005
:102F8000BA018CE190E00E94872360E080E290E04B
:102F90000E94752340E050E0BA0188E190E00E9471
:102FA00087230C946E170C947517682F8EE090E0B1
:102FB0000C947523FC01329680913502882331F000
:102FC0008091340487FF02C09EE101C096E080E05A
:102FD000915028F021912223D9F38F5FF9CF0895E2
:102FE000662351F1209135022223E9F02091340427
:102FF00027FF19C0462F4695469546954E31E0F479
:10300000677021E030E002C0220F331F6A95E2F7BB
:10301000FC01E40FF11D828190E02823392381E037
:10302000232B69F409C0FC0132960896219162179E
:1030300029F0E817F907D1F780E0089581E00895B5
:103040009C01FC0132969FEF80E04191461789F088
:103050009F3F19F4411101C0982F8F5F8630A9F767
:103060009F3F39F0F901E90FF11D97FDFA95628351
:10307000089508959C012A5F3F4FFC014281461349
:1030800001C01282019682179307B9F70895262F7F
:103090002695269526952E3168F4FC01E20FF11D48
:1030A000677021E030E001C0220F6A95EAF7828163
:1030B000282B22830895262F2695269526952E3196
:1030C00070F4FC01E20FF11D677021E030E001C0F7
:1030D000220F6A95EAF7209582812823228308959A
:1030E00020913502222329F02091340427FD0C94ED
:1030F00047180C94201820913502222329F02091A2
:10310000340427FD0C945B180C943A182091350276
:10311000FC013296222331F08091340487FF02C0F3
:103120008EE101C086E0DF011D928A95E9F70895DE
:1031300008950C9498180C949818CF930E949B189B
:103140000E94FF080E949918C0E08C2F0E949708E7
:10315000892B29F4CF5FC430C1F780E001C081E042
:10316000CF9108950C9498180C94B2180E94B4183A
:1031700080913A04843049F11092F00320E488E110
:1031800090E00FB6F894A895809360000FBE20934E
:10319000600080E00E9480060E94B41883B7817F9F
:1031A000846083BF83B7816083BF7894889583B739
:1031B0008E7F83BF0FB6F894A895809160008861D8
:1031C00080936000109260000FBE08950C949818D0
:1031D0000E94AC100E94110C0E9480060C94E6180C
:1031E0001F920F920FB60F9211248F939F93AF935C
:1031F000BF938091F003811113C0809130049091AE
:103200003104A0913204B09133044196A11DB11D47
:103210008093300490933104A0933204B09333042C
:10322000BF91AF919F918F910F900FBE0F901F9004
:10323000189582E084BD93E095BD9AEF97BD809389
:103240006E0008952FB7F894809130049091310466
:10325000A0913204B09133042FBF08959C014FB761
:10326000F8948091300490913104A0913204B0918F
:1032700033044FBF821B930B089578941F920F92D3
:103280000FB60F9211248F939F93AF93BF938091AA
:10329000300490913104A0913204B091330401962E
:1032A000A11DB11D8093300490933104A09332048A
:1032B000B0933304BF91AF919F918F910F900FBE48
:1032C0000F901F901895F89481E08093E00080E2C1
:1032D0008093D800E9ECF0E010828FE19EE4019742
:1032E000F1F700C000001DBA109268001CBC10BEAF
:1032F0001FBA10927A0010926E0010926F00109216
:1033000070001092710010821092BC0011B814B8B5
:1033100017B81AB81DB810BA12B815B818B81BB833
:103320001EB811BA0C9400FE08950E942C1781114A
:1033300002C00E94D3170E9437178093EF030E94A8
:103340003F1790933504809334040E943B17682FF5
:1033500070E080E090E00E94A5146091C20370913B
:10336000C3038091C4039091C5030C94DD14809134
:10337000F70380FF0BC06091280285E0689FB001D1
:10338000112475956795759567952BC081FF09C0C8
:103390006091280285E0689FB001112475956795BA
:1033A00020C082FF07C06091280285E0689FB001BD
:1033B000112417C09091F6039923D1F06091270250
:1033C000961788F72091280285E0289F9001112404
:1033D000929FA001939F500D112470E0CA010E949A
:1033E00036236038710540F46115710519F406C083
:1033F00065E070E0862F08958FE7089581E00895D5
:103400008091F70380FF08C06091240270E07595F9
:1034100067957595679521C081FF06C0609124026C
:1034200070E07595679519C082FF04C06091240211
:1034300070E010C09091F503992399F060912302F8
:103440009617A0F780912402899FC001112470E093
:103450000E9436236038710540F46115710519F436
:1034600006C061E070E0862F08958FE7089581E03F
:103470000895803F21F40E94B719819504C0813FCF
:1034800029F40E94B7198093FB030895823F21F429
:103490000E94B719819504C0833F29F40E94B7198F
:1034A0008093FA030895893F19F40E94001A05C019
:1034B0008A3F31F40E94001A81958093FC0308959D
:1034C0008B3F21F40E94001A819504C08C3F29F49F
:1034D0000E94001A8093FD030895843F21F4809197
:1034E000F903816017C0853F21F48091F903826060
:1034F00011C0863F21F48091F90384600BC0873F9F
:1035000021F48091F903886005C0883F31F48091EF
:10351000F90380618093F90308958D3F21F4809130
:10352000F70381600BC08E3F21F48091F703826026
:1035300005C08F3F29F48091F70384608093F703DF
:103540000895803F39F48091FB0387FF6AC0109291
:10355000FB0367C0813F29F48091FB031816BCF37D
:1035600060C09091FA03823F29F497FF5AC01092ED
:10357000FA0357C0833F19F41916CCF352C0909147
:10358000FC03893F31F419160CF04BC01092FC0378
:1035900048C08A3F19F497FF44C0F8CF8B3F39F4F5
:1035A0008091FD0387FF3DC01092FD033AC08C3F20
:1035B00029F48091FD031816BCF333C0843F21F435
:1035C0008091F9038E7F17C0853F21F48091F90324
:1035D0008D7F11C0863F21F48091F9038B7F0BC052
:1035E000873F21F48091F903877F05C0883F31F43C
:1035F0008091F9038F7E8093F90313C08D3F21F4EE
:103600008091F7038E7F0BC08E3F21F48091F703EA
:103610008D7F05C08F3F29F48091F7038B7F8093C6
:10362000F7038091FA03811106C08091FB03811199
:1036300002C01092F6038091FC03811106C08091B4
:10364000FD03811102C01092F50308950E94221912
:103650002091FA03211104C02091FB03222321F0C1
:103660009093F4038093F3032091FC03211104C091
:103670002091FD03222321F09093F2038093F10324
:1036800088EF93E00C94370CEF92FF920F931F9307
:10369000CF93DF9300D000D000D0CDB7DEB786E067
:1036A000E8EFF3E0DE01119601900D928A95E1F7C3
:1036B000E090FA03F090FB030091FC031091FD03EE
:1036C0001092FA031092FB031092FC031092FD0378
:1036D000E11003C0FF2009F45DC08091F3039091D5
:1036E000F4030E942E19AC019091F603992339F04E
:1036F0002091290230E02417350758F04BC0209163
:103700002A028AE0289F900111242417350718F017
:1037100041C09F3F19F09F5F9093F603EE2061F048
:103720000E94B7191E1414F09FEF01C091E0989FFA
:10373000902D11249093FA03FF2061F00E94B71995
:103740001F1414F09FEF01C091E0989F902D112459
:103750009093FB033091FA033323E1F02091FB03B4
:103760002223C1F045EB3403C0011124992319F041
:103770009093FA0303C081E08093FA0335EB2303AF
:10378000C0011124992319F09093FB0303C081E039
:103790008093FB03011103C0112309F45DC08091E4
:1037A000F1039091F2030E942E19AC019091F50360
:1037B000992339F02091250230E02417350758F07D
:1037C0004BC0209126028AE0289F900111242417E3
:1037D000350718F041C09F3F19F09F5F9093F503A4
:1037E000002361F00E94001A101614F09FEF01C030
:1037F00091E0989F902D11249093FC03112361F088
:103800000E94001A111614F09FEF01C091E0989FDA
:10381000902D11249093FD033091FC033323E1F0AC
:103820002091FD032223C1F045EB3403C001112494
:10383000992319F09093FC0303C081E08093FC036B
:1038400035EB2303C0011124992319F09093FD0354
:1038500003C081E08093FD038091FA0381110BC0C6
:103860008091FB03811107C08091FC03811103C08B
:103870008091FD0381110E94261BEB82FC820D8347
:103880001E8386E0FE013196A8EFB3E001900D9211
:103890008A95E1F726960FB6F894DEBF0FBECDBF2E
:1038A000DF91CF911F910F91FF90EF900895E8EF76
:1038B000F3E086E0DF011D928A95E9F71092F603A6
:1038C0001092F5031092F703089580911E04089555
:1038D000CF93DF9300D01F92CDB7DEB790913A041B
:1038E000943019F589837B836A8382E08093E900B1
:1038F0008FEF9091E800815095FD06C095ED9A9567
:10390000F1F700008111F5CF8091E80085FF0DC02F
:1039100040E050E063E070E0CE0101960E94911E0D
:103920008091E8008E778093E8000F900F900F90C1
:10393000DF91CF910895BC0184E00C94681CBC0118
:1039400083E00C94681C22E02093E9002FEF309173
:10395000E800215035FD06C035ED3A95F1F700003D
:103960002111F5CF2091E80025FF0BC040E050E089
:1039700066E070E00E94911E8091E8008E7780934F
:10398000E8000895CF93DF9320913502222339F088
:103990002091340427FF03C060E222E002C068E007
:1039A00021E02093E9002FEF3091E800215035FD10
:1039B00006C035ED3A95F1F700002111F5CF2091C1
:1039C000E80025FF1DC0EC0180913502811105C082
:1039D00040E050E068E070E003C070E040E050E09C
:1039E000CE010E94911E8091E8008E778093E800BE
:1039F00080E2FE01AEEFB3E001900D928A95E1F70F
:103A0000DF91CF91089580913904811109C00E94FE
:103A10001E200E9480208091E20084608093E2005A
:103A20000895109239040895089508950C94E818A3
:103A300042E061EC81E00E94971F42E261EC82E08B
:103A40000C94971F80913C04833009F45EC030F4DD
:103A5000813071F0823009F497C008958A3009F4FA
:103A600083C08B3009F469C0893009F0A5C020C03B
:103A700080913B04813A09F09FC08091E800877FE4
:103A80008093E80080913F0490914004892B21F4B9
:103A900060E28EEF93E003C060E080E090E070E0D1
:103AA0000E94DC1E8091E8008B778093E8000895E7
:103AB00080913B04813209F07FC080913F04909156
:103AC0004004029708F078C08091E800877F8093D7
:103AD000E8008091E80082FD05C080913A048111E0
:103AE000F8CF6AC08091F2009091F300029729F418
:103AF0008091F1008B7F813021F48091F1008093DF
:103B00001E048091E8008B7753C080913B04813A7A
:103B100009F052C080913F0490914004892B09F034
:103B20004BC08091E800877F8093E8008091E80097
:103B300080FFFCCF8091350236C080913B048132FA
:103B4000D9F580913F0490914004892BA9F580918B
:103B5000E800877F8093E8000E94CC1F80913D049D
:103B6000809335020C94AC1080913B04813221F596
:103B70008091E800877F8093E8000E94CC1F8091AD
:103B80003E0480931F04089580913B04813AA1F480
:103B90008091E800877F8093E8008091E80080FFB3
:103BA000FCCF80911F048093F1008091E8008E7714
:103BB0008093E8000C94CC1F089584B7877F84BF5E
:103BC0000FB6F894A895809160008861809360009A
:103BD000109260000FBE90E080E80FB6F8948093DA
:103BE0006100909361000FBE0E94890C0E941E200C
:103BF0000E9480208091E20084608093E2007894AB
:103C00000E941B230E948F0C8BE292E00E940C0CFE
:103C100080913A04853069F40E94B6188091380486
:103C20008823B1F30E949D18882391F30E947B1E84
:103C3000EFCF0E94970C0E947D0C0E947C0CE8CF75
:103C40000C94221E292F332723303105C9F060F44C
:103C50002130310581F02230310509F044C08BE379
:103C600090E028EE32E043C021323105E1F022320B
:103C7000310549F138C082E190E023E233E037C0FA
:103C800099278130910549F028F0029761F5E8EC19
:103C9000F2E005C0E4EEF2E002C0E8EDF2E084916B
:103CA00090E09F0124C06115710541F061307105FC
:103CB000D1F489E090E023E133E019C089E090E09D
:103CC0002AEF32E014C06115710541F061307105D1
:103CD00051F48CEB90E025E333E009C080E490E000
:103CE00021EF33E004C080E090E020E030E0FA0112
:103CF00031832083089584E189BD86E189BD09B4BB
:103D000000FEFDCF8091D8008F7D8093D8008091F8
:103D1000E00082608093E0008091E00081FDFCCFB4
:103D20000895CF92DF92EF92FF920F931F93CF935C
:103D3000DF93EC018B017A010E94EB1F811133C0EC
:103D4000E114F10439F0F70180819181081B190B0E
:103D5000C80FD91FC12CD12C0115110519F1809163
:103D6000E80085FD16C08091E8008E778093E8001A
:103D7000E114F10449F0F70180819181C80ED91E48
:103D8000D182C08285E00FC00E94EB1F882321F3FF
:103D90000AC089918093F10001501109FFEFCF1AF9
:103DA000DF0ADACF80E0DF91CF911F910F91FF9072
:103DB000EF90DF90CF90089520914104309142041C
:103DC0002617370748F06115710539F42091E8008E
:103DD0002E772093E80001C0B901FC0120E06115B5
:103DE000710569F180913A048823E1F18530E1F1B0
:103DF0008091E80083FD3AC08091E80082FD2CC0EC
:103E00008091E80080FFEBCF8091F2009091F30069
:103E10006115710551F08830910538F42191209396
:103E2000F100615071090196F3CF21E0089709F084
:103E300020E08091E8008E778093E800D0CF2111B8
:103E4000D1CF0AC080913A04882361F0853061F0B7
:103E50008091E80083FD0AC08091E80082FFF2CFE4
:103E600080E0089582E0089583E0089581E0089558
:103E700020914104309142042617370748F061151C
:103E8000710539F42091E8002E772093E80001C0F5
:103E9000B901FC0120E06115710581F180913A04BE
:103EA000882309F43EC0853009F43DC08091E800C4
:103EB00083FD3BC08091E80082FD2DC08091E80029
:103EC00080FFE9CF8091F2009091F30061157105B8
:103ED00059F08830910540F424912093F1003196F7
:103EE000615071090196F2CF21E0089709F020E0B6
:103EF0008091E8008E778093E800CDCF2111CECF5E
:103F00000AC080913A04882361F0853061F0809185
:103F1000E80083FD0AC08091E80082FFF2CF80E0D4
:103F2000089582E0089583E0089581E00895982F30
:103F3000973068F59093E900981739F07091EC008C
:103F40002091ED005091F00003C0242F762F50E017
:103F500021FD02C09F5FECCF3091EB003E7F30939C
:103F6000EB003091ED003D7F3093ED003091EB00A0
:103F700031603093EB007093EC002093ED00509390
:103F8000F0002091EE0027FDE5CF80E008958F70CE
:103F90008093E90081E0089580913B0487FF11C080
:103FA0008091E80082FD05C080913A048111F8CF2C
:103FB00011C08091E8008B770BC080913A04882370
:103FC00049F08091E80080FFF8CF8091E8008E777B
:103FD0008093E80008952091E4003091E50095E693
:103FE0004091EC00842F817040FF23C08091E80055
:103FF00080FD1DC080913A04882399F0853099F0A6
:104000008091EB0085FD11C04091E4005091E500E6
:104010002417350729F3915011F09A01E1CF84E07C
:10402000089582E0089583E0089581E0089580E096
:1040300008954091E80042FFDDCF08950E948F204F
:104040000E949720E0EEF0E0808181608083E8EDBF
:10405000F0E080818F77808319BCA7EDB0E08C9170
:104060008E7F8C9380818F7E808310923904089597
:104070000F931F93CF93DF930E948F200E9497206E
:10408000C8EDD0E088818F778883888180688883B5
:1040900088818F7D8883E7EDF0E080818068808370
:1040A00019BC10923A0410923604109238041092FF
:1040B000370400EE10E0F80180818B7F80838881D7
:1040C0008160888342E060E080E00E94971FE1EE1B
:1040D000F0E080818E7F8083E2EEF0E0808181607D
:1040E0008083808188608083F80180818E7F8083D7
:1040F000888180618883DF91CF911F910F9108950E
:10410000E8EDF0E080818F7E8083E7EDF0E0808154
:104110008160808381E0809339040C943820E8ED3D
:10412000F0E080818C7F80831092E20008951092ED
:10413000DA001092E10008951F920F920FB60F92CD
:1041400011240BB60F922F933F934F935F936F936E
:104150007F938F939F93AF93BF93EF93FF93809140
:10416000E10082FF0BC08091E20082FF07C08091D6
:10417000E1008B7F8093E1000E941A238091DA0096
:1041800080FF1FC08091D80080FF1BC08091DA00A3
:104190008E7F8093DA008091D90080FF0DC084E18A
:1041A00089BD86E189BD09B400FEFDCF81E0809321
:1041B0003A040E94031D05C019BC10923A040E94E3
:1041C000111D8091E10080FF19C08091E20080FF05
:1041D00015C08091E2008E7F8093E2008091E20022
:1041E00080618093E2008091D80080628093D80043
:1041F00019BC85E080933A040E94151D8091E1006E
:1042000084FF30C08091E20084FF2CC084E189BD2E
:1042100086E189BD09B400FEFDCF8091D8008F7D75
:104220008093D8008091E1008F7E8093E10080919F
:10423000E2008F7E8093E2008091E20081608093B3
:10424000E20080913604882311F084E007C0809159
:10425000E30087FD02C081E001C083E080933A045F
:104260000E94161D8091E10083FF29C08091E20029
:1042700083FF25C08091E100877F8093E10082E089
:1042800080933A04109236048091E1008E7F8093EF
:10429000E1008091E2008E7F8093E2008091E20055
:1042A00080618093E20042E060E080E00E94971F1E
:1042B0008091F00088608093F0000E94141DFF91AF
:1042C000EF91BF91AF919F918F917F916F915F918E
:1042D0004F913F912F910F900BBE0F900FBE0F90FB
:1042E0001F9018951F920F920FB60F9211240BB6C4
:1042F0000F922F933F934F935F936F937F938F937F
:104300009F93AF93BF93CF93DF93EF93FF93C091AE
:10431000E900CF708091EC00D82FD17080FDD0E8FB
:104320001092E9008091F000877F8093F0007894EC
:104330000E94BA211092E9008091F0008860809379
:10434000F000CD2BCF70C093E900FF91EF91DF918A
:10435000CF91BF91AF919F918F917F916F915F911D
:104360004F913F912F910F900BBE0F900FBE0F906A
:104370001F9018951F93CF93DF93CDB7DEB7AA9701
:104380000FB6F894DEBF0FBECDBFEBE3F4E0809133
:10439000F100819324E0E334F207C9F70E94221D63
:1043A0008091E80083FF2EC180913B0490913C04F2
:1043B000492F50E04A30510508F024C1FA01E6596E
:1043C000FF4F0C944A23803821F0823809F01AC13B
:1043D00008C08091370490913804992389F0826055
:1043E0000FC080913F048F70873008F00BC180931D
:1043F000E9008091EB0085FB882780F91092E900A5
:104400009091E800977F9093E8008093F1001092DC
:10441000F100D1C0282F2D7F09F0F4C0882319F0B6
:10442000823061F0EFC080913D04813009F0EAC034
:10443000933009F080E0809338042EC080913D04D1
:1044400081112AC080913F048F702FEF280F2630F2
:1044500008F0D8C08093E9002091EB0020FF1CC039
:10446000933021F48091EB00806214C09091EB00B6
:1044700090619093EB0021E030E0A90102C0440F6D
:10448000551F8A95E2F74093EA001092EA00809166
:10449000EB0088608093EB001092E9008091E800C7
:1044A000877F8093E8000E94CC1FACC08111AAC016
:1044B00010913D041F778091E3008078812B8093D9
:1044C000E3008091E800877F8093E8000E94CC1F82
:1044D0008091E80080FFFCCF8091E30080688093AA
:1044E000E300111102C082E001C083E080933A042E
:1044F00089C08058823008F085C080913D04909139
:104500003E048C3D53E0950779F583E08A838AE287
:1045100089834FB7F894DE01139620E03EE051E224
:10452000E32FF0E050935700E49120FF03C0E295A1
:10453000EF703F5FEF708E2F90E0EA3010F0C7967B
:1045400001C0C0968D939D932F5F243149F74FBFD3
:104550008091E800877F8093E8006AE270E0CE01F6
:1045600001960E94DC1E16C060913F0470914004C9
:10457000AE014F5F5F4F0E94201EBC01892B09F4E2
:1045800041C09091E800977F9093E80089819A81DB
:104590000E94381F8091E8008B778093E80032C03A
:1045A000803881F58091E800877F8093E8008091D2
:1045B00036048093F1008091E8008E7772CF8111EC
:1045C00021C080913D0490913E0499270297D4F434
:1045D0008091E800877F8093E80080913D0480937C
:1045E00036040E94CC1F80913604811106C0809150
:1045F000E30087FD02C081E001C084E080933A04BB
:104600000E94181D8091E80083FF0AC08091E80095
:10461000877F8093E8008091EB0080628093EB00BD
:10462000AA960FB6F894DEBF0FBECDBFDF91CF9133
:104630001F9108950895CF9380913A048823A1F0A3
:10464000C091E900CF709091EC00892F817090FDAE
:1046500080E8C82B1092E9008091E80083FD0E9459
:10466000BA21CF70C093E900CF91089597FB072E30
:1046700016F4009407D077FD09D00E94532307FC5D
:1046800005D03EF4909581959F4F08957095619562
:104690007F4F0895EE0FFF1F0024001C0BBE0790F4
:1046A000F691E02D0994AA1BBB1B51E107C0AA1F7C
:1046B000BB1FA617B70710F0A61BB70B881F991FC3
:1046C0005A95A9F780959095BC01CD010895F99967
:1046D000FECF92BD81BDF89A992780B50895A8E1D3
:1046E000B0E042E050E00C949B23262FF999FECFD6
:1046F00092BD81BDF89A019700B4021639F01FBA35
:1047000020BD0FB6F894FA9AF99A0FBE0895039651
:10471000272F0E9476230E947523252F0E9476233F
:10472000242F0C9476230196272F0E9476230C9435
:104730007523DC01CB01FC01F999FECF06C0F2BD67
:10474000E1BDF89A319600B40D9241505040B8F74F
:064750000895F894FFCF6C
:10475600FF00000000000000000000000000000054
:104766000000000000000000000000000000000043
:104776000000000000000000000000000000000033
:1047860001FFFFFFFFFFFFFFFFFFFFFFFFFFFFFF31
:10479600FFFFFFFF00FFFFFFFFFFFFFFFFFFFFFF22
:1047A600FFFFFFFFFFFFFFFFFFFFFFFFFFFFFFFF13
:1047B600FFFFFFFFFFFFFFFF0F0F0FFFFFFFFFFFD3
:1047C600FFFFFFFF0F0F0FFFFFFFFFFFFFFFFFFFC3
:1047D6000F0F0FFFFFFFFFFFFFFFFFFF0FFFFFFFA3
:1047E600FFFFFFFFFFFFFFFFFFFFFFFFFFFFFFFFD3
:1047F600FFFFFF0F0F0F0FFFFFFFFFFFFFFFFFFF83
:10480600FFFFFFFFFFFFFFFFFFFFFFFFFFFFFFFFB2
:10481600FFFFFF0FFFFFFFFFFFFFFFFF0FFF0F0F62
:104826000FFF0FFFFFFFFFFFFFFFFFFFFFFFFFFF72
:10483600FFFFFFFFFFFF0FFFFFFFFFFFFF0F0F0F42
:104846000FFFFF0FFFFFFFFF0F0F0F0F0FFF0F0FE2
:104856000FFFFFFF0F0F0F0FFFFFFFFFFFFFFFFF12
:10486600FFFFFFFFFFFFFFFFFFFFFFFFFFFFFFFF52
:10487600FFCC032808641E140A321E651CC21CA342
:104886001C9F1C9B1C01E200E900EA00B500B60073
:10489600B700CD008301CC008A0192019401210268
:1048A600230224022502260227022A02B300B400AC
:1048B6006F0070008182839392919037363534333E
:1048C60032313094959697E200E900EA00B500B6D9
:1048D60000B700CD008301CC008A0192019401212A
:1048E60002230224022502260227022A02B300B46A
:0848F600006F00700081828355
:00000001FF
