:100000000C941C020C943B020C943B020C943B029B
:100010000C943B020C943B020C943B020C943B026C
:100020000C943B020C943B020C949D200C94732185
:100030000C94EF180C943B020C943B020C943B0282
:100040000C943B020C943B020C943B020C943B023C
:100050000C943B020C943C190C943B020C943B0214
:100060000C943B020C943B020C943B020C943B021C
:100070000C943B020C943B020C943B020C943B020C
:100080000C943B020C943B020C943B020C943B02FC
:100090000C943B020C943B02660E660E980E980E72
:1000A000E50E030F241024100E0FA30FB40FB40F8E
:1000B0001410241024101D10C410C410D610D61013
:1000C000CD10D610D610D610C410C410D210D61031
:1000D000D610D210E4210B2203230B220323572234
:1000E0007A220323D122E0222B0014001A000800F8
:1000F000150017001C0018000C00120013002A0045
:10010000290004001600070009000A000B000D007A
:100110000E000F0033002800E1001D001B00060048
:100120001900050011001000360037003800346255
:10013000E0000358E300E20001582C422C002C00A0
:100140005000510052004F0035003A003B003C0087
:100150003D003E00010024002500260001000100B2
:1001600001003F0040004100420043002E022100F8
:10017000220023002D00010001004400450046003C
:100180004700480025021E001F00200038002E00F6
:1001900001000100010001000153010001002700DE
:1001A000270037003600290035021E021F022002F8
:1001B00021022202230224022502260227024C00E9
:1001C000010049004A004B000100010050005100AD
:1001D00052004F002D02010001004C004D004E0066
:1001E000010001002F0230022F00300031003102E7
:1001F00001000100010001000100010001000253A3
:100200004A004E004B004D0001000100F000F900D3
:100210000100010001000100010001000100045380
:100220000100F200F100F3000100010001000100F3
:100230000100010001000100010001000100FA00BD
:1002400001000100010001000100010001000100A6
:100250000100035301000100F400F5000100F60065
:10026000AB00AA00A900AE002B00005C1A00080039
:10027000150017001C003A003B003C003D000453F1
:1002800029000400BF5CC05C09000A000B001E00CE
:100290001F00200021000100E1001D00C25CC35CC2
:1002A0001900050011001000360037003800E10089
:1002B000E000E200E300E6002C002C002C002C0003
:1002C0005000510052004F000403300000000E03A4
:1002D0007400650065006E007300790000000A0379
:1002E000720077006B006200000004030904090239
:1002F0003B00020100A032090400000103010100DB
:100300000921110100012240000705810308000AAC
:10031000090401000103000000092111010001226C
:10032000BC000705820320000A1201100100000032
:1003300008EDFE606001000102030105010902A150
:100340000185020901A100050919012905150025EA
:10035000019505750181029501750381010501096A
:100360003009311581257F950275088106093815F8
:1003700081257F950175088106050C0A38021581D3
:10038000257F950175088106C0C005010980A1017E
:10039000850319012AB700150126B70095017510CC
:1003A0008100C0050C0901A101850419012AA002E0
:1003B000150126A002950175108100C005010906EE
:1003C000A1018505050719E029E715002501950814
:1003D000750181020507190029EF1500250195F027
:1003E000750181020508190129059505750191021C
:1003F000950175039101C005010906A101050719C1
:10040000E029E71500250195087501810295017520
:100410000881010507190029FF150026FF00950630
:1004200075088100050819012905950575019102D6
:10043000950175039101C00011241FBECFEFD0E2DA
:10044000DEBFCDBF12E0A0E0B1E0E8E5F7E400E0F8
:100450000BBF02C007900D92A83AB107D9F724E06C
:10046000A8EAB2E001C01D92A334B207E1F70E94EE
:10047000DC1D0C94AA230C940000FC0190E3A0E086
:10048000B1E001900D929A95E1F78091A8029091C8
:10049000A902A091AA02B091AB028F6F9F6FAF6FBC
:1004A0008093A8029093A902A093AA02B093AB02F2
:1004B000089520E3829FC00111248F5C9E4F0C940D
:1004C0003D02EDEAF2E087E090E050E140E231E009
:1004D00020E810821382518354831282158216827F
:1004E00011864783428710861386148617861586E1
:1004F000108A3687318B128A158A238B268B148AB1
:10050000178A01977896009721F781E391E00C9480
:100510003D022F923F924F925F926F927F928F9205
:100520009F92AF92BF92CF92DF92EF92FF920F9382
:100530001F93CF93DF93CDB7DEB7A1970FB6F89493
:10054000DEBF0FBECDBF0091A8021091A90220917D
:10055000AA023091AB0241E050E060E070E0082E6A
:1005600004C0440F551F661F771F0A94D2F74095A9
:1005700050956095709540235123622373234093D7
:10058000A8025093A9026093AA027093AB022CE0D8
:10059000829FD0011124A050BF4F2C912095422F53
:1005A000477050E0BA016F5F7F4F7A83698320778D
:1005B00022952F7030E0A9014F5F5F4F5C834B8322
:1005C00011962C9111972095422F477050E0BA0157
:1005D0006F5F7F4F7E836D83207722952F7030E091
:1005E000A9014F5F5F4F58874F8312962C91129746
:1005F0002095422F477050E0BA016F5F7F4F7A8796
:100600006987207722952F7030E0A9014F5F5F4FF7
:100610005C874B8713962C9113972095422F477038
:1006200050E0BA016F5F7F4F7E876D8720772295FC
:100630002F7030E0A9014F5F5F4F588B4F871496A2
:100640002C9114972095422F477050E0BA016F5FAC
:100650007F4F7A8B698B207722952F7030E0A9012C
:100660004F5F5F4F5C8B4B8B15962C9115972095A8
:10067000422F477050E0BA016F5F7F4F7E8B6D8BCA
:10068000207722952F7030E0A9014F5F5F4F588F80
:100690004F8B16962C9116972095422F477050E05D
:1006A000BA016F5F7F4F7A8F698F207722952F7005
:1006B00030E0A9014F5F5F4F5C8F4B8F17969C9185
:1006C00017979095292F277030E0A9014F5F5F4F52
:1006D0005E8F4D8F9077292E22949FE02922312C16
:1006E0005FEF251A350A18969C9118979095292F37
:1006F0002770422E512C6FEF461A560A9077692EBA
:1007000062942FE06222712C7FEF671A770A1996A4
:100710009C91199790959F8F9770C92ED12C2FEF90
:10072000C21AD20A3F8D307732953F70432F50E086
:100730004F5F5F4F59A348A31A960C911A970095E3
:10074000902F9770A92EB12C6FEFA61AB60A0077DA
:1007500002950F7010E00F5F1F4F1B969C919095B4
:10076000292F2770822E912C7FEF871A970A907776
:10077000E92EE2943FE0E322F12C9FEFE91AF90A17
:1007800026E0829FF0011124E355FD4F20E030E088
:100790002F5F3F4FC9016B817C810E943723482F17
:1007A000C90169817A810E943723882319F08181E8
:1007B000877F02C08181886081838481442311F016
:1007C000877F01C088608483C9016F8178850E941A
:1007D0003723482FC9016D817E810E9437238823EA
:1007E00019F082818D7F02C082818260828385813F
:1007F000442311F08D7F01C082608583C9016B8520
:100800007C850E943723482FC90169857A850E941B
:100810003723882319F081818D7F02C08181826016
:1008200081838481442311F08D7F01C082608483A1
:10083000C9016F8578890E943723482FC9016D85CA
:100840007E850E943723882319F081818E7F02C024
:100850008181816081838481442311F08E7F01C076
:1008600081608483C9016B897C890E943723482F6A
:10087000C90169897A890E943723882319F0808108
:100880008F7702C08081806880838381442311F048
:100890008F7701C080688383C9016F89788D0E943A
:1008A0003723482FC9016D897E890E943723882309
:1008B00019F080818F7B02C0808180648083838176
:1008C000442311F08F7B01C080648383C9016B8D49
:1008D0007C8D0E943723482FC901698D7A8D0E9433
:1008E0003723882319F080818F7D02C08081806248
:1008F00080838381442311F08F7D01C080628383D4
:10090000C901B1010E943723482FC9016D8D7E8D29
:100910000E943723882319F080818F7E02C0808156
:10092000806180838381442311F08F7E01C08061C8
:100930008383C901B3010E943723482FC901B20143
:100940000E943723882319F08081877F02C080812D
:10095000886080838381442311F0877F01C0886091
:100960008383C90168A179A10E943723482FC90157
:10097000B6010E943723882319F080818B7F02C043
:100980008081846080838381442311F08B7F01C048
:1009900084608383C901B8010E943723482FC901AD
:1009A000B5010E943723882319F080818D7F02C012
:1009B0008081826080838381442311F08D7F01C018
:1009C00082608383C901B7010E943723482FC90180
:1009D000B4010E943723882319F080818E7F02C0E2
:1009E0008081816080838381442311F08E7F01C0E8
:1009F0008160838378962730310509F0C9CEA196AE
:100A00000FB6F894DEBF0FBECDBFDF91CF911F911F
:100A10000F91FF90EF90DF90CF90BF90AF909F909D
:100A20008F907F906F905F904F903F902F900895A0
:100A3000CF93DF93D82F8091AC02C82FC17080FD77
:100A400015C0869583704091A8025091A9026091CB
:100A5000AA027091AB02082E04C07695679557954F
:100A600047950A94D2F740FD0E948902AFB7F894E7
:100A700081B380B3E091AC02F0E0CF01880F991F01
:100A8000E80FF91FE355FD4FB08128B157B131810F
:100A90005474832F8B7B582B8EB14DB162814C7F68
:100AA000962F9370492BDD2389F1EB2FC111E0952F
:100AB000732F7B70247FCC2321F0932F90959B7014
:100AC00001C0972F292B962F9270792B7B2B8D7F2E
:100AD000CC2319F0962F90959270892B711101C03B
:100AE0005F74922F9F74232FC11101C02095207B2A
:100AF000292B711101C04E7F982F9E7F6170C1110B
:100B000002C081E06827862F892B06C024745474A4
:100B10008C7F4C7FB0E0E0E0E1BB28B98EB9B0BB80
:100B200057B94DB9AFBF8091AC028F5F883318F4CD
:100B30008093AC0202C01092AC02DF91CF91089575
:100B4000CF93C0913001C0FF04C081E0CF910C94DD
:100B50001805C1FF06C080E00E941805CD7FC09334
:100B60003001CF9108950C9461020C94A005CF92AE
:100B7000DF92EF92FF926B017C0162FD08C0DC0105
:100B8000CB01B695A79597958795817001C082E0B6
:100B9000C3FC83E0C4FC84E00E945902C701B60193
:100BA000FF90EF90DF90CF90089581E0089581E06D
:100BB00008950C94D70508950C94DB051F93CF93EB
:100BC000DF9300D000D01F92CDB7DEB749835A83A0
:100BD0006B8330916B0389819A81311114C0662334
:100BE00059F0222349F00E940016182F682F89819E
:100BF0009A810E94A91503C00E94D415182F6981FB
:100C00007A81812F04C00E94001669817A810F9039
:100C10000F900F900F900F90DF91CF911F910C9438
:100C20009006FC01262F408151816281738184816D
:100C30000C94DE05CF93DF93EC0160E00E94110677
:100C4000BE01DF91CF910C94DC050E943217811117
:100C500002C00E94D2170C94B3050C94B5050895F8
:100C60000C942F0681E008950C943206CF93C82F80
:100C70000E9430068C2F0E943406CF91089508956B
:100C80000E94B2100E943F062FEF84E39CE02150A7
:100C900080409040E1F700C000000C9462190F936F
:100CA0001F93CF93DF93EC0161E00E9411068C014A
:100CB000BE010E94D905882349F1BE01C8010E94E6
:100CC0006C0A882319F1BE01C8010E94BE0A88235C
:100CD000E9F0BE01C8010E94E90B8823B9F08A81BE
:100CE000882369F001158CE5180731F00E3D1C458D
:100CF00031F40E94D2170AC00E94400607C0CE01FC
:100D0000DF91CF911F910F910C94D50580E0DF9179
:100D1000CF911F910F91089580E090E0089508957C
:100D200020E3829FC0011124FC012CE0729FE00DA2
:100D3000F11D1124E60FF11DEE0FFF1FE851FF4FCB
:100D4000859194910895880F991FFC01E853FD4FF8
:100D5000859194910895CF93DF930E9490060E940D
:100D6000C307EC018115904508F041C0C11580E42E
:100D7000D80708F0D1C0C83ED10510F5C03ED10556
:100D800008F0FDC0C83AD10578F4C53AD10508F09D
:100D9000A2C0C130D10509F4F2C008F4EEC0C430DD
:100DA000D10508F0ECC0E9C0CF3BD10508F49BC0E9
:100DB000C03CD10508F4E1C0CE01805C91099EC021
:100DC000C11590E2D90758F4C11521E0D20708F007
:100DD000D6C0C03FD10508F4D0C0D065D0C0C11581
:100DE00080E3D80708F08EC0CE019F7087C0C11580
:100DF00095E5D90708F043C0C11524E5D20708F0EE
:100E0000A2C0C11582E5D80708F5C11591E5D9073B
:100E100008F085C0CE0174E0969587957A95E1F744
:100E200083709C2F937021E030E002C0220F331FAB
:100E30009A95E2F73C68382BCF70C695C69580E24C
:100E4000C89FE0011124C22BD32B99C09E012370AF
:100E500033278C2F86958695C115D34508F064C03D
:100E6000C1E0D0E002C0CC0FDD1F2A95E2F720E2FE
:100E7000829FC0011124C82BD92BDC6880C0C1150A
:100E800029E5D207A0F4C11588E5D80708F060C0AD
:100E9000C11596E5D90708F070C08C2F0E9457083D
:100EA0008F71C82FD0E0DC2FCC27D06268C0C1156D
:100EB0002AE5D20708F451C0CE0190568115904220
:100EC00008F05BC08D2F8F710E945708DD27D0621C
:100ED0008F71D82B54C0C55AD0E0CC59DD4FC88192
:100EE000D0E0D0644CC0C85AD0E0CC0FDD1FCA5C43
:100EF000DD4F0990D881C02DD46441C00E94A30663
:100F0000EC013DC0CE019927D3FF03C0EC01D86CA2
:100F100036C0EC01D06C33C0DF70D06A30C0DC2F3B
:100F2000CC27C16FD06A2BC0C1E0D0E002C0CC0F8B
:100F3000DD1F2A95E2F720E2829FC0011124C82B11
:100F4000D92BDA681CC0DC2FCC27C46FD06A17C03D
:100F5000DC2FCC27C06FD06A12C08C2F8F700E94FC
:100F6000570894E0D695C7959A95E1F7CF70D0E0F1
:100F7000DC2FCC27D069C82B02C0C0E0D0E0CE0166
:100F8000DF91CF9108958238910569F1B0F48133F2
:100F9000910509F46DC048F48932910509F463C0E4
:100FA0008A32910509F469C008958533910509F4E1
:100FB00055C089339105B9F00895833E910569F1D3
:100FC00038F4803E9105B1F0823E910509F1089513
:100FD000863E9105A9F1873E9105B9F1843E9105C0
:100FE00009F064C023C02091340420FD4FC021FDCE
:100FF0004DC008958091340480FD44C08091350433
:1010000080FF44C08091340484FD42C083EE4DC013
:101010008091340482FF38C0F5CF8091340482FD82
:1010200033C08091350480FD31C0ECCF8091350410
:1010300081FF32C08091340484FD2AC087EE35C020
:101040008091340483FF26C0F5CF8091340483FD62
:1010500021C08091350481FD1FC0ECCF8091340404
:1010600085FD1CC01DC08091340485FD19C016C0CB
:101070008091340486FD16C017C08091340486FD2B
:1010800013C010C089E311C082EE0FC080EE0DC006
:1010900080E00BC086EE09C084EE07C089E205C07F
:1010A00085E303C08AE201C081E390E00895909156
:1010B000340492FF0DC0282F2871283019F4877F3F
:1010C000846006C0282F2471243011F48B7F88603F
:1010D00093FF0DC0282F2871283119F4877E846171
:1010E00006C0282F2471243111F48B7E8861209151
:1010F000350420FF0DC0382F3871383019F4877F40
:10110000816006C0382F3171313011F48E7F8860D4
:1011100021FF0DC0282F2871283119F4877E8161A5
:1011200006C0282F2171213111F48E7E886194FD33
:10113000877E0895E82FF0E0EE0FFF1FE85DFB4F7C
:10114000808191810895089580EA8A95F1F7089544
:10115000CF93DF93A3E7B2E047E752E061E070E0AE
:101160008D91E82FE295EF70F0E021A18F70EB01F7
:1011700002C0CC0FDD1F8A95E2F7CE019C2F90951F
:10118000922391A392A1892B82A34A175B0741F76F
:10119000A7E6B2E041E050E08D91E82FE295EF70D4
:1011A000F0E021A18F70BA0102C0660F771F8A9507
:1011B000E2F7CB01962F9095922391A392A1892BD0
:1011C00082A372E0A337B70739F710922104109277
:1011D00020041092290410922804109223041092E3
:1011E000220410922B0410922A04109225041092CB
:1011F000240410922D0410922C04109227041092B3
:10120000260410922F0410922E0484E00E94990963
:10121000DF91CF910C9425066F927F928F929F92CF
:10122000AF92BF92CF92DF92EF92FF920F931F93F4
:10123000CF93DF9383E7C82E82E0D82E00E214E03C
:1012400098E2A92E94E0B92E712C88248394912CD5
:10125000F60181916F01C82FC295CF70D0E099A19E
:101260008F70740101C0EE0C8A95EAF7892F8E29E0
:1012700089A38AA16E2C609486218AA30E94A40867
:10128000E7E6F2E040E050E020E030E06191A62F98
:10129000A295AF70B0E090968C9190E06F7002C014
:1012A000959587956A95E2F780FD08C0C401042EE4
:1012B00002C0880F991F0A94E2F702C080E090E014
:1012C000282B392B4F5F5F4F4C305105F9F689A120
:1012D000682269A28AA1E82AEAA2F80180819181A4
:1012E0002817390721F03183208381E001C080E095
:1012F000782A0E5F1F4FA016B10609F0A9CF272D3F
:1013000044E068E274E080E294E00E949A090E945E
:101310002D06872DDF91CF911F910F91FF90EF90B8
:10132000DF90CF90BF90AF909F908F907F906F9005
:1013300008950895FF920F931F93CF93DF93F82E94
:10134000092F162FD72FC42F222349F081E0809335
:1013500057030E942119909356038093550380915F
:1013600057038823D9F080915503909156030E942A
:101370002D19069798F0EF2DF02FA12FBD2F80E0AB
:1013800090E04C2F50E08417950734F4219131916F
:101390002D933D930196F7CF10925703DF91CF9194
:1013A0001F910F91FF900895AF92BF92CF92DF925D
:1013B000EF92FF920F931F93CF93DF937C015B011A
:1013C000C42FD22FFC0182818823F9F040935A0365
:1013D0000E942119909359038093580380E28C0F47
:1013E000883008F06EC0C77081E001C0880FCA95D0
:1013F000EAF7DF91CF911F910F91FF90EF90DF906F
:10140000CF90BF90AF900C94220E80915A03481356
:1014100035C080915803909159030E942D196C0199
:10142000B701C5010E946B13C816D90638F510E242
:101430001D0FCD17B9F080E28C0F883040F4C770D3
:1014400081E001C0880FCA95EAF70E94290E183082
:1014500058F581E09D2F977001C0880F9A95EAF7A3
:101460000E94220E802F0E940F0E183050F5D77068
:1014700081E001C0880FDA95EAF70AC080E28C0F9C
:101480008830F8F4C77081E001C0880FCA95EAF788
:10149000DF91CF911F910F91FF90EF90DF90CF9050
:1014A000BF90AF900C94290E802FDF91CF911F91A8
:1014B0000F91FF90EF90DF90CF90BF90AF900C9482
:1014C0000F0EDF91CF911F910F91FF90EF90DF9062
:1014D000CF90BF90AF9008950F939C01CB01233F15
:1014E0004CE5340731F188F4283DFCE53F07D9F09D
:1014F000293D4CE5340779F1273D3C45A9F506E245
:1015000021EE41EE67ED7CE52BC0253FFCE53F0772
:10151000E1F0A8F0263F3C4539F507E225EE46EE1E
:1015200066EF7CE51DC007E225EE45EE68ED7CE543
:1015300017C006E221EE40EE63EF7CE511C007E242
:1015400025EE44EE64EF7CE50BC006E221EE42EEB0
:1015500065EF7CE505C008E221E045EE69ED7CE53C
:101560000E94D40980E008C0FC018281882319F020
:1015700010925A0301C081E00F910895CF93DF9339
:10158000EC01FB018281882309F41FC1C230FCE514
:10159000DF0708F41BC1C6319CE5D90738F09E016E
:1015A0002A5F3C452930310508F010C10E944517DB
:1015B0009093350480933404C031ECE5DE0709F4E0
:1015C000C3C008F041C0C8308CE5D80709F49AC000
:1015D000F0F4C430ECE5DE0709F487C068F4C230EB
:1015E0008CE5D80709F477C0C330DC4509F0E3C0C7
:1015F00080913404826076C0C630ECE5DE0709F4E1
:101600006EC008F07BC08091340488606BC0CC3021
:101610008CE5D80709F485C068F4CA30ECE5DE072C
:1016200009F474C008F079C00E94B21080913404AB
:10163000806858C0CE308CE5D80709F476C008F031
:101640007FC0809134048BC0CB3FECE5DE0709F40A
:101650004FC018F5C3318CE5D80709F47DC078F484
:10166000C131ECE5DE0709F473C0C231DC4509F095
:10167000A2C00E94B210809134048F7733C0C5316C
:101680008CE5D80709F472C008F486C0CA3FDC456F
:1016900009F091C0809135043EC0CF3FFCE5DF07E3
:1016A00009F45FC058F4CD3F9CE5D90709F444C064
:1016B00008F43FC08091350482602DC0C130FDE543
:1016C000DF0709F475C008F45DC0C230DD4509F0DC
:1016D00072C080E06EC080913404816003C080914C
:1016E000340480618093340466C08091340411C056
:1016F000809135048260809335045DC0809134040C
:101700008062F0CF809134048064ECCF8091340407
:1017100088608460E7CF8160EECF809134048E7F53
:10172000E1CF809134048D7FDDCF80913404877FB9
:10173000D9CF8091350418C0809135048D7FDBCFDF
:10174000809134048F7ECECF809134048F7DCACFB8
:10175000809134048F7BC6CF80913404877F8B7F48
:10176000C1CF809135048D7F8E7FC5CF80913404A9
:1017700082FB222720F991E0922790FB82F990FBCF
:1017800083F9B0CF80913504982F909591708E7F1A
:10179000892B90FB81F9AFCF0E94B2108091340465
:1017A00087FB222720F991E0922790FB87F99ACFB7
:1017B00081E00E94D41780913404909135040E94F6
:1017C00056170E94B21080E001C081E0DF91CF91F6
:1017D0000895CF93DF9386319C4541F5EB010E943C
:1017E0008116982F8A81209121023091220288232C
:1017F00079F09A7A81E009F480E080935B0391119B
:1018000002C069E201C065E3C9010E946F180AC005
:1018100080915B03811102C069E201C065E3C901E7
:101820000E947A180E94CF1680E001C081E0DF910B
:10183000CF91089590936103809360030895E091A0
:101840006003F0916103309721F00190F081E02D69
:10185000099480E00895E0916003F091610330976E
:1018600099F020913502222359F02091340427FF6A
:1018700007C0DC012C9111962C93119725E02C9335
:101880000280F381E02D09940895E0916003F091C6
:101890006103309739F022E0DC012C930480F5815C
:1018A000E02D0994089520915E0330915F0328177D
:1018B000390771F090935F0380935E03E0916003BA
:1018C000F0916103309721F00680F781E02D0994B3
:1018D000089520915C0330915D032817390771F05A
:1018E00090935D0380935C03E0916003F09161034A
:1018F000309721F00084F185E02D0994089585B793
:10190000806885BF85B7806885BF089508950C9469
:10191000860C0C94870C0C94860C0C94860C0E94FC
:101920007F0C0E948B0C0C94890C81E008950C9420
:10193000950C0E9418190E94A8080E9494190C94F2
:101940008D0C7F928F929F92AF92BF92CF92DF9237
:10195000EF92FF920F931F93CF93DF93CDB7DEB734
:101960002A970FB6F894DEBF0FBECDBF0E940C09B8
:101970000E94970C811111C08FEF89838A831B828B
:101980000E9421198160782F9D838C8349815A811F
:101990006B818D810E94510D4FC043E6A42E43E020
:1019A000B42E00E010E0702E802F0E949A086C0187
:1019B000F501819091905F01882699268114910408
:1019C00031F40F5F1F4F0430110569F7D5CF8091B7
:1019D000EF0381FD0E94A30880E0EE24E394F12C44
:1019E00094012E213F21232B09F18E837F82CE206B
:1019F000DF2081E0CD2809F480E088870E9421194A
:101A00008160782F9A8789874E815F8168858A8572
:101A10000E94510D000F111FF801ED59FC4F8081FC
:101A20009181E826F926F182E08206C08F5FEE0CF4
:101A3000FF1C8C30A9F6C5CF0E94431B0E941F0CCF
:101A4000909162038917C9F00E941F0C8093620372
:101A50002A960FB6F894DEBF0FBECDBFDF91CF91AF
:101A60001F910F91FF90EF90DF90CF90BF90AF90BC
:101A70009F908F907F900C9436062A960FB6F8941C
:101A8000DEBF0FBECDBFDF91CF911F910F91FF90B1
:101A9000EF90DF90CF90BF90AF909F908F907F900E
:101AA0000895CF93DF93CDB7DEB72B970FB6F89499
:101AB000DEBF0FBECDBF4F83588769877A878B877C
:101AC000DE01119686E0FD0111928A95E9F785E025
:101AD000FE01379601900D928A95E1F749815A816E
:101AE0006B817C818D819E810E946E132B960FB637
:101AF000F894DEBF0FBECDBFDF91CF910895FC01FA
:101B0000808191810E9442160895CF93882309F421
:101B100050C0C82F8CEF8C0F813AD0F46C2F80917D
:101B20002102909122020E94EF17882349F06C2F26
:101B300080912102909122020E947A180E94CF1671
:101B40006C2F80912102909122020E946F180CC08C
:101B500080E28C0F883058F4C77081E001C0880F94
:101B6000CA95EAF70E948416CF910C94CF16EBE544
:101B7000EC0FE33040F4F0E0EB55FD4F808190E056
:101B8000CF910C94530CE8E5EC0FE73150F4F0E002
:101B9000EE0FFF1FE958FD4F80819181CF910C948A
:101BA000690CC03F30F08C2F0E94381ACF910C94F2
:101BB000251BCF910895882389F19CEF980F913AC6
:101BC00040F4682F80912102909122020E947A189D
:101BD0000DC090E2980F983058F4877091E001C0E2
:101BE000990F8A95EAF7892F0E948A160C94CF16CE
:101BF0009BE5980F933020F480E090E00C94530C18
:101C000098E5980F973120F480E090E00C94690CEF
:101C1000803F20F00E94A01A0C94251B0895CF93BA
:101C2000C82F0E94850DC93349F42FEF87EE93E04A
:101C3000215080409040E1F700C000008C2FCF91F0
:101C40000C94DB0D882321F00E9484160C94CF168F
:101C50000895882321F00E948A160C94CF160895C7
:101C6000CF92DF92EF92FF920F931F93CF93DF9368
:101C70007C01062FC72FFC01158112951F70D281A0
:101C8000D1110E94A1160E947A16882399F0DD23B3
:101C900089F08C2F807F803421F080E2800F8830A3
:101CA00048F082E00E9419170E947A1691E0D82E1F
:101CB000D92601C0D12CCC2EC2948FE0C8228C2D05
:101CC00090E0FC01E45BFF4F0C944B238C2F807F52
:101CD000CF70882311F0C295C07FDD2399F0CC230B
:101CE00009F48DC180E2800F883010F0011104C02A
:101CF0008C2F0E94841603C08C2F0E9494160E9481
:101D0000CF167DC1802F0E94DB0DCC2309F49CC12E
:101D100080E2800F883010F0011104C08C2F0E94E7
:101D20008A1603C08C2F0E949A160E94CF168CC16F
:101D30008C2F807FCF70803211F0C295C07F00233E
:101D400019F00130C9F022C0DD2371F0112341F0F8
:101D5000113031F40E94B4168C2B0E94BC1674C151
:101D60000E94B4168C2B1DC0112319F0113009F4F8
:101D70006BC10E94C51625C0DD2321F0163008F086
:101D800063C10EC0153008F05FC11BC0DD2361F0D8
:101D9000112331F0F701858180FF31C18F70858378
:101DA0008C2F0E94220E50C1112359F0093309F0E3
:101DB00037C1FFEF27EE83E0F15020408040E1F78C
:101DC0002DC18C2F0E94290E3FC18C2F86958695A0
:101DD000837019F0813061F037C1DD2321F0802F4D
:101DE0009C2F937002C080E090E00E94530C34C19D
:101DF000DD2321F0802F9C2F937002C080E090E0C3
:101E00000E94690C29C1802FDD2319F00E94381A25
:101E100002C00E94A01A0E94251B1EC18C2F837035
:101E200009F045C0D11114C1402F42954695477025
:101E3000440F440F602F6F70862F90E0A0E0B0E059
:101E4000042E04C0880F991FAA1FBB1F0A94D2F743
:101E500004FF10C00FE010E020E030E004C0000FED
:101E6000111F221F331F4A95D2F700951095209518
:101E7000309503C000E010E09801C695C695C37088
:101E8000BC01CD01602B712B822B932BC23049F00A
:101E900058F4C13019F00E94BF14DAC00E94AD148A
:101EA000D7C00E94D114D4C00E94AB14D1C0DD238E
:101EB00019F08C2F817001C08695882309F4C8C061
:101EC000402F429546954770440F440F602F6F7026
:101ED000862F90E0A0E0B0E0042E04C0880F991F88
:101EE000AA1FBB1F0A94D2F704FF10C00FE010E036
:101EF00020E030E004C0000F111F221F331F4A955D
:101F0000D2F7009510952095309503C000E010E0C1
:101F10009801C695C695C370BC01CD01602B712B8D
:101F2000822B932BC23049F058F4C13019F00E9433
:101F300084158EC00E9472158BC00E94961588C0B1
:101F40000E94E51485C0CF70DD2339F08C2F0E94EC
:101F50000B15802F0E94220E7BC0802F0E94290E1D
:101F60008C2F0E942C1574C0023F01F128F4003F11
:101F700041F0013FA1F03FC0033FF9F0043F39F1C8
:101F80003AC0DD2341F0153008F05EC08C2F8F7110
:101F90000E94511559C0163008F056C0F7CFDD2306
:101FA00039F08C2F8F710E940B154EC0DD23C9F3C1
:101FB0008C2F8F710E942C1547C0DD2329F08C2FA8
:101FC0008F710E94F61440C00E94F1143DC0DD23C1
:101FD00049F0CF718C2F0E940B1563E08C2F0E946B
:101FE000041732C081E00E941917123068F182E0B4
:101FF0000E94191729C0DD2331F0112391F2802F9F
:102000000E94850D21C0112399F2093349F49FEFF5
:10201000E7EEF3E09150E040F040E1F700C000004F
:10202000802F0E94DB0D10C04C2F4F70602FC70116
:102030000E948C060E941C140FC04C2F4F70602F02
:10204000C7010E948F0608C088EF8C0D843020F4F1
:102050000E941F0C0E943606DD20C9F00E947616F1
:1020600080FD15C0F70112820E9470160E940B15A8
:10207000C7010E9468100E947016DF91CF911F91D6
:102080000F91FF90EF90DF90CF900C942C15DF9183
:10209000CF911F910F91FF90EF90DF90CF90089517
:1020A0000F931F93CF93DF93EC01688179818A812D
:1020B0000E944D168C010E94A8150E949914B80127
:1020C000CE010E94300EDF91CF911F910F910895A4
:1020D000CF93DF93EC01988189812B813C81232B65
:1020E00031F08F3F31F481E09F3F19F403C081E06C
:1020F00001C080E080FD19C0CE010E944F06811111
:102100000CC00E947A16882381F08A81882369F0A6
:1021100082E0DF91CF910C941917CE010E945010EC
:10212000CE01DF91CF910C941A06DF91CF910895E3
:102130000E94A1160E94B1160E94CF160E94561C42
:102140000E94251B80E090E00E94530C80E090E00C
:102150000C94690C80912102909122020E948518B2
:102160000C9498100E9491160C94AA10E92FE295F5
:10217000EF704E2F50E0FA013297EE30F105B0F4D7
:10218000E45AFF4F0C944B23803F91F018F4883EA3
:1021900068F40EC0843F51F40BC0883E48F0813F84
:1021A00029F406C093FB882780F9089580E00895FC
:1021B00081E008950E9442160E94B6100895CF93C0
:1021C000DF9300D000D01F92CDB7DEB70F900F90F5
:1021D0000F900F900F90DF91CF910895CF93DF93E1
:1021E00000D000D000D0CDB7DEB726960FB6F89459
:1021F000DEBF0FBECDBFDF91CF9108951F93CF9368
:10220000DF93C0916C0316E080916D03C81799F0BD
:10221000D0E01C9FF0011D9FF00D1124E259FC4FEE
:102220004081518162817381848195810E94EE1089
:102230002196C770E9CFDF91CF911F91089540910A
:102240009E0350919F036091A0037091A103809120
:10225000A2039091A3030C94EE100F931F93CF93BE
:10226000DF938091A30382958F7009F05DC0809108
:10227000A003882309F458C080916C0310916D036A
:1022800060919E0370919F03C091A103D091A2031E
:1022900091E06F3F09F090E0292F06E0811709F4E3
:1022A00043C0209721F07F3F21F030E003C031E0B0
:1022B00001C0322F90E030FD34C0089FF001099F2B
:1022C000F00D1124DF01A259BC4F11963C911197DA
:1022D000371327C03C91361324C012963C911297B5
:1022E00031111FC013964D915C9114974C1B5D0BDF
:1022F000483C5105B0F48091A3038F7080618093B6
:10230000A303ED58FC4F80818F70806180838EE93C
:1023100093E00E946810DF91CF911F910F910C9470
:10232000FE1001968770BACFDF91CF911F910F9168
:1023300008959F92AF92BF92CF92DF92EF92FF9259
:102340000F931F93CF93DF93CDB7DEB761970FB68F
:10235000F894DEBF0FBECDBF8C0185E0F801DE0131
:102360001D9601900D928A95E1F7F8014081518107
:10237000E28090919E0360919F032091A103309190
:10238000A2032115310531F06F3F31F481E09F3F09
:1023900019F403C081E001C080E0F82FF1709F2E96
:1023A00080FD46C1F801A380B4808EE9C82E83E089
:1023B000D82EF090A003F501E21BF30BFF2009F4E7
:1023C000DFC08091A303E83CF10508F09BC0282FF3
:1023D000207F09F052C0561313C0491311C0FE2CC0
:1023E000E1100EC08F7080618093A3030E941F11C3
:1023F000C6010E9468108091A303F801858358C12B
:10240000AB2831F05F3F31F481E04F3F19F403C056
:1024100081E001C080E080FD03C081E08E2502C024
:1024200080E090E0F82FF170FF2E80FF1CC08091BB
:102430006C0320916D0336E0821709F417C190E018
:10244000389FF001399FF00D1124E259FC4F618152
:10245000561306C06081461303C06281E61203C0B2
:1024600001968770E9CFFE2CEE2009F421C18091FE
:10247000A30381608093A3035AC0561306C0491377
:1024800004C0E11002C0F8019FC04D875E878D85B2
:102490009E850E94DA10882379F1EE2069F120915F
:1024A000A303822F82958F7090E0029774F0809141
:1024B0009E0390919F0398878F831986BB86AA8677
:1024C0002C87CE0107960E94681086E0F801AEE9DD
:1024D000B3E001900D928A95E1F70E942D110E94C0
:1024E0001F110DC0561729F14D875E878D859E857A
:1024F0000E94DA1081112CC0C8010E946810FF24CC
:10250000F394D6C0282F207F69F77A2DB98AA88A3C
:102510006E2D89890E94DF108EE993E00E94681079
:1025200086E0F60111928A95E9F70E941F11F12CBD
:10253000BFC04913D9CFE110D7CFF8018583C801B7
:102540000E94681086E0F60111928A95E9F7B0C002
:10255000EE2091F22091A303822F82958F7090E05C
:1025600002970CF4B2CF80919E0390919F039A83BF
:1025700089831B82BD82AC822E83CE010196A3CFBC
:10258000E83CF10508F047C0FE2CEE2009F4B4CF7A
:10259000561330C049132EC02091A30320FD21C043
:1025A000822F82958F70482F50E041155105C9F058
:1025B000F80125834F30510541F08F5F982F929598
:1025C000907F822F8F70892B8583C8010E946810AD
:1025D00086E0F801AEE9B3E001900D928A95E1F74B
:1025E00042C086E0F801AEE9B3E001900D928A9511
:1025F000E1F75EC04D875E878D859E850E94DA106B
:10260000811163CF8091A30381608093A303C801EC
:102610000E9468104DC07A2DB98AA88A6E2D8989CA
:102620000E94DF1086E0F60111928A95E9F71BC03F
:10263000EE2009F461CF4D875E878D859E850E94CF
:10264000DA10F82E882309F457CF86E0F801AEE9B6
:10265000B3E001900D928A95E1F78EE993E00E9434
:102660007F0D0E942D110E941F1122C04D875E8791
:102670008D859E850E944216292F22952F7022302B
:1026800028F49F7039F0811105C00BC0243028F464
:102690009F7049F4805E883020F0C8010E94681065
:1026A0009F2CF92C05C0F8019581907F99F7F9CFFF
:1026B0008F2D61960FB6F894DEBF0FBECDBFDF91B0
:1026C000CF911F910F91FF90EF90DF90CF90BF902F
:1026D000AF909F90089588EC90E008951F93CF935A
:1026E000DF93CDB7DEB72C970FB6F894DEBF0FBEE1
:1026F000CDBF4F83588769877A878B879C87CE01A8
:1027000007960E9499118823D1F09F8188852A8598
:102710003B85232B31F08F3F31F481E09F3F19F44B
:1027200003C081E001C080E080FD47C04F81588533
:1027300069857A858B859C850E94EE103EC086E077
:10274000FE013796DE01119601900D928A95E1F710
:10275000FF81E8856A857B856115710531F0EF3F62
:1027600031F481E0FF3F19F403C081E001C080E053
:1027700080FD23C020916D0330E0C9010196877070
:10278000992740916C0350E084179507F1F1F98384
:10279000EA837D836C8396E0929FD001939FB00D76
:1027A0001124A259BC4FFE01319601900D929A95C9
:1027B000E1F780936D030E94FE1016E080916C0398
:1027C00090916D03891771F1189FC00111248259EE
:1027D0009C4F0E949911882329F1E0916C031E9F60
:1027E000F0011124E259FC4F4081518162817381D3
:1027F000848195810E94EE1080916C0390E0019697
:102800008770992780936C03D9CF0E94B2101092E1
:102810006D0310926C03EEE9F3E086E0DF011D9298
:102820008A95E9F72C960FB6F894DEBF0FBECDBFA0
:10283000DF91CF911F910895EF92FF920F931F9315
:10284000CF93DF938C01892B09F46CC0F12CEE241B
:10285000E394E8012196F8018491843740F48430B0
:1028600008F051C0813081F0823019F15BC08537AA
:1028700009F444C0A8F19CE7980F903708F052C0C3
:102880008F770E94DB0D41C00E5F1F4FFE018491C8
:1028900090E2980F983050F48770FE2D01C0FF0F22
:1028A0008A95EAF78F2F0E94A41614C00E94850D06
:1028B0002DC00E5F1F4FFE01849190E2980F98305B
:1028C00060F48770FE2D01C0FF0F8A95EAF78F2F05
:1028D0000E94AA160E94CF1619C00E94DB0D16C0D6
:1028E0000E5F1F4FFE01C491CC2381F08FE99FE062
:1028F0000197F1F700C00000C150F6CF0E5F1F4FE7
:10290000FE01F49003C00E94850D8E018F2D882357
:1029100009F49FCFEFE9FFE03197F1F700C0000025
:102920008150F5CFDF91CF911F910F91FF90EF90E4
:102930000895089508950C949A140C949B140E9481
:102940009D146093C6037093C7038093C80390934C
:10295000C9030C9498100C949F140F931F9300912B
:10296000C6031091C7032091C8033091C903602B9F
:10297000712B822B932B1F910F910C949F140F930B
:102980001F930091C6031091C7032091C803309193
:10299000C90360237123822393231F910F910C9409
:1029A0009F140F931F930091C6031091C7032091AA
:1029B000C8033091C90360277127822793271F918D
:1029C0000F910C949F140C94B7050E94E31460932C
:1029D000C2037093C3038093C4039093C5030C9404
:1029E000981060E070E0CB010C94E5140F931F93F6
:1029F00041E050E060E070E08A019B0104C0000FFC
:102A0000111F221F331F8A95D2F7C901B8011F91E8
:102A10000F910C94E5140F931F9341E050E060E098
:102A200070E004C0440F551F661F771F8A95D2F7C8
:102A30008091C2039091C303A091C403B091C503D8
:102A40008A019B01082B192B2A2B3B2BC901B801AA
:102A50001F910F910C94E5140F931F9341E050E0E8
:102A600060E070E004C0440F551F661F771F8A9511
:102A7000D2F740955095609570958091C2039091E2
:102A8000C303A091C403B091C5038A019B0108232D
:102A900019232A233B23C901B8011F910F910C94DC
:102AA000E5140F931F9341E050E060E070E004C034
:102AB000440F551F661F771F8A95D2F78091C20376
:102AC0009091C303A091C403B091C5038A019B01F7
:102AD000082719272A273B27C901B8011F910F9101
:102AE0000C94E5140F931F930091C2031091C3033C
:102AF0002091C4033091C503602B712B822B932B43
:102B00001F910F910C94E5140F931F930091C20332
:102B10001091C3032091C4033091C5036023712336
:102B2000822393231F910F910C94E5140F931F930D
:102B30000091C2031091C3032091C4033091C503D7
:102B400060277127822793271F910F910C94E5141A
:102B500008952CE0929F800D1124E82FE695E695CC
:102B6000E695877051E001C0550F8A95EAF785E038
:102B7000E89FF0011124EC55FC4F20E030E070E0BC
:102B80004081CB01022E02C0969587950A94E2F708
:102B90008170819584278523842781932F5F3F4F00
:102BA0002530310569F708952CE0929F800D11249E
:102BB000682F669566956695982F977085E0689F53
:102BC000B001112440E050E080E0FB01E40FF51F6C
:102BD000EC55FC4F208130E0092E02C03695279538
:102BE0000A94E2F721703327042E01C0220F0A94C1
:102BF000EAF7822B4F5F5F4F4530510531F708955B
:102C0000BF92CF92DF92EF92FF920F931F93CF93D9
:102C1000DF938C01C090C203D090C303E090C40343
:102C2000F090C5038091C6039091C703A091C8039B
:102C3000B091C903C82AD92AEA2AFB2ACFE1D0E0F9
:102C4000D701C6010C2E04C0B695A7959795879518
:102C50000A94D2F780FD04C0219790F7B12C07C0E9
:102C6000BC2EB8018C2F0E94AB060197A9F38B2DC7
:102C7000DF91CF911F910F91FF90EF90DF90CF9058
:102C8000BF900895CF93DF93EC010E940016BE0120
:102C90000E94AB06DF91CF9108951F93CF93DF93EE
:102CA000EB0190916B03992321F0CB010E94421616
:102CB00013C0882349F0CB010E940016182F682FFB
:102CC000CE010E94A91504C0CB010E94D415182F73
:102CD000BE01812F0E94AB06DF91CF911F91089515
:102CE0008091CA0385958595859508958091CA033D
:102CF000877008959091CA03977081E009F480E08D
:102D000008958091EE0308959091EE03892B8093AE
:102D1000EE03089580959091EE0389238093EE034E
:102D200008951092EE0308959091ED03892B8093FE
:102D3000ED03089580959091ED0389238093ED0331
:102D400008951092ED0308959091EC03892B8093E0
:102D5000EC03089580959091EC0389238093EC0314
:102D600008951092EC0308958091CB03089508957F
:102D70000C94B7160C94B8169091CB03981721F0C9
:102D80008093CB030C94BA1608958091CB038823CB
:102D900029F01092CB0380E00C94BA160895E091CC
:102DA0002102F09122028091EE038083E0912102C2
:102DB000F091220290818091ED03892B8083E09134
:102DC0002102F091220290818091EC03892B808373
:102DD0008091CB03882381F0E0912102F0912202BF
:102DE0009081892B808380912102909122020E9400
:102DF000D91781110E94C51680912102909122025B
:102E00000C942B0C0C94B71698E0899F9001112418
:102E1000262B2093CA030E940B158091CA03859527
:102E2000859585950C9402171092CA0380E00C9446
:102E300002172091CA03809582238093CA03982F9A
:102E4000977079F430E0482F082E000C550B2417AA
:102E5000350739F08595859585950E942C150C943C
:102E60001417089580E090E00E94702321E08C3ECA
:102E70009E4F09F020E0822F089582E090E00C94AC
:102E8000682383E090E00C946823CF9384E090E083
:102E90000E946823C82F81E290E00E9468232C2FB3
:102EA00030E0A901582BCA01CF910895CF93C92FC3
:102EB000682F84E090E00E9476236C2F81E290E0FE
:102EC000CF910C947623AB01BC018FE090E00C9481
:102ED0008823AB01BC0183E190E00C94882360E07F
:102EE00070E0CB010C94691760E070E0CB010E94A8
:102EF00063170C946F176CEE7EEF80E090E00E94F9
:102F0000942360E082E090E00E94762360E083E01A
:102F100090E00E9476231092C6031092C70310928D
:102F2000C8031092C90360E084E090E00E94762319
:102F300060E081E290E00E94762360E085E090E02E
:102F40000E94762360E086E090E00E9476236FEF97
:102F500087E090E00E94762340E050E0BA0188E0EC
:102F600090E00E94882360E08DE090E00E9476234C
:102F700040E050E0BA0188E190E00E94882360E0E0
:102F800087E190E00E94762340E050E0BA018CE1B6
:102F900090E00E94882360E080E290E00E94762327
:102FA0000C9474170C947B17682F8EE090E00C94AF
:102FB0007623FC01329680913502882331F080918E
:102FC000340487FF02C09EE101C096E080E091508A
:102FD00028F021912223D9F38F5FF9CF089566233A
:102FE00051F1209135022223E9F02091340427FF8A
:102FF00019C0462F4695469546954E31E0F46770C8
:1030000021E030E002C0220F331F6A95E2F7FC0195
:10301000E40FF11D828190E02823392381E0232BE6
:1030200069F409C0FC01329608962191621729F0D3
:10303000E817F907D1F780E0089581E008959C0131
:10304000FC0132969FEF80E04191461789F09F3F47
:1030500019F4411101C0982F8F5F8630A9F79F3F67
:1030600039F0F901E90FF11D97FDFA956283089592
:1030700008959C012A5F3F4FFC014281461301C025
:103080001282019682179307B9F70895262F269585
:10309000269526952E3168F4FC01E20FF11D67702C
:1030A00021E030E001C0220F6A95EAF78281282BE7
:1030B00022830895262F2695269526952E3170F485
:1030C000FC01E20FF11D677021E030E001C0220F2A
:1030D0006A95EAF72095828128232283089520911A
:1030E0003502222329F02091340427FD0C94461840
:1030F0000C941F1820913502222329F020913404CA
:1031000027FD0C945A180C94391820913502FC01B3
:103110003296222331F08091340487FF02C08EE181
:1031200001C086E0DF011D928A95E9F708950895B0
:103130000C9497180C949718CF930E949A180E9499
:103140000C090E949818C0E08C2F0E949A08892BC5
:1031500029F4CF5FC430C1F780E001C081E0CF9196
:1031600008950C9497180C94B1180E94B31880918C
:103170003A04843049F11092F00320E488E190E0B1
:103180000FB6F894A895809360000FBE209360005E
:1031900080E00E9436060E94B31883B7817F846066
:1031A00083BF83B7816083BF7894889583B78E7F10
:1031B00083BF0FB6F894A8958091600088618093D2
:1031C0006000109260000FBE08950C9497180E9442
:1031D000B2100E941F0C0E9436060C94E5181F9234
:1031E0000F920FB60F9211248F939F93AF93BF93BB
:1031F0008091F003811113C08091300490913104CB
:10320000A0913204B09133044196A11DB11D809369
:10321000300490933104A0933204B0933304BF91EF
:10322000AF919F918F910F900FBE0F901F901895A7
:1032300082E084BD93E095BD9AEF97BD80936E00C8
:1032400008952FB7F8948091300490913104A091A3
:103250003204B09133042FBF08959C014FB7F89406
:103260008091300490913104A0913204B0913304E4
:103270004FBF821B930B089578941F920F920FB645
:103280000F9211248F939F93AF93BF93809130043B
:1032900090913104A0913204B09133040196A11DA4
:1032A000B11D8093300490933104A0933204B09305
:1032B0003304BF91AF919F918F910F900FBE0F90EC
:1032C0001F901895F89481E08093E00080E280934D
:1032D000D800E9ECF0E010828FE19EE40197F1F76D
:1032E00000C000001DBA109268001CBC10BE1FBABE
:1032F00010927A0010926E0010926F00109270007F
:103300001092710010821092BC0011B814B817B856
:103310001AB81DB810BA12B815B818B81BB81EB82C
:1033200011BA0C9400FE08950E943217811102C058
:103330000E94D2170E943D178093EF030E94451709
:1033400090933504809334040E944117682F70E0F5
:1033500080E090E00E94AB146091C2037091C303BF
:103360008091C4039091C5030C94E3148091F703FA
:1033700080FF0BC06091280285E0689FB001112496
:1033800075956795759567952BC081FF09C060910C
:10339000280285E0689FB00111247595679520C0CB
:1033A00082FF07C06091280285E0689FB001112468
:1033B00017C09091F6039923D1F0609127029617D8
:1033C00088F72091280285E0289F90011124929F80
:1033D000A001939F500D112470E0CA010E94372371
:1033E0006038710540F46115710519F406C065E097
:1033F00070E0862F08958FE7089581E00895809109
:10340000F70380FF08C06091240270E0759567950E
:103410007595679521C081FF06C06091240270E018
:103420007595679519C082FF04C06091240270E011
:1034300010C09091F503992399F06091230296179B
:10344000A0F780912402899FC001112470E00E949E
:1034500037236038710540F46115710519F406C011
:1034600061E070E0862F08958FE7089581E0089568
:10347000803F21F40E94B619819504C0813F29F450
:103480000E94B6198093FB030895823F21F40E94A5
:10349000B619819504C0833F29F40E94B619809320
:1034A000FA030895893F19F40E94FF1905C08A3F65
:1034B00031F40E94FF1981958093FC0308958B3F9E
:1034C00021F40E94FF19819504C08C3F29F40E94C9
:1034D000FF198093FD030895843F21F48091F9033F
:1034E000816017C0853F21F48091F903826011C08B
:1034F000863F21F48091F90384600BC0873F21F45B
:103500008091F903886005C0883F31F48091F90308
:1035100080618093F90308958D3F21F48091F70332
:1035200081600BC08E3F21F48091F703826005C05B
:103530008F3F29F48091F70384608093F703089507
:10354000803F39F48091FB0387FF6AC01092FB0330
:1035500067C0813F29F48091FB031816BCF360C05B
:103560009091FA03823F29F497FF5AC01092FA0310
:1035700057C0833F19F41916CCF352C09091FC0345
:10358000893F31F419160CF04BC01092FC0348C06F
:103590008A3F19F497FF44C0F8CF8B3F39F48091EC
:1035A000FD0387FF3DC01092FD033AC08C3F29F414
:1035B0008091FD031816BCF333C0843F21F4809141
:1035C000F9038E7F17C0853F21F48091F9038D7F29
:1035D00011C0863F21F48091F9038B7F0BC0873F98
:1035E00021F48091F903877F05C0883F31F48091F1
:1035F000F9038F7E8093F90313C08D3F21F48091EE
:10360000F7038E7F0BC08E3F21F48091F7038D7FEF
:1036100005C08F3F29F48091F7038B7F8093F703D8
:103620008091FA03811106C08091FB03811102C0D1
:103630001092F6038091FC03811106C08091FD0376
:10364000811102C01092F50308950E942119209162
:10365000FA03211104C02091FB03222321F090934F
:10366000F4038093F3032091FC03211104C0209103
:10367000FD03222321F09093F2038093F10388EF5E
:1036800093E00C94450CEF92FF920F931F93CF930E
:10369000DF9300D000D000D0CDB7DEB786E0E8EFF2
:1036A000F3E0DE01119601900D928A95E1F7E0902A
:1036B000FA03F090FB030091FC031091FD031092BC
:1036C000FA031092FB031092FC031092FD03E11029
:1036D00003C0FF2009F45DC08091F3039091F403CF
:1036E0000E942D19AC019091F603992339F0209195
:1036F000290230E02417350758F04BC020912A02E8
:103700008AE0289F900111242417350718F041C042
:103710009F3F19F09F5F9093F603EE2061F00E94A7
:10372000B6191E1414F09FEF01C091E0989F902DE0
:1037300011249093FA03FF2061F00E94B6191F1420
:1037400014F09FEF01C091E0989F902D1124909369
:10375000FB033091FA033323E1F02091FB03222392
:10376000C1F045EB3403C0011124992319F0909363
:10377000FA0303C081E08093FA0335EB2303C00111
:103780001124992319F09093FB0303C081E08093E7
:10379000FB03011103C0112309F45DC08091F10303
:1037A0009091F2030E942D19AC019091F503992399
:1037B00039F02091250230E02417350758F04BC02E
:1037C000209126028AE0289F9001112424173507B2
:1037D00018F041C09F3F19F09F5F9093F5030023BD
:1037E00061F00E94FF19101614F09FEF01C091E0E4
:1037F000989F902D11249093FC03112361F00E9457
:10380000FF19111614F09FEF01C091E0989F902DC1
:1038100011249093FD033091FC033323E1F02091B8
:10382000FD032223C1F045EB3403C0011124992389
:1038300019F09093FC0303C081E08093FC0335EB07
:103840002303C0011124992319F09093FD0303C0B1
:1038500081E08093FD038091FA0381110BC0809178
:10386000FB03811107C08091FC03811103C080918B
:10387000FD0381110E94251BEB82FC820D831E83B8
:1038800086E0FE013196A8EFB3E001900D928A9593
:10389000E1F726960FB6F894DEBF0FBECDBFDF91DD
:1038A000CF911F910F91FF90EF900895E8EFF3E013
:1038B00086E0DF011D928A95E9F71092F6031092D7
:1038C000F5031092F703089580911E040895CF9395
:1038D000DF9300D01F92CDB7DEB790913A049430B9
:1038E00019F589837B836A8382E08093E9008FEFF7
:1038F0009091E800815095FD06C095ED9A95F1F7FD
:1039000000008111F5CF8091E80085FF0DC040E0F7
:1039100050E063E070E0CE0101960E94921E80911B
:10392000E8008E778093E8000F900F900F90DF9162
:10393000CF910895BC0184E00C94671CBC0183E026
:103940000C94671C22E02093E9002FEF3091E800EF
:10395000215035FD06C035ED3A95F1F700002111F3
:10396000F5CF2091E80025FF0BC040E050E066E075
:1039700070E00E94921E8091E8008E778093E800AC
:103980000895CF93DF9320913502222339F02091BF
:10399000340427FF03C060E222E002C068E021E0B7
:1039A0002093E9002FEF3091E800215035FD06C04B
:1039B00035ED3A95F1F700002111F5CF2091E8009F
:1039C00025FF1DC0EC0180913502811105C040E04A
:1039D00050E068E070E003C070E040E050E0CE01ED
:1039E0000E94921E8091E8008E778093E80080E22A
:1039F000FE01AEEFB3E001900D928A95E1F7DF9101
:103A0000CF91089580913904811109C00E941F202F
:103A10000E9481208091E20084608093E2000895FA
:103A2000109239040895089508950C94E71842E01F
:103A300061EC81E00E94981F42E261EC82E00C940C
:103A4000981F80913C04833009F45EC030F48130CB
:103A500071F0823009F497C008958A3009F483C068
:103A60008B3009F469C0893009F0A5C020C080916D
:103A70003B04813A09F09FC08091E800877F8093E2
:103A8000E80080913F0490914004892B21F460E28A
:103A90008EEF93E003C060E080E090E070E00E9471
:103AA000DD1E8091E8008B778093E8000895809177
:103AB0003B04813209F07FC080913F049091400423
:103AC000029708F078C08091E800877F8093E80033
:103AD0008091E80082FD05C080913A048111F8CF01
:103AE0006AC08091F2009091F300029729F48091CE
:103AF000F1008B7F813021F48091F10080931E04CE
:103B00008091E8008B7753C080913B04813A09F0A3
:103B100052C080913F0490914004892B09F04BC022
:103B20008091E800877F8093E8008091E80080FF23
:103B3000FCCF8091350236C080913B048132D9F5AB
:103B400080913F0490914004892BA9F58091E80071
:103B5000877F8093E8000E94CD1F80913D04809371
:103B600035020C94B21080913B04813221F5809192
:103B7000E800877F8093E8000E94CD1F80913E047B
:103B800080931F04089580913B04813AA1F48091B1
:103B9000E800877F8093E8008091E80080FFFCCFF9
:103BA00080911F048093F1008091E8008E778093CC
:103BB000E8000C94CD1F089584B7877F84BF0FB6AB
:103BC000F894A895809160008861809360001092BD
:103BD00060000FBE90E080E80FB6F894809361001B
:103BE000909361000FBE0E948F0C0E941F200E94C4
:103BF00081208091E20084608093E20078940E94AA
:103C00001C230E94990C8BE292E00E941A0C809176
:103C10003A04853069F40E94B518809138048823ED
:103C2000B1F30E949C18882391F30E947C1EEFCF71
:103C30000E94A10CECCF0C941D1E292F332723309A
:103C40003105C9F060F42130310581F022303105B1
:103C500009F04AC08BE390E02EEE32E049C02132F9
:103C6000310511F12232310579F13EC082E190E057
:103C700029E233E03DC099278130910561F040F0A1
:103C80008230910559F0039779F5E8ECF2E008C02D
:103C9000EAEEF2E005C0EEEDF2E002C0EEECF2E09A
:103CA000849190E09F0124C06115710541F061305D
:103CB0007105D1F489E090E029E133E019C089E091
:103CC00090E020E033E014C06115710541F06130EF
:103CD000710551F48CEB90E02BE333E009C080E4F4
:103CE00090E027EF33E004C080E090E020E030E097
:103CF000FA0131832083089584E189BD86E189BD7D
:103D000009B400FEFDCF8091D8008F7D8093D8004C
:103D10008091E00082608093E0008091E00081FD6E
:103D2000FCCF0895CF92DF92EF92FF920F931F93F3
:103D3000CF93DF93EC018B017A010E94EC1F81117C
:103D400033C0E114F10439F0F70180819181081B3F
:103D5000190BC80FD91FC12CD12C0115110519F150
:103D60008091E80085FD16C08091E8008E778093F1
:103D7000E800E114F10449F0F70180819181C80E57
:103D8000D91ED182C08285E00FC00E94EC1F88231B
:103D900021F30AC089918093F10001501109FFEFCE
:103DA000CF1ADF0ADACF80E0DF91CF911F910F9118
:103DB000FF90EF90DF90CF900895209141043091D3
:103DC00042042617370748F06115710539F4209130
:103DD000E8002E772093E80001C0B901FC0120E043
:103DE0006115710569F180913A048823E1F185300C
:103DF000E1F18091E80083FD3AC08091E80082FD06
:103E00002CC08091E80080FFEBCF8091F200909170
:103E1000F3006115710551F08830910538F4219156
:103E20002093F100615071090196F3CF21E00897CA
:103E300009F020E08091E8008E778093E800D0CFF1
:103E40002111D1CF0AC080913A04882361F08530D6
:103E500061F08091E80083FD0AC08091E80082FF54
:103E6000F2CF80E0089582E0089583E0089581E034
:103E7000089520914104309142042617370748F0F5
:103E80006115710539F42091E8002E772093E80040
:103E900001C0B901FC0120E06115710581F180913B
:103EA0003A04882309F43EC0853009F43DC080916E
:103EB000E80083FD3BC08091E80082FD2DC0809129
:103EC000E80080FFE9CF8091F2009091F300611546
:103ED000710559F08830910540F424912093F10048
:103EE0003196615071090196F2CF21E0089709F0EF
:103EF00020E08091E8008E778093E800CDCF2111FB
:103F0000CECF0AC080913A04882361F0853061F0F9
:103F10008091E80083FD0AC08091E80082FFF2CF23
:103F200080E0089582E0089583E0089581E0089597
:103F3000982F973068F59093E900981739F07091B1
:103F4000EC002091ED005091F00003C0242F762F5B
:103F500050E021FD02C09F5FECCF3091EB003E7F2F
:103F60003093EB003091ED003D7F3093ED003091C8
:103F7000EB0031603093EB007093EC002093ED0088
:103F80005093F0002091EE0027FDE5CF80E00895EA
:103F90008F708093E90081E0089580913B0487FF52
:103FA00011C08091E80082FD05C080913A04811122
:103FB000F8CF11C08091E8008B770BC080913A0454
:103FC000882349F08091E80080FFF8CF8091E800D5
:103FD0008E778093E80008952091E4003091E50009
:103FE00095E64091EC00842F817040FF23C08091C2
:103FF000E80080FD1DC080913A04882399F0853047
:1040000099F08091EB0085FD11C04091E400509142
:10401000E5002417350729F3915011F09A01E1CFFB
:1040200084E0089582E0089583E0089581E0089592
:1040300080E008954091E80042FFDDCF08950E949E
:1040400090200E949820E0EEF0E0808181608083E3
:10405000E8EDF0E080818F77808319BCA7EDB0E0B8
:104060008C918E7F8C9380818F7E80831092390417
:1040700008950F931F93CF93DF930E9490200E9487
:104080009820C8EDD0E088818F7788838881806808
:10409000888388818F7D8883E7EDF0E08081806868
:1040A000808319BC10923A0410923604109238049E
:1040B0001092370400EE10E0F80180818B7F80833E
:1040C00088818160888342E060E080E00E94981FE0
:1040D000E1EEF0E080818E7F8083E2EEF0E080818F
:1040E00081608083808188608083F80180818E7FF9
:1040F0008083888180618883DF91CF911F910F91A8
:104100000895E8EDF0E080818F7E8083E7EDF0E0B8
:1041100080818160808381E0809339040C94392010
:10412000E8EDF0E080818C7F80831092E2000895BA
:104130001092DA001092E10008951F920F920FB6CC
:104140000F9211240BB60F922F933F934F935F93CF
:104150006F937F938F939F93AF93BF93EF93FF934F
:104160008091E10082FF0BC08091E20082FF07C0D6
:104170008091E1008B7F8093E1000E941B2380915E
:10418000DA0080FF1FC08091D80080FF1BC08091A3
:10419000DA008E7F8093DA008091D90080FF0DC015
:1041A00084E189BD86E189BD09B400FEFDCF81E0CF
:1041B00080933A040E94021D05C019BC10923A0473
:1041C0000E94101D8091E10080FF19C08091E200E3
:1041D00080FF15C08091E2008E7F8093E200809185
:1041E000E20080618093E2008091D8008062809339
:1041F000D80019BC85E080933A040E94141D809178
:10420000E10084FF30C08091E20084FF2CC084E193
:1042100089BD86E189BD09B400FEFDCF8091D8003B
:104220008F7D8093D8008091E1008F7E8093E100A4
:104230008091E2008F7E8093E2008091E2008160B5
:104240008093E20080913604882311F084E007C057
:104250008091E30087FD02C081E001C083E080938C
:104260003A040E94151D8091E10083FF29C08091CE
:10427000E20083FF25C08091E100877F8093E10009
:1042800082E080933A04109236048091E1008E7FA0
:104290008093E1008091E2008E7F8093E200809124
:1042A000E20080618093E20042E060E080E00E94F2
:1042B000981F8091F00088608093F0000E94131D89
:1042C000FF91EF91BF91AF919F918F917F916F91EE
:1042D0005F914F913F912F910F900BBE0F900FBEAA
:1042E0000F901F9018951F920F920FB60F921124E6
:1042F0000BB60F922F933F934F935F936F937F93E0
:104300008F939F93AF93BF93CF93DF93EF93FF93DD
:10431000C091E900CF708091EC00D82FD17080FD62
:10432000D0E81092E9008091F000877F8093F00040
:1043300078940E94BB211092E9008091F00088607F
:104340008093F000CD2BCF70C093E900FF91EF91E7
:10435000DF91CF91BF91AF919F918F917F916F919D
:104360005F914F913F912F910F900BBE0F900FBE19
:104370000F901F9018951F93CF93DF93CDB7DEB7A3
:10438000AA970FB6F894DEBF0FBECDBFEBE3F4E003
:104390008091F100819324E0E334F207C9F70E9491
:1043A000211D8091E80083FF2EC180913B049091F4
:1043B0003C04492F50E04A30510508F024C1FA016D
:1043C000E659FF4F0C944B23803821F0823809F0D6
:1043D0001AC108C08091370490913804992389F05C
:1043E00082600FC080913F048F70873008F00BC14E
:1043F0008093E9008091EB0085FB882780F910927B
:10440000E9009091E800977F9093E8008093F10095
:104410001092F100D1C0282F2D7F09F0F4C088231D
:1044200019F0823061F0EFC080913D04813009F0D5
:10443000EAC0933009F080E0809338042EC0809168
:104440003D0481112AC080913F048F702FEF280F07
:10445000263008F0D8C08093E9002091EB0020FFBF
:104460001CC0933021F48091EB00806214C09091C5
:10447000EB0090619093EB0021E030E0A90102C0D5
:10448000440F551F8A95E2F74093EA001092EA0024
:104490008091EB0088608093EB001092E90080919E
:1044A000E800877F8093E8000E94CD1FACC0811197
:1044B000AAC010913D041F778091E3008078812B82
:1044C0008093E3008091E800877F8093E8000E945A
:1044D000CD1F8091E80080FFFCCF8091E3008068D1
:1044E0008093E300111102C082E001C083E0809359
:1044F0003A0489C08058823008F085C080913D041C
:1045000090913E048C3D53E0950779F583E08A83D2
:104510008AE289834FB7F894DE01139620E03EE0EB
:1045200051E2E32FF0E050935700E49120FF03C0E5
:10453000E295EF703F5FEF708E2F90E0EA3010F061
:10454000C79601C0C0968D939D932F5F243149F784
:104550004FBF8091E800877F8093E8006AE270E0B7
:10456000CE0101960E94DD1E16C060913F0470913D
:104570004004AE014F5F5F4F0E941B1EBC01892BA0
:1045800009F441C09091E800977F9093E8008981F9
:104590009A810E94391F8091E8008B778093E80010
:1045A00032C0803881F58091E800877F8093E800F1
:1045B000809136048093F1008091E8008E7772CF6D
:1045C000811121C080913D0490913E04992702976A
:1045D000D4F48091E800877F8093E80080913D04C7
:1045E000809336040E94CD1F80913604811106C04D
:1045F0008091E30087FD02C081E001C084E08093E8
:104600003A040E94171D8091E80083FF0AC0809140
:10461000E800877F8093E8008091EB0080628093C0
:10462000EB00AA960FB6F894DEBF0FBECDBFDF91A8
:10463000CF911F9108950895CF9380913A048823D4
:10464000A1F0C091E900CF709091EC00892F8170AA
:1046500090FD80E8C82B1092E9008091E80083FD6E
:104660000E94BB21CF70C093E900CF91089597FBC2
:10467000072E16F4009407D077FD09D00E9454232A
:1046800007FC05D03EF4909581959F4F0895709555
:1046900061957F4F0895EE0FFF1F0024001C0BBE95
:1046A0000790F691E02D0994AA1BBB1B51E107C0AE
:1046B000AA1FBB1FA617B70710F0A61BB70B881FB2
:1046C000991F5A95A9F780959095BC01CD01089541
:1046D000F999FECF92BD81BDF89A992780B50895CA
:1046E000A8E1B0E042E050E00C949C23262FF99919
:1046F000FECF92BD81BDF89A019700B4021639F041
:104700001FBA20BD0FB6F894FA9AF99A0FBE089511
:104710000396272F0E9477230E947623252F0E943D
:104720007723242F0C9477230196272F0E94772339
:104730000C947623DC01CB01FC01F999FECF06C075
:10474000F2BDE1BDF89A319600B40D92415050404F
:08475000B8F70895F894FFCFBB
:10475800FF00000000000000000000000000000052
:104768000000000000000000000000000000000041
:104778000000000000000000000000000000000031
:1047880001FFFFFFFFFFFFFFFFFFFFFFFFFFFFFF2F
:10479800FFFFFFFF00FFFFFFFFFFFFFFFFFFFFFF20
:1047A800FFFFFFFFFFFFFFFFFFFFFFFFFFFFFFFF11
:1047B800FFFFFFFFFFFFFFFF0F0F0FFFFFFFFFFFD1
:1047C800FFFFFFFF0F0F0FFFFFFFFFFFFFFFFFFFC1
:1047D8000F0F0FFFFFFFFFFFFFFFFFFF0FFFFFFFA1
:1047E800FFFFFFFFFFFFFFFFFFFFFFFFFFFFFFFFD1
:1047F800FFFFFF0F0F0F0FFFFFFFFFFFFFFFFFFF81
:10480800FFFFFFFFFFFFFFFFFFFFFFFFFFFFFFFFB0
:10481800FFFFFF0FFFFFFFFFFFFFFFFF0FFF0F0F60
:104828000FFF0FFFFFFFFFFFFFFFFFFFFFFFFFFF70
:10483800FFFFFFFFFFFF0FFFFFFFFFFFFF0F0F0F40
:104848000FFFFF0FFFFFFFFF0F0F0F0F0FFF0F0FE0
:104858000FFFFFFF0F0F0F0FFFFFFFFFFFFFFFFF10
:10486800FFFFFFFFFFFFFFFFFFFFFFFFFFFFFFFF50
:10487800FFCC032808641E140A321E641CC11CA243
:104888001C9E1C9A1C01E200E900EA00B500B60073
:10489800B700CD008301CC008A0192019401210266
:1048A800230224022502260227022A02B300B400AA
:1048B8006F0070008182839392919037363534333C
:1048C80032313094959697E200E900EA00B500B6D7
:1048D80000B700CD008301CC008A01920194012128
:1048E80002230224022502260227022A02B300B468
:0848F800006F00700081828353
:00000001FF
