:100000000C94F4010C9413020C9413020C9413023C
:100010000C9413020C9413020C9413020C9413020C
:100020000C9413020C9413020C94E5190C94BB1A53
:100030000C9403150C9413020C9413020C941302E9
:100040000C9413020C9413020C9413020C941302DC
:100050000C9413020C9450150C9413020C9413027C
:100060000C9413020C9413020C9413020C941302BC
:100070000C9413020C9413020C9413020C941302AC
:100080000C9413020C9413020C9413020C9413029C
:100090000C9413020C941302890A890ABB0ABB0A46
:1000A000080B3C0C3C0C3C0C260BBB0BCC0BCC0BC0
:1000B0002C0C3C0C3C0C350CD80CD80CEA0CEA0C83
:1000C000E10CEA0CEA0CEA0CD80CD80CE60CEA0CB1
:1000D000EA0CE60C2C1B531B4B1C531B4B1C9F1B8D
:1000E000C21B4B1C191C281C2B0014001A000800F2
:1000F000150017001C0018000C00120013002A0045
:10010000290004001600070009000A000B000D007A
:100110000E000F0033002800E1001D001B00060048
:100120001900050011001000360037003800346255
:10013000E0000358E300E20001582C422C002C00A0
:100140005000510052004F0035003A003B003C0087
:100150003D003E00010024002500260001000100B2
:1001600001003F0040004100420043002E022100F8
:10017000220023002D00010001004400450046003C
:100180004700480025021E001F00200038002E00F6
:1001900001000100010001000153010001002700DE
:1001A000270037003600290035021E021F022002F8
:1001B00021022202230224022502260227024C00E9
:1001C000010049004A004B000100010050005100AD
:1001D00052004F002D02010001004C004D004E0066
:1001E000010001002F0230022F00300031003102E7
:1001F00001000100010001000100010001000253A3
:100200004A004E004B004D0001000100F000F900D3
:100210000100010001000100010001000100045380
:100220000100F200F100F3000100010001000100F3
:100230000100010001000100010001000100FA00BD
:1002400001000100010001000100010001000100A6
:100250000100035301000100F400F5000100F60065
:10026000AB00AA00A900AE002B00005C1A00080039
:10027000150017001C003A003B003C003D000453F1
:1002800029000400BF5CC05C09000A000B001E00CE
:100290001F00200021000100E1001D00C25CC35CC2
:1002A0001900050011001000360037003800E10089
:1002B000E000E200E300E6002C002C002C002C0003
:1002C0005000510052004F000403300000000E03A4
:1002D0007400650065006E007300790000000A0379
:1002E000720077006B006200000004030904090239
:1002F0003B00020100A032090400000103010100DB
:100300000921110100012240000705810308000AAC
:10031000090401000103000000092111010001226C
:100320006D000705820320000A1201100100000081
:1003300008EDFE606001000102030105010980A1D2
:1003400001850319012AB700150126B7009501752B
:10035000108100C0050C0901A101850419012AA022
:1003600002150126A002950175108100C005010942
:1003700006A1018505050719E029E7150025019566
:1003800008750181020507190029EF15002501955F
:10039000F07501810205081901290595057501917E
:1003A00002950175039101C005010906A101050728
:1003B00019E029E7150025019508750181029501CD
:1003C000750881010507190029FF150026FF009512
:1003D0000675088100050819012905950575019123
:1003E00002950175039101C011241FBECFEFD0E229
:1003F000DEBFCDBF11E0A0E0B1E0E8E9F9E300E045
:100400000BBF02C007900D92A038B107D9F722E0C8
:10041000A0E8B1E001C01D92A136B207E1F70E9449
:1004200024170C94CA1C0C94000081E0089581E00C
:1004300008950C94170208950C941B021F93CF93F8
:10044000DF9300D000D01F92CDB7DEB749835A8327
:100450006B833091960189819A81311114C0662392
:1004600059F0222349F00E941412182F682F898115
:100470009A810E94BD1103C00E94E811182F698162
:100480007A81812F04C00E94141269817A810F90B1
:100490000F900F900F900F90DF91CF911F910C94C0
:1004A000D002FC01262F40815181628173818481B9
:1004B0000C941E02CF93DF93EC0160E00E94510286
:1004C000BE01DF91CF910C941C020E944613811152
:1004D00002C00E94E6130C94E9040C94E50408950C
:1004E0000C946F0281E008950C947202CF93C82F90
:1004F0000E9470028C2F0E947402CF91089508957B
:100500000E94C60C0E947F022FEF84E39CE02150E2
:1005100080409040E1F700C000000C9476150F93E6
:100520001F93CF93DF93EC0161E00E9451028C0195
:10053000BE010E941902882349F1BE01C8010E9430
:10054000AF06882319F1BE01C8010E940107882364
:10055000E9F0BE01C8010E942C088823B9F08A8105
:10056000882369F001158CE5180731F00E3D1C4514
:1005700031F40E94E6130AC00E94800207C0CE0137
:10058000DF91CF911F910F910C94150280E0DF91C4
:10059000CF911F910F91089580E090E00895089504
:1005A00020E3829FC0011124FC012CE0729FE00D2A
:1005B000F11D1124E60FF11DEE0FFF1FE851FF4F53
:1005C000859194910895880F991FFC01E853FD4F80
:1005D000859194910895CF93DF930E94D0020E9459
:1005E000FD03EC018115904508F043C0C11580E47E
:1005F000D80708F0CBC0C03ED10528F5C03CD105D6
:1006000008F0B3C0C83AD10578F4C53AD10508F06E
:10061000A4C0C130D10509F4ECC008F4E8C0C4306E
:10062000D10508F0E6C0E3C0CF3BD10508F0DFC03C
:10063000C85AD0E0CC0FDD1FC35FDE4F0990D881D0
:10064000C02DD464D6C0C11590E2D90750F4C115AD
:1006500021E0D20708F0CDC0C83ED10508F4C9C0DA
:10066000C6C0C11580E3D80708F086C0CE019F70D0
:100670007FC0C11595E5D90708F043C0C11524E531
:10068000D20708F09AC0C11582E5D80708F5C11550
:1006900091E5D90708F07DC0CE0174E09695879565
:1006A0007A95E1F783709C2F937021E030E002C0CF
:1006B000220F331F9A95E2F73C68382BCF70C6950E
:1006C000C69580E2C89FE0011124C22BD32B91C0B4
:1006D0009E01237033278C2F86958695C115D345AF
:1006E00008F05CC0C1E0D0E002C0CC0FDD1F2A954D
:1006F000E2F720E2829FC0011124C82BD92BDC68CD
:1007000078C0C11529E5D207A0F4C11588E5D8073E
:1007100008F058C0C11596E5D90708F068C08C2FBD
:100720000E9491048F71C82FD0E0DC2FCC27D062BB
:1007300060C0C1152AE5D20708F449C0CE01905621
:100740008115904208F053C08D2F8F710E94910443
:10075000DD27D0628F71D82B4CC0C55AD0E0C55C64
:10076000DE4FC881D0E0D06444C0CE01805C9109E6
:100770000E94E302EC013DC0CE019927D3FF03C0E4
:10078000EC01D86C36C0EC01D06C33C0DF70D06A9D
:1007900030C0DC2FCC27C16FD06A2BC0C1E0D0E0C5
:1007A00002C0CC0FDD1F2A95E2F720E2829FC00134
:1007B0001124C82BD92BDA681CC0DC2FCC27C46FBE
:1007C000D06A17C0DC2FCC27C06FD06A12C08C2F24
:1007D0008F700E94910494E0D695C7959A95E1F7A1
:1007E000CF70D0E0DC2FCC27D069C82B02C0C0E08E
:1007F000D0E0CE01DF91CF9108958238910569F163
:10080000B0F48133910509F46DC048F48932910543
:1008100009F463C08A32910509F469C008958533EB
:10082000910509F455C089339105B9F00895833EC7
:10083000910569F138F4803E9105B1F0823E910551
:1008400009F10895863E9105A9F1873E9105B9F118
:10085000843E910509F064C023C02091520220FD1E
:100860004FC021FD4DC008958091520280FD44C0CB
:100870008091530280FF44C08091520284FD42C0A7
:1008800083EE4DC08091520282FF38C0F5CF809137
:10089000520282FD33C08091530280FD31C0ECCF03
:1008A0008091530281FF32C08091520284FD2AC0A0
:1008B00087EE35C08091520283FF26C0F5CF80912C
:1008C000520283FD21C08091530281FD1FC0ECCFF5
:1008D0008091520285FD1CC01DC08091520285FD91
:1008E00019C016C08091520286FD16C017C08091B3
:1008F000520286FD13C010C089E311C082EE0FC002
:1009000080EE0DC080E00BC086EE09C084EE07C00B
:1009100089E205C085E303C08AE201C081E390E07B
:1009200008959091520292FF0DC0282F287128300F
:1009300019F4877F846006C0282F2471243011F4B5
:100940008B7F886093FF0DC0282F2871283119F400
:10095000877E846106C0282F2471243111F48B7E98
:1009600088612091530220FF0DC0382F3871383034
:1009700019F4877F816006C0382F3171313011F44E
:100980008E7F886021FF0DC0282F2871283119F42F
:10099000877E816106C0282F2171213111F48E7E5E
:1009A000886194FD877E0895E82FF0E0EE0FFF1F29
:1009B000EA5BFD4F808191810895089580EA8A95D0
:1009C000F1F7089508950C94E2040C94E3040C9458
:1009D000E2040C94E704CF93DF93AAE4B1E04EE481
:1009E00051E061E070E08D91E82FE295EF70F0E06A
:1009F00021A18F70EB0102C0CC0FDD1F8A95E2F7B9
:100A0000CE019C2F9095922391A392A1892B82A332
:100A10004A175B0741F7AEE3B1E041E050E08D914A
:100A2000E82FE295EF70F0E021A18F70BA0102C0CB
:100A3000660F771F8A95E2F7CB01962F9095922348
:100A400091A392A1892B82A371E0AA34B70739F749
:100A500010923F0210923E021092470210924602FC
:100A600010924102109240021092490210924802E4
:100A7000109243021092420210924B0210924A02CC
:100A8000109245021092440210924D0210924C02B4
:100A900084E00E94DC05DF91CF910C9465026F9297
:100AA0007F928F929F92AF92BF92CF92DF92EF92FE
:100AB000FF920F931F93CF93DF938AE4C82E81E0B8
:100AC000D82E0EE312E096E4A92E92E0B92E712CF6
:100AD00088248394912CF60181916F01C82FC295CF
:100AE000CF70D0E099A18F70740101C0EE0C8A958F
:100AF000EAF7892F8E2989A38AA16E2C609486211A
:100B00008AA30E94DE04EEE3F1E040E050E020E042
:100B100030E06191A62FA295AF70B0E090968C91D5
:100B200090E06F7002C0959587956A95E2F780FD19
:100B300008C0C401042E02C0880F991F0A94E2F76E
:100B400002C080E090E0282B392B4F5F5F4F4C3084
:100B50005105F9F689A1682269A28AA1E82AEAA2C8
:100B6000F801808191812817390721F03183208392
:100B700081E001C080E0782A0E5F1F4FA016B10609
:100B800009F0A9CF272D44E066E472E08EE392E0FD
:100B90000E94DD050E946D02872DDF91CF911F918C
:100BA0000F91FF90EF90DF90CF90BF90AF909F900C
:100BB0008F907F906F9008950895FF920F931F93E9
:100BC000CF93DF93F82E092F162FD72FC42F222370
:100BD00049F081E0809382010E9435159093810154
:100BE00080938001809182018823D9F080918001D7
:100BF000909181010E944115069798F0EF2DF02FFA
:100C0000A12FBD2F80E090E04C2F50E08417950776
:100C100034F4219131912D933D930196F7CF1092A9
:100C20008201DF91CF911F910F91FF900895AF92B4
:100C3000BF92CF92DF92EF92FF920F931F93CF93C9
:100C4000DF937C015B01C42FD22FFC0182818823BA
:100C5000F9F0409385010E943515909384018093AB
:100C6000830180E28C0F883008F06EC0C77081E08D
:100C700001C0880FCA95EAF7DF91CF911F910F91BC
:100C8000FF90EF90DF90CF90BF90AF900C94450A0B
:100C900080918501481335C0809183019091840132
:100CA0000E9441156C01B701C5010E947F0FC81653
:100CB000D90638F510E21D0FCD17B9F080E28C0F80
:100CC000883040F4C77081E001C0880FCA95EAF708
:100CD0000E944C0A183058F581E09D2F977001C092
:100CE000880F9A95EAF70E94450A802F0E94320ADF
:100CF000183050F5D77081E001C0880FDA95EAF717
:100D00000AC080E28C0F8830F8F4C77081E001C01F
:100D1000880FCA95EAF7DF91CF911F910F91FF904D
:100D2000EF90DF90CF90BF90AF900C944C0A802F43
:100D3000DF91CF911F910F91FF90EF90DF90CF90B7
:100D4000BF90AF900C94320ADF91CF911F910F9119
:100D5000FF90EF90DF90CF90BF90AF9008950F93EA
:100D60009C01CB01233F4CE5340731F188F4283D49
:100D7000FCE53F07D9F0293D4CE5340779F1273DE3
:100D80003C45A9F506E221EE41EE67ED7CE52BC07E
:100D9000253FFCE53F07E1F0A8F0263F3C4539F54B
:100DA00007E225EE46EE66EF7CE51DC007E225EE84
:100DB00045EE68ED7CE517C006E221EE40EE63EFFC
:100DC0007CE511C007E225EE44EE64EF7CE50BC044
:100DD00006E221EE42EE65EF7CE505C008E221E087
:100DE00045EE69ED7CE50E94170680E008C0FC0135
:100DF0008281882319F01092850101C081E00F9152
:100E00000895CF93DF93EC01FB018281882309F4DD
:100E10001FC1C230FCE5DF0708F41BC1C6319CE5E9
:100E2000D90738F09E012A5F3C452930310508F08A
:100E300010C10E9459139093530280935202C03103
:100E4000ECE5DE0709F4C3C008F041C0C8308CE50A
:100E5000D80709F49AC0F0F4C430ECE5DE0709F4D1
:100E600087C068F4C2308CE5D80709F477C0C33076
:100E7000DC4509F0E3C080915202826076C0C63042
:100E8000ECE5DE0709F46EC008F07BC080915202E9
:100E900088606BC0CC308CE5D80709F485C068F455
:100EA000CA30ECE5DE0709F474C008F079C00E948E
:100EB000C60C80915202806858C0CE308CE5D807AD
:100EC00009F476C008F07FC0809152028BC0CB3FFE
:100ED000ECE5DE0709F44FC018F5C3318CE5D807FF
:100EE00009F47DC078F4C131ECE5DE0709F473C084
:100EF000C231DC4509F0A2C00E94C60C80915202AA
:100F00008F7733C0C5318CE5D80709F472C008F477
:100F100086C0CA3FDC4509F091C0809153023EC0B3
:100F2000CF3FFCE5DF0709F45FC058F4CD3F9CE5F7
:100F3000D90709F444C008F43FC08091530282608D
:100F40002DC0C130FDE5DF0709F475C008F45DC0B0
:100F5000C230DD4509F072C080E06EC0809152025F
:100F6000816003C08091520280618093520266C00A
:100F70008091520211C0809153028260809353028B
:100F80005DC0809152028062F0CF809152028064F5
:100F9000ECCF8091520288608460E7CF8160EECF11
:100FA000809152028E7FE1CF809152028D7FDDCF02
:100FB00080915202877FD9CF8091530218C08091CF
:100FC00053028D7FDBCF809152028F7ECECF8091F6
:100FD00052028F7DCACF809152028F7BC6CF809103
:100FE0005202877F8B7FC1CF809153028D7F8E7F8E
:100FF000C5CF8091520282FB222720F991E09227EF
:1010000090FB82F990FB83F9B0CF80915302982F27
:10101000909591708E7F892B90FB81F9AFCF0E94C4
:10102000C60C8091520287FB222720F991E092277B
:1010300090FB87F99ACF81E00E94E81380915202D9
:10104000909153020E946A130E94C60C80E001C076
:1010500081E0DF91CF910895CF93DF9386319C4556
:1010600041F5EB010E949512982F8A812091000191
:1010700030910101882379F09A7A81E009F480E0C7
:1010800080938601911102C069E201C065E3C90144
:101090000E9483140AC080918601811102C069E216
:1010A00001C065E3C9010E948E140E94E31280E032
:1010B00001C081E0DF91CF91089590938C018093DE
:1010C0008B010895E0918B01F0918C01309721F014
:1010D0000190F081E02D099480E00895E0918B016A
:1010E000F0918C01309799F020910C01222359F056
:1010F0002091520227FF07C0DC012C9111962C93FE
:10110000119725E02C930280F381E02D0994089536
:101110002091890130918A012817390771F0909345
:101120008A0180938901E0918B01F0918C013097C5
:1011300021F00680F781E02D099408952091870120
:10114000309188012817390771F0909388018093B6
:101150008701E0918B01F0918C01309721F00084A0
:10116000F185E02D0994089585B7806885BF85B71E
:10117000806885BF089508950C94BB080C94BC0842
:101180000C94BB080C94BB080E94B4080E94C008D1
:101190000C94BE0881E008950C94CA080E942C1596
:1011A0000E94EB040E94A8150C94C2087F928F92B3
:1011B0009F92AF92BF92CF92DF92EF92FF920F93E6
:1011C0001F93CF93DF93CDB7DEB72A970FB6F8946E
:1011D000DEBF0FBECDBF0E944F050E94CC0881111B
:1011E00011C08FEF89838A831B820E94351581602D
:1011F000782F9D838C8349815A816B818D810E94D8
:1012000084094FC04EE8A42E41E0B42E00E010E067
:10121000702E802F0E94D4046C01F5018190919072
:101220005F01882699268114910431F40F5F1F4FC6
:101230000430110569F7D5CF80911A0281FD0E9413
:10124000DD0480E0EE24E394F12C94012E213F2173
:10125000232B09F18E837F82CE20DF2081E0CD28F1
:1012600009F480E088870E9435158160782F9A877D
:1012700089874E815F8168858A850E948409000F75
:10128000111FF801E257FE4F80819181E826F9266F
:10129000F182E08206C08F5FEE0CFF1C8C30A9F655
:1012A000C5CF0E94620890918D018917C9F00E94F4
:1012B000620880938D012A960FB6F894DEBF0FBEA8
:1012C000CDBFDF91CF911F910F91FF90EF90DF90F5
:1012D000CF90BF90AF909F908F907F900C947602AC
:1012E0002A960FB6F894DEBF0FBECDBFDF91CF9127
:1012F0001F910F91FF90EF90DF90CF90BF90AF9034
:101300009F908F907F900895CF93DF93CDB7DEB7F6
:101310002B970FB6F894DEBF0FBECDBF4F83588713
:1013200069877A878B87DE01119686E0FD0111922D
:101330008A95E9F785E0FE01379601900D928A952E
:10134000E1F749815A816B817C818D819E810E9468
:10135000820F2B960FB6F894DEBF0FBECDBFDF9184
:10136000CF910895FC01808191810E9456120895C9
:10137000CF93882309F448C0C82F8CEF8C0F813A93
:10138000D0F46C2F80910001909101010E94031410
:10139000882349F06C2F80910001909101010E94F7
:1013A0008E140E94E3126C2F809100019091010134
:1013B0000E9483140CC080E28C0F883058F4C770F0
:1013C00081E001C0880FCA95EAF70E949812CF9178
:1013D0000C94E312EBE5EC0FE33040F4F0E0E4585A
:1013E000FE4F808190E0CF910C948808C85AC73195
:1013F00058F4EC2FF0E0EE0FFF1FE25BFE4F808110
:101400009181CF910C949E08CF910895882349F142
:10141000682F8CEF860F813A38F48091000190910B
:1014200001010E948E140CC080E2860F883050F4B7
:10143000677081E001C0880F6A95EAF70E949E12EA
:101440000C94E3128BE5860F833020F480E090E06B
:101450000C948808685A673120F480E090E00C947E
:101460009E080895CF93C82F0E94B809C93349F444
:101470002FEF87EE93E0215080409040E1F700C0CD
:1014800000008C2FCF910C94060A882321F00E9433
:1014900098120C94E3120895882321F00E949E1262
:1014A0000C94E3120895CF92DF92EF92FF920F9384
:1014B0001F93CF93DF937C01062FC72FFC0115816B
:1014C00012951F70D281D1110E94B5120E948E1206
:1014D000882399F0DD2389F08C2F807F803421F0E0
:1014E00080E2800F883048F082E00E942D130E9435
:1014F0008E1291E0D82ED92601C0D12CCC2EC294C8
:101500008FE0C8228C2D90E0FC01E45BFF4F0C942F
:101510007F1C8C2F807FCF70882311F0C295C07FF5
:10152000DD2399F0CC2309F482C180E2800F88305A
:1015300010F0011104C08C2F0E94981203C08C2F50
:101540000E94A8120E94E31272C1802F0E94060A14
:10155000CC2309F491C180E2800F883010F0011192
:1015600004C08C2F0E949E1203C08C2F0E94AE12CA
:101570000E94E31281C18C2F807FCF70803211F0E6
:10158000C295C07F002319F00130C9F022C0DD23CD
:1015900071F0112341F0113031F40E94C8128C2BEC
:1015A0000E94D01269C10E94C8128C2B1DC0112349
:1015B00019F0113009F460C10E94D91225C0DD2351
:1015C00021F0163008F058C10EC0153008F054C193
:1015D0001BC0DD2361F0112331F0F701858180FF0D
:1015E00026C18F7085838C2F0E94450A45C1112327
:1015F00059F0093309F02CC1FFEF27EE83E0F150D9
:1016000020408040E1F722C18C2F0E944C0A34C157
:101610008C2F86958695837019F0813061F02CC1EE
:10162000DD2321F0802F9C2F937002C080E090E09A
:101630000E94880829C1DD2321F0802F9C2F937000
:1016400002C080E090E00E949E081EC18C2F837033
:1016500009F045C0D11114C1402F429546954770FD
:10166000440F440F602F6F70862F90E0A0E0B0E031
:10167000042E04C0880F991FAA1FBB1F0A94D2F71B
:1016800004FF10C00FE010E020E030E004C0000FC5
:10169000111F221F331F4A95D2F7009510952095F0
:1016A000309503C000E010E09801C695C695C37060
:1016B000BC01CD01602B712B822B932BC23049F0E2
:1016C00058F4C13019F00E94D310DAC00E94C11042
:1016D000D7C00E94E510D4C00E94BF10D1C0DD2346
:1016E00019F08C2F817001C08695882309F4C8C039
:1016F000402F429546954770440F440F602F6F70FE
:10170000862F90E0A0E0B0E0042E04C0880F991F5F
:10171000AA1FBB1F0A94D2F704FF10C00FE010E00D
:1017200020E030E004C0000F111F221F331F4A9534
:10173000D2F7009510952095309503C000E010E099
:101740009801C695C695C370BC01CD01602B712B65
:10175000822B932BC23049F058F4C13019F00E940B
:1017600098118EC00E9486118BC00E94AA1188C059
:101770000E94F91085C0CF70DD2339F08C2F0E94B4
:101780001F11802F0E94450A7BC0802F0E944C0AA7
:101790008C2F0E94401174C0023F01F128F4003FD9
:1017A00041F0013FA1F03FC0033FF9F0043F39F1A0
:1017B0003AC0DD2341F0153008F05EC08C2F8F71E8
:1017C0000E94651159C0163008F056C0F7CFDD23CE
:1017D00039F08C2F8F710E941F114EC0DD23C9F389
:1017E0008C2F8F710E94401147C0DD2329F08C2F70
:1017F0008F710E940A1140C00E9405113DC0DD2377
:1018000049F0CF718C2F0E941F1163E08C2F0E9432
:10181000181332C081E00E942D13123068F182E06B
:101820000E942D1329C0DD2331F0112391F2802F66
:101830000E94B80921C0112399F2093349F49FEF9E
:10184000E7EEF3E09150E040F040E1F700C0000027
:10185000802F0E94060A10C04C2F4F70602FC701C6
:101860000E94CC020E9430100FC04C2F4F70602F8E
:10187000C7010E94CF0208C088EF8C0D843020F48D
:101880000E9462080E947602DD20C9F00E948A123E
:1018900080FD15C0F70112820E9484120E941F1160
:1018A000C7010E94800C0E948412DF91CF911F918A
:1018B0000F91FF90EF90DF90CF900C944011DF914B
:1018C000CF911F910F91FF90EF90DF90CF900895EF
:1018D0000F931F93CF93DF93EC01688179818A8105
:1018E0000E9461128C010E94BC110E94AD10B801CF
:1018F000CE010E94530ADF91CF911F910F9108955D
:10190000CF93DF93EC01988189812B813C81232B3C
:1019100031F08F3F31F481E09F3F19F403C081E043
:1019200001C080E080FD19C0CE010E948F028111AC
:101930000CC00E948E12882381F08A81882369F06E
:1019400082E0DF91CF910C942D13CE010E94680CA0
:10195000CE01DF91CF910C945A02DF91CF9108957F
:101960000E94B5120E94C5120E94E31280E090E02E
:101970000E94880880E090E00C949E08809100010D
:10198000909101010E9499140C94B00C0E94A51230
:101990000C94BE0CE92FE295EF704E2F50E0FA0147
:1019A0003297EE30F105B0F4E45AFF4F0C947F1CEF
:1019B000803F91F018F4883E68F40EC0843F51F4E3
:1019C0000BC0883E48F0813F29F406C093FB88276E
:1019D00080F9089580E0089581E008950E945612EC
:1019E0000E94CA0C0895CF93DF9300D000D01F92BD
:1019F000CDB7DEB70F900F900F900F900F90DF9143
:101A0000CF910895CF93DF9300D000D000D0CDB711
:101A1000DEB726960FB6F894DEBF0FBECDBFDF91BE
:101A2000CF9108951F93CF93DF93C091970116E054
:101A300080919801C81799F0D0E01C9FF0011D9F7C
:101A4000F00D1124E756FE4F408151816281738170
:101A5000848195810E94020D2196C770E9CFDF91A4
:101A6000CF911F9108954091C9015091CA01609191
:101A7000CB017091CC018091CD019091CE010C945D
:101A8000020D0F931F93CF93DF938091CE01829528
:101A90008F7009F05DC08091CB01882309F458C094
:101AA00080919701109198016091C9017091CA01CC
:101AB000C091CC01D091CD0191E06F3F09F090E051
:101AC000292F06E0811709F443C0209721F07F3FBA
:101AD00021F030E003C031E001C0322F90E030FD52
:101AE00034C0089FF001099FF00D1124DF01A756B3
:101AF000BE4F11963C911197371327C03C91361376
:101B000024C012963C91129731111FC013964D912B
:101B10005C9114974C1B5D0B483C5105B0F48091CF
:101B2000CE018F7080618093CE01E256FE4F80819E
:101B30008F708061808389EC91E00E94800CDF913E
:101B4000CF911F910F910C94120D01968770BACF0F
:101B5000DF91CF911F910F9108959F92AF92BF9205
:101B6000CF92DF92EF92FF920F931F93CF93DF9369
:101B7000CDB7DEB761970FB6F894DEBF0FBECDBF0D
:101B80008C0185E0F801DE011D9601900D928A9589
:101B9000E1F7F80140815181E2809091C9016091A3
:101BA000CA012091CC013091CD012115310531F0D0
:101BB0006F3F31F481E09F3F19F403C081E001C021
:101BC00080E0F82FF1709F2E80FD46C1F801A380C0
:101BD000B48089ECC82E81E0D82EF090CB01F501BD
:101BE000E21BF30BFF2009F4DFC08091CE01E83C3B
:101BF000F10508F09BC0282F207F09F052C0561332
:101C000013C0491311C0FE2CE1100EC08F7080610B
:101C10008093CE010E94330DC6010E94800C8091FA
:101C2000CE01F801858358C1AB2831F05F3F31F414
:101C300081E04F3F19F403C081E001C080E080FDE6
:101C400003C081E08E2502C080E090E0F82FF170A3
:101C5000FF2E80FF1CC0809197012091980136E0F3
:101C6000821709F417C190E0389FF001399FF00DF9
:101C70001124E756FE4F6181561306C0608146135A
:101C800003C06281E61203C001968770E9CFFE2C83
:101C9000EE2009F421C18091CE0181608093CE01B4
:101CA0005AC0561306C0491304C0E11002C0F8011F
:101CB0009FC04D875E878D859E850E94EE0C882390
:101CC00079F1EE2069F12091CE01822F82958F70FB
:101CD00090E0029774F08091C9019091CA019887B1
:101CE0008F831986BB86AA862C87CE0107960E9411
:101CF000800C86E0F801A9ECB1E001900D928A9584
:101D0000E1F70E94410D0E94330D0DC0561729F1D5
:101D10004D875E878D859E850E94EE0C81112CC0BB
:101D2000C8010E94800CFF24F394D6C0282F207F86
:101D300069F77A2DB98AA88A6E2D89890E94F30CD9
:101D400089EC91E00E94800C86E0F60111928A9560
:101D5000E9F70E94330DF12CBFC04913D9CFE11030
:101D6000D7CFF8018583C8010E94800C86E0F60178
:101D700011928A95E9F7B0C0EE2091F22091CE0140
:101D8000822F82958F7090E002970CF4B2CF8091F1
:101D9000C9019091CA019A8389831B82BD82AC825A
:101DA0002E83CE010196A3CFE83CF10508F047C091
:101DB000FE2CEE2009F4B4CF561330C049132EC0C8
:101DC0002091CE0120FD21C0822F82958F70482F57
:101DD00050E041155105C9F0F80125834F305105F8
:101DE00041F08F5F982F9295907F822F8F70892B73
:101DF0008583C8010E94800C86E0F801A9ECB1E05F
:101E000001900D928A95E1F742C086E0F801A9ECB5
:101E1000B1E001900D928A95E1F75EC04D875E8733
:101E20008D859E850E94EE0C811163CF8091CE013D
:101E300081608093CE01C8010E94800C4DC07A2D34
:101E4000B98AA88A6E2D89890E94F30C86E0F60172
:101E500011928A95E9F71BC0EE2009F461CF4D87F6
:101E60005E878D859E850E94EE0CF82E882309F4EE
:101E700057CF86E0F801A9ECB1E001900D928A9568
:101E8000E1F789EC91E00E94B2090E94410D0E94A5
:101E9000330D22C04D875E878D859E850E94561228
:101EA000292F22952F70223028F49F7039F081114C
:101EB00005C00BC0243028F49F7049F4805E883040
:101EC00020F0C8010E94800C9F2CF92C05C0F8015D
:101ED0009581907F99F7F9CF8F2D61960FB6F89481
:101EE000DEBF0FBECDBFDF91CF911F910F91FF904D
:101EF000EF90DF90CF90BF90AF909F90089588ECC7
:101F000090E008951F93CF93DF93CDB7DEB72C9762
:101F10000FB6F894DEBF0FBECDBF4F8358876987D9
:101F20007A878B879C87CE0107960E94AD0D882308
:101F3000D1F09F8188852A853B85232B31F08F3F07
:101F400031F481E09F3F19F403C081E001C080E0DB
:101F500080FD47C04F81588569857A858B859C8532
:101F60000E94020D3EC086E0FE013796DE0111960A
:101F700001900D928A95E1F7FF81E8856A857B855E
:101F80006115710531F0EF3F31F481E0FF3F19F445
:101F900003C081E001C080E080FD23C02091980152
:101FA00030E0C9010196877099274091970150E070
:101FB00084179507F1F1F983EA837D836C8396E0BA
:101FC000929FD001939FB00D1124A756BE4FFE01E2
:101FD000319601900D929A95E1F7809398010E94B5
:101FE000120D16E08091970190919801891771F177
:101FF000189FC001112487569E4F0E94AD0D882363
:1020000029F1E09197011E9FF0011124E756FE4F40
:102010004081518162817381848195810E94020D8A
:102020008091970190E0019687709927809397019E
:10203000D9CF0E94C60C1092980110929701E9EC3A
:10204000F1E086E0DF011D928A95E9F72C960FB644
:10205000F894DEBF0FBECDBFDF91CF911F910895E1
:10206000EF92FF920F931F93CF93DF938C01892BF5
:1020700009F46CC0F12CEE24E394E8012196F801F8
:102080008491843740F4843008F051C0813081F06D
:10209000823019F15BC0853709F444C0A8F19CE790
:1020A000980F903708F052C08F770E94060A41C0FF
:1020B0000E5F1F4FFE01849190E2980F983050F40C
:1020C0008770FE2D01C0FF0F8A95EAF78F2F0E94BF
:1020D000B81214C00E94B8092DC00E5F1F4FFE0138
:1020E000849190E2980F983060F48770FE2D01C0C3
:1020F000FF0F8A95EAF78F2F0E94BE120E94E3120B
:1021000019C00E94060A16C00E5F1F4FFE01C4913F
:10211000CC2381F08FE99FE00197F1F700C0000028
:10212000C150F6CF0E5F1F4FFE01F49003C00E9416
:10213000B8098E018F2D882309F49FCFEFE9FFE0C6
:102140003197F1F700C000008150F5CFDF91CF91BA
:102150001F910F91FF90EF900895089508950C94AA
:10216000AE100C94AF100E94B1106093F101709307
:10217000F2018093F3019093F4010C94B00C0C9451
:10218000B3100F931F930091F1011091F201209170
:10219000F3013091F401602B712B822B932B1F9153
:1021A0000F910C94B3100F931F930091F1011091B4
:1021B000F2012091F3013091F40160237123822315
:1021C00093231F910F910C94B3100F931F930091C1
:1021D000F1011091F2012091F3013091F401602797
:1021E0007127822793271F910F910C94B3100C94A1
:1021F000AE100E94F7106093ED017093EE01809392
:10220000EF019093F0010C94B00C60E070E0CB0112
:102210000C94F9100F931F9341E050E060E070E0E0
:102220008A019B0104C0000F111F221F331F8A95D2
:10223000D2F7C901B8011F910F910C94F9100F93B7
:102240001F9341E050E060E070E004C0440F551F70
:10225000661F771F8A95D2F78091ED019091EE016C
:10226000A091EF01B091F0018A019B01082B192B7D
:102270002A2B3B2BC901B8011F910F910C94F91027
:102280000F931F9341E050E060E070E004C0440F02
:10229000551F661F771F8A95D2F740955095609518
:1022A00070958091ED019091EE01A091EF01B091B8
:1022B000F0018A019B01082319232A233B23C9012A
:1022C000B8011F910F910C94F9100F931F9341E0E7
:1022D00050E060E070E004C0440F551F661F771F98
:1022E0008A95D2F78091ED019091EE01A091EF01D6
:1022F000B091F0018A019B01082719272A273B2763
:10230000C901B8011F910F910C94F9100F931F93FD
:102310000091ED011091EE012091EF013091F0015B
:10232000602B712B822B932B1F910F910C94F91022
:102330000F931F930091ED011091EE012091EF0199
:102340003091F00160237123822393231F910F9119
:102350000C94F9100F931F930091ED011091EE0171
:102360002091EF013091F001602771278227932798
:102370001F910F910C94F91008952CE0929F800DFD
:102380001124E82FE695E695E695877051E001C0A7
:10239000550F8A95EAF785E0E89FF0011124E15393
:1023A000FE4F20E030E070E04081CB01022E02C001
:1023B000969587950A94E2F7817081958427852305
:1023C000842781932F5F3F4F2530310569F70895AA
:1023D0002CE0929F800D1124682F66956695669576
:1023E000982F977085E0689FB001112440E050E07D
:1023F00080E0FB01E40FF51FE153FE4F208130E048
:10240000092E02C0369527950A94E2F721703327EA
:10241000042E01C0220F0A94EAF7822B4F5F5F4F10
:102420004530510531F70895BF92CF92DF92EF9278
:10243000FF920F931F93CF93DF938C01C090ED0118
:10244000D090EE01E090EF01F090F0018091F10169
:102450009091F201A091F301B091F401C82AD92A18
:10246000EA2AFB2ACFE1D0E0D701C6010C2E04C036
:10247000B695A795979587950A94D2F780FD04C0E5
:10248000219790F7B12C07C0BC2EB8018C2F0E9469
:10249000EB020197A9F38B2DDF91CF911F910F9143
:1024A000FF90EF90DF90CF90BF900895CF93DF9390
:1024B000EC010E941412BE010E94EB02DF91CF9149
:1024C00008951F93CF93DF93EB0190919601992389
:1024D00021F0CB010E94561213C0882349F0CB0192
:1024E0000E941412182F682FCE010E94BD1104C043
:1024F000CB010E94E811182FBE01812F0E94EB0230
:10250000DF91CF911F9108958091F5018595859573
:10251000859508958091F501877008959091F50152
:10252000977081E009F480E0089580911902089580
:1025300090911902892B80931902089580959091AA
:10254000190289238093190208951092190208959F
:1025500090911802892B809318020895809590918C
:102560001802892380931802089510921802089582
:1025700090911702892B809317020895809590916E
:102580001702892380931702089510921702089565
:102590008091F601089508950C94CB120C94CC12FE
:1025A0009091F601981721F08093F6010C94CE12C9
:1025B00008958091F601882329F01092F60180E0B9
:1025C0000C94CE120895E0910001F09101018091E8
:1025D00019028083E0910001F091010190818091C6
:1025E0001802892B8083E0910001F0910101908114
:1025F00080911702892B80838091F601882381F0D6
:10260000E0910001F09101019081892B80838091FC
:102610000001909101010E94ED1381110E94D912D5
:1026200080910001909101010C946E080C94CB12E2
:1026300098E0899F90011124262B2093F5010E9498
:102640001F118091F5018595859585950C9416133C
:102650001092F50180E00C9416132091F5018095FD
:1026600082238093F501982F977079F430E0482FFA
:10267000082E000C550B2417350739F085958595E4
:1026800085950E9440110C942813089580E090E0F5
:102690000E94901C21E08C3E9E4F09F020E0822F8A
:1026A000089582E090E00C94881C83E090E00C9404
:1026B000881CCF9384E090E00E94881CC82F81E2A0
:1026C00090E00E94881C2C2F30E0A901582BCA01F1
:1026D000CF910895CF93C92F682F84E090E00E9496
:1026E000961C6C2F81E290E0CF910C94961CAB016C
:1026F000BC018FE090E00C94A81CAB01BC0183E10D
:1027000090E00C94A81C60E070E0CB010C947D1369
:1027100060E070E0CB010E9477130C9483136CEEA1
:102720007EEF80E090E00E94B41C60E082E090E0E8
:102730000E94961C60E083E090E00E94961C10923C
:10274000F1011092F2011092F3011092F40160E095
:1027500084E090E00E94961C60E081E290E00E949C
:10276000961C60E085E090E00E94961C60E086E0A8
:1027700090E00E94961C6FEF87E090E00E94961C0C
:1027800040E050E0BA0188E090E00E94A81C60E0C0
:102790008DE090E00E94961C40E050E0BA0188E194
:1027A00090E00E94A81C60E087E190E00E94961CE7
:1027B00040E050E0BA018CE190E00E94A81C60E08B
:1027C00080E290E00E94961C0C9488130C948F1366
:1027D000682F8EE090E00C94961CFC01329680915C
:1027E0000C01882331F08091520287FF02C09EE1E4
:1027F00001C096E080E0915028F021912223D9F386
:102800008F5FF9CF0895662351F120910C012223A7
:10281000E9F02091520227FF19C0462F46954695B0
:1028200046954E31E0F4677021E030E002C0220F9F
:10283000331F6A95E2F7FC01E40FF11D828190E0FD
:102840002823392381E0232B69F409C0FC01329647
:1028500008962191621729F0E817F907D1F780E06F
:10286000089581E008959C01FC0132969FEF80E07D
:102870004191461789F09F3F19F4411101C0982FEB
:102880008F5F8630A9F79F3F39F0F901E90FF11DFD
:1028900097FDFA956283089508959C012A5F3F4F42
:1028A000FC014281461301C01282019682179307F0
:1028B000B9F70895262F2695269526952E3168F48A
:1028C000FC01E20FF11D677021E030E001C0220F32
:1028D0006A95EAF78281282B22830895262F269570
:1028E000269526952E3170F4FC01E20FF11D6770DC
:1028F00021E030E001C0220F6A95EAF7209582813D
:1029000028232283089520910C01222329F020916D
:10291000520227FD0C945A140C94331420910C018C
:10292000222329F02091520227FD0C946E140C945E
:102930004D1420910C01FC013296222331F080913C
:10294000520287FF02C08EE101C086E0DF011D92C6
:102950008A95E9F7089508950C94AB140C94AB1480
:10296000CF930E94AE140E944F050E94AC14C0E0A9
:102970008C2F0E94D404892B29F4CF5FC430C1F777
:1029800080E001C081E0CF9108950C94AB140C94C9
:10299000C5140E94C71480915802843049F11092E6
:1029A0001B0220E488E190E00FB6F894A89580938C
:1029B00060000FBE2093600080E00E9476020E94BB
:1029C000C71483B7817F846083BF83B7816083BF6F
:1029D0007894889583B78E7F83BF0FB6F894A895B7
:1029E00080916000886180936000109260000FBE4B
:1029F00008950C94AB140E94C60C0E9462080E94B9
:102A000076020C94F9141F920F920FB60F921124B4
:102A10008F939F93AF93BF9380911B02811113C03B
:102A200080914E0290914F02A0915002B0915102BC
:102A30004196A11DB11D80934E0290934F02A09329
:102A40005002B0935102BF91AF919F918F910F901F
:102A50000FBE0F901F90189582E084BD93E095BD46
:102A60009AEF97BD80936E0008952FB7F8948091E8
:102A70004E0290914F02A0915002B09151022FBF8F
:102A800008959C014FB7F89480914E0290914F02A7
:102A9000A0915002B09151024FBF821B930B089539
:102AA00078941F920F920FB60F9211248F939F93D9
:102AB000AF93BF9380914E0290914F02A09150022C
:102AC000B09151020196A11DB11D80934E029093C9
:102AD0004F02A0935002B0935102BF91AF919F91CA
:102AE0008F910F900FBE0F901F901895F89481E072
:102AF0008093E00080E28093D800E9ECF0E010825F
:102B00008FE19EE40197F1F700C000001DBA10921A
:102B100068001CBC10BE1FBA10927A0010926E00A2
:102B200010926F001092700010927100108210923B
:102B3000BC0011B814B817B81AB81DB810BA12B83A
:102B400015B818B81BB81EB811BA0C9400FE089539
:102B50000E944613811102C00E94E6130E94511385
:102B600080931A020E945913909353028093520249
:102B70000E945513682F70E080E090E00E94BF1023
:102B80006091ED017091EE018091EF019091F00163
:102B90000C94F71080913C0208950895CF93DF9331
:102BA00000D01F92CDB7DEB790915802943019F53E
:102BB00089837B836A8382E08093E9008FEF909121
:102BC000E800815095FD06C095ED9A95F1F700005B
:102BD0008111F5CF8091E80085FF0DC040E050E005
:102BE00063E070E0CE0101960E94DA178091E80060
:102BF0008E778093E8000F900F900F90DF91CF9128
:102C00000895BC0184E00C94CE15BC0183E00C94C3
:102C1000CE15CF93DF9320910C01222339F0209120
:102C2000520227FF03C060E222E002C068E021E018
:102C30002093E9002FEF3091E800215035FD06C0C8
:102C400035ED3A95F1F700002111F5CF2091E8001C
:102C500025FF1DC0EC0180910C01811105C040E0F1
:102C600050E068E070E003C070E040E050E0CE016A
:102C70000E94DA178091E8008E778093E80080E266
:102C8000FE01ACE1B2E001900D928A95E1F7DF918F
:102C9000CF91089580915702811109C00E94671950
:102CA0000E94C9198091E20084608093E200089537
:102CB000109257020895089508950C94FB1442E071
:102CC00061EC81E00E94E01842E261EC82E00C9449
:102CD000E01880915A02833009F45EC030F48130EC
:102CE00071F0823009F497C008958A3009F483C0E6
:102CF0008B3009F469C0893009F0A5C020C08091EB
:102D00005902813A09F09FC08091E800877F809343
:102D1000E80080915D0290915E02892B21F460E2CF
:102D20008CE192E003C060E080E090E070E00E94FF
:102D300025188091E8008B778093E80008958091B2
:102D40005902813209F07FC080915D0290915E024C
:102D5000029708F078C08091E800877F8093E800B0
:102D60008091E80082FD05C0809158028111F8CF62
:102D70006AC08091F2009091F300029729F480914B
:102D8000F1008B7F813021F48091F10080933C022F
:102D90008091E8008B7753C080915902813A09F005
:102DA00052C080915D0290915E02892B09F04BC068
:102DB0008091E800877F8093E8008091E80080FFA1
:102DC000FCCF80910C0136C0809159028132D9F537
:102DD00080915D0290915E02892BA9F58091E800B7
:102DE000877F8093E8000E94151980915B02809391
:102DF0000C010C94C60C80915902813221F580910E
:102E0000E800877F8093E8000E94151980915C029A
:102E100080933D02089580915902813AA1F48091F6
:102E2000E800877F8093E8008091E80080FFFCCF76
:102E300080913D028093F1008091E8008E7780932D
:102E4000E8000C941519089584B7877F84BF0FB6E6
:102E5000F894A8958091600088618093600010923A
:102E600060000FBE90E080E80FB6F8948093610098
:102E7000909361000FBE0E94C4080E9467190E94CF
:102E8000C9198091E20084608093E20078940E94E6
:102E9000641C0E94CE0882E091E00E945D0880914F
:102EA0005802853069F40E94C91480915602882323
:102EB000B1F30E94B014882391F30E94C417EFCF9E
:102EC0000E94D608ECCF0C946517292F33272330A6
:102ED0003105C9F060F42130310581F0223031052F
:102EE00009F04AC08BE390E02EEE32E049C0213277
:102EF000310511F12232310579F13EC082E190E0D5
:102F000029E233E03DC099278130910561F040F01E
:102F10008230910559F0039779F5E8ECF2E008C0AA
:102F2000EAEEF2E005C0EEEDF2E002C0EEECF2E017
:102F3000849190E09F0124C06115710541F06130DA
:102F40007105D1F489E090E029E133E019C089E00E
:102F500090E020E033E014C06115710541F061306C
:102F6000710551F48DE690E02BE333E009C080E475
:102F700090E028EA33E004C080E090E020E030E018
:102F8000FA0131832083089584E189BD86E189BDFA
:102F900009B400FEFDCF8091D8008F7D8093D800CA
:102FA0008091E00082608093E0008091E00081FDEC
:102FB000FCCF0895CF92DF92EF92FF920F931F9371
:102FC000CF93DF93EC018B017A010E9434198111B8
:102FD00033C0E114F10439F0F70180819181081BBD
:102FE000190BC80FD91FC12CD12C0115110519F1CE
:102FF0008091E80085FD16C08091E8008E7780936F
:10300000E800E114F10449F0F70180819181C80ED4
:10301000D91ED182C08285E00FC00E943419882356
:1030200021F30AC089918093F10001501109FFEF4B
:10303000CF1ADF0ADACF80E0DF91CF911F910F9195
:10304000FF90EF90DF90CF90089520915F02309134
:1030500060022617370748F06115710539F4209191
:10306000E8002E772093E80001C0B901FC0120E0C0
:103070006115710569F1809158028823E1F185306D
:10308000E1F18091E80083FD3AC08091E80082FD83
:103090002CC08091E80080FFEBCF8091F2009091EE
:1030A000F3006115710551F08830910538F42191D4
:1030B0002093F100615071090196F3CF21E0089748
:1030C00009F020E08091E8008E778093E800D0CF6F
:1030D0002111D1CF0AC080915802882361F0853038
:1030E00061F08091E80083FD0AC08091E80082FFD2
:1030F000F2CF80E0089582E0089583E0089581E0B2
:10310000089520915F02309160022617370748F03A
:103110006115710539F42091E8002E772093E800BD
:1031200001C0B901FC0120E06115710581F18091B8
:103130005802882309F43EC0853009F43DC08091CF
:10314000E80083FD3BC08091E80082FD2DC08091A6
:10315000E80080FFE9CF8091F2009091F3006115C3
:10316000710559F08830910540F424912093F100C5
:103170003196615071090196F2CF21E0089709F06C
:1031800020E08091E8008E778093E800CDCF211178
:10319000CECF0AC080915802882361F0853061F05B
:1031A0008091E80083FD0AC08091E80082FFF2CFA1
:1031B00080E0089582E0089583E0089581E0089515
:1031C000982F973068F59093E900981739F070912F
:1031D000EC002091ED005091F00003C0242F762FD9
:1031E00050E021FD02C09F5FECCF3091EB003E7FAD
:1031F0003093EB003091ED003D7F3093ED00309146
:10320000EB0031603093EB007093EC002093ED0005
:103210005093F0002091EE0027FDE5CF80E0089567
:103220008F708093E90081E008958091590287FFB3
:1032300011C08091E80082FD05C080915802811183
:10324000F8CF11C08091E8008B770BC080915802B5
:10325000882349F08091E80080FFF8CF8091E80052
:103260008E778093E80008952091E4003091E50086
:1032700095E64091EC00842F817040FF23C080913F
:10328000E80080FD1DC080915802882399F08530A8
:1032900099F08091EB0085FD11C04091E4005091C0
:1032A000E5002417350729F3915011F09A01E1CF79
:1032B00084E0089582E0089583E0089581E0089510
:1032C00080E008954091E80042FFDDCF08950E941C
:1032D000D8190E94E019E0EEF0E0808181608083DF
:1032E000E8EDF0E080818F77808319BCA7EDB0E036
:1032F0008C918E7F8C9380818F7E80831092570279
:1033000008950F931F93CF93DF930E94D8190E94C3
:10331000E019C8EDD0E088818F7788838881806844
:10332000888388818F7D8883E7EDF0E080818068E5
:10333000808319BC109258021092540210925602C7
:103340001092550200EE10E0F80180818B7F80839F
:1033500088818160888342E060E080E00E94E0181C
:10336000E1EEF0E080818E7F8083E2EEF0E080810C
:1033700081608083808188608083F80180818E7F76
:103380008083888180618883DF91CF911F910F9125
:103390000895E8EDF0E080818F7E8083E7EDF0E036
:1033A00080818160808381E0809357020C94811931
:1033B000E8EDF0E080818C7F80831092E200089538
:1033C0001092DA001092E10008951F920F920FB64A
:1033D0000F9211240BB60F922F933F934F935F934D
:1033E0006F937F938F939F93AF93BF93EF93FF93CD
:1033F0008091E10082FF0BC08091E20082FF07C054
:103400008091E1008B7F8093E1000E94631C80919A
:10341000DA0080FF1FC08091D80080FF1BC0809120
:10342000DA008E7F8093DA008091D90080FF0DC092
:1034300084E189BD86E189BD09B400FEFDCF81E04C
:10344000809358020E944A1605C019BC1092580277
:103450000E9458168091E10080FF19C08091E2001F
:1034600080FF15C08091E2008E7F8093E200809102
:10347000E20080618093E2008091D80080628093B6
:10348000D80019BC85E0809358020E945C16809198
:10349000E10084FF30C08091E20084FF2CC084E111
:1034A00089BD86E189BD09B400FEFDCF8091D800B9
:1034B0008F7D8093D8008091E1008F7E8093E10022
:1034C0008091E2008F7E8093E2008091E200816033
:1034D0008093E20080915402882311F084E007C0B9
:1034E0008091E30087FD02C081E001C083E080930A
:1034F00058020E945D168091E10083FF29C08091EF
:10350000E20083FF25C08091E100877F8093E10086
:1035100082E080935802109254028091E1008E7FE5
:103520008093E1008091E2008E7F8093E2008091A1
:10353000E20080618093E20042E060E080E00E946F
:10354000E0188091F00088608093F0000E945B1684
:10355000FF91EF91BF91AF919F918F917F916F916B
:103560005F914F913F912F910F900BBE0F900FBE27
:103570000F901F9018951F920F920FB60F92112463
:103580000BB60F922F933F934F935F936F937F935D
:103590008F939F93AF93BF93CF93DF93EF93FF935B
:1035A000C091E900CF708091EC00D82FD17080FDE0
:1035B000D0E81092E9008091F000877F8093F000BE
:1035C00078940E94031B1092E9008091F0008860BB
:1035D0008093F000CD2BCF70C093E900FF91EF9165
:1035E000DF91CF91BF91AF919F918F917F916F911B
:1035F0005F914F913F912F910F900BBE0F900FBE97
:103600000F901F9018951F93CF93DF93CDB7DEB720
:10361000AA970FB6F894DEBF0FBECDBFE9E5F2E082
:103620008091F100819322E0E136F207C9F70E9410
:1036300069168091E80083FF2EC180915902909114
:103640005A02492F50E04A30510508F024C1FA01CE
:10365000E659FF4F0C947F1C803821F0823809F026
:103660001AC108C08091550290915602992389F0A1
:1036700082600FC080915D028F70873008F00BC1AF
:103680008093E9008091EB0085FB882780F91092F8
:10369000E9009091E800977F9093E8008093F10013
:1036A0001092F100D1C0282F2D7F09F0F4C088239B
:1036B00019F0823061F0EFC080915B02813009F037
:1036C000EAC0933009F080E0809356022EC08091CA
:1036D0005B0281112AC080915D028F702FEF280F4D
:1036E000263008F0D8C08093E9002091EB0020FF3D
:1036F0001CC0933021F48091EB00806214C0909143
:10370000EB0090619093EB0021E030E0A90102C052
:10371000440F551F8A95E2F74093EA001092EA00A1
:103720008091EB0088608093EB001092E90080911B
:10373000E800877F8093E8000E941519ACC08111D2
:10374000AAC010915B021F778091E3008078812BE3
:103750008093E3008091E800877F8093E8000E94D7
:1037600015198091E80080FFFCCF8091E30080680C
:103770008093E300111102C082E001C083E08093D6
:10378000580289C08058823008F085C080915B0261
:1037900090915C028C3D53E0950779F583E08A8334
:1037A0008AE289834FB7F894DE01139620E03EE069
:1037B00051E2E32FF0E050935700E49120FF03C063
:1037C000E295EF703F5FEF708E2F90E0EA3010F0DF
:1037D000C79601C0C0968D939D932F5F243149F702
:1037E0004FBF8091E800877F8093E8006AE270E035
:1037F000CE0101960E94251816C060915D0270915D
:103800005E02AE014F5F5F4F0E946317BC01892BC0
:1038100009F441C09091E800977F9093E800898176
:103820009A810E9481188091E8008B778093E8004C
:1038300032C0803881F58091E800877F8093E8006E
:10384000809154028093F1008091E8008E7772CFCE
:10385000811121C080915B0290915C0299270297AF
:10386000D4F48091E800877F8093E80080915B0228
:10387000809354020E94151980915402811106C050
:103880008091E30087FD02C081E001C084E0809365
:1038900058020E945F168091E80083FF0AC0809161
:1038A000E800877F8093E8008091EB00806280933E
:1038B000EB00AA960FB6F894DEBF0FBECDBFDF9126
:1038C000CF911F9108950895CF9380915802882336
:1038D000A1F0C091E900CF709091EC00892F817028
:1038E00090FD80E8C82B1092E9008091E80083FDEC
:1038F0000E94031BCF70C093E900CF910895EE0F93
:10390000FF1F0024001C0BBE0790F691E02D0994C8
:10391000F999FECF92BD81BDF89A992780B5089597
:10392000A8E1B0E042E050E00C94BC1C262FF999CD
:10393000FECF92BD81BDF89A019700B4021639F00E
:103940001FBA20BD0FB6F894FA9AF99A0FBE0895DF
:103950000396272F0E94971C0E94961C252F0E94D9
:10396000971C242F0C94971C0196272F0E94971CBC
:103970000C94961CDC01CB01FC01F999FECF06C02A
:10398000F2BDE1BDF89A319600B40D92415050401D
:08399000B8F70895F894FFCF89
:10399800F701CA150916CD150516011601E200E949
:1039A80000EA00B500B600B700CD008301CC008A5C
:1039B80001920194012102230224022502260227F2
:1039C800022A02B300B4006F0070008182839392D0
:1039D8009190373635343332313094959697E200EA
:1039E800E900EA00B500B600B700CD008301CC00BD
:1039F8008A0192019401210223022402250226024F
:103A080027022A02B300B4006F007000818283008D
:00000001FF
