:100000000C941C020C943B020C943B020C943B029B
:100010000C943B020C943B020C943B020C943B026C
:100020000C943B020C943B020C947F1E0C94551FC5
:100030000C94D1160C943B020C943B020C943B02A2
:100040000C943B020C943B020C943B020C943B023C
:100050000C943B020C941E170C943B020C943B0234
:100060000C943B020C943B020C943B020C943B021C
:100070000C943B020C943B020C943B020C943B020C
:100080000C943B020C943B020C943B020C943B02FC
:100090000C943B020C943B023A0C3A0C6C0C6C0C2A
:1000A000B90CD70CF80DF80DE20C770D880D880D02
:1000B000E80DF80DF80DF10D980E980EAA0EAA0E87
:1000C000A10EAA0EAA0EAA0E980E980EA60EAA0EA1
:1000D000AA0EA60EC61FED1FE520ED1FE520392054
:1000E0005C20E520B320C2202B0014001A00080079
:1000F000150017001C0018000C00120013002A0045
:10010000290004001600070009000A000B000D007A
:100110000E000F0033002800E1001D001B00060048
:100120001900050011001000360037003800346255
:10013000E0000358E300E20001582C422C002C00A0
:100140005000510052004F0035003A003B003C0087
:100150003D003E00010024002500260001000100B2
:1001600001003F0040004100420043002E022100F8
:10017000220023002D00010001004400450046003C
:100180004700480025021E001F00200038002E00F6
:1001900001000100010001000153010001002700DE
:1001A000270037003600290035021E021F022002F8
:1001B00021022202230224022502260227024C00E9
:1001C000010049004A004B000100010050005100AD
:1001D00052004F002D02010001004C004D004E0066
:1001E000010001002F0230022F00300031003102E7
:1001F00001000100010001000100010001000253A3
:100200004A004E004B004D0001000100F000F900D3
:100210000100010001000100010001000100045380
:100220000100F200F100F3000100010001000100F3
:100230000100010001000100010001000100FA00BD
:1002400001000100010001000100010001000100A6
:100250000100035301000100F400F5000100F60065
:10026000AB00AA00A900AE002B00005C1A00080039
:10027000150017001C003A003B003C003D000453F1
:1002800029000400BF5CC05C09000A000B001E00CE
:100290001F00200021000100E1001D00C25CC35CC2
:1002A0001900050011001000360037003800E10089
:1002B000E000E200E300E6002C002C002C002C0003
:1002C0005000510052004F000403300000000E03A4
:1002D0007400650065006E007300790000000A0379
:1002E000720077006B006200000004030904090239
:1002F0003B00020100A032090400000103010100DB
:100300000921110100012240000705810308000AAC
:10031000090401000103000000092111010001226C
:10032000BC000705820320000A1201100100000032
:1003300008EDFE606001000102030105010902A150
:100340000185020901A100050919012905150025EA
:10035000019505750181029501750381010501096A
:100360003009311581257F950275088106093815F8
:1003700081257F950175088106050C0A38021581D3
:10038000257F950175088106C0C005010980A1017E
:10039000850319012AB700150126B70095017510CC
:1003A0008100C0050C0901A101850419012AA002E0
:1003B000150126A002950175108100C005010906EE
:1003C000A1018505050719E029E715002501950814
:1003D000750181020507190029EF1500250195F027
:1003E000750181020508190129059505750191021C
:1003F000950175039101C005010906A101050719C1
:10040000E029E71500250195087501810295017520
:100410000881010507190029FF150026FF00950630
:1004200075088100050819012905950575019102D6
:10043000950175039101C00011241FBECFEFD0E2DA
:10044000DEBFCDBF12E0A0E0B1E0ECE1F3E400E0FC
:100450000BBF02C007900D92A83AB107D9F724E06C
:10046000A8EAB2E001C01D92A334B207E1F70E94EE
:10047000BE1B0C948C210C940000ECEAF2E087E0A7
:1004800090E050E140E231E020E810821382518395
:100490005483128215821682118647834287108602
:1004A0001386148617861586108A3687318B128A32
:1004B000158A238B268B148A178A019778960097C2
:1004C00021F780E00C948002FC0190E3A0E0B1E011
:1004D00001900D929A95E1F78091A8029091A9025E
:1004E000A091AA02B091AB028F6F9F6FAF6F809304
:1004F000A8029093A902A093AA02B093AB02089518
:1005000020E3829FC0011124805D9E4F0C94640201
:100510000C943D020C94800281E0089581E00895DE
:100520000C948E0208950C9492021F93CF93DF9344
:1005300000D000D01F92CDB7DEB749835A836B83BA
:1005400030916A0389819A81311114C0662359F070
:10055000222349F00E94D413182F682F89819A8191
:100560000E947D1303C00E94A813182F69817A810D
:10057000812F04C00E94D41369817A810F900F905B
:100580000F900F900F90DF91CF911F910C944F031C
:10059000FC01262F408151816281738184810C94FA
:1005A0009502CF93DF93EC0160E00E94C802BE0188
:1005B000DF91CF910C9493020E940615811102C025
:1005C0000E94AF150E9488020C946E050C946A0577
:1005D00008950C94E80281E008950C94EB02CF9307
:1005E000C82F0E94E9028C2F0E94ED02CF9108953E
:1005F00008950E94860E0E94F8022FEF84E39CE08B
:10060000215080409040E1F700C000000C94441756
:100610000F931F93CF93DF93EC0161E00E94C80218
:100620008C01BE010E949002882379F1BE01C801AD
:100630000E947607882349F1BE01C8010E943E0846
:10064000882319F1BE01C8010E9490088823E9F0AF
:10065000BE01C8010E94BB098823B9F08A818823A2
:1006600069F001158CE5180731F00E3D1C4531F499
:100670000E94AF150AC00E94F90207C0CE01DF91A7
:10068000CF911F910F910C948C0280E0DF91CF915C
:100690001F910F91089580E090E00895089520E360
:1006A000829FC0011124FC012CE0729FE00DF11D1E
:1006B0001124E60FF11DEE0FFF1FE851FF4F85914A
:1006C00094910895880F991FFC01E853FD4F85917F
:1006D00094910895CF93DF930E944F030E94820468
:1006E000EC018115904508F041C0C11580E4D807A0
:1006F00008F0D1C0C83ED10510F5C03ED10508F0C4
:10070000FDC0C83AD10578F4C53AD10508F0A2C0B9
:10071000C130D10509F4F2C008F4EEC0C430D105EF
:1007200008F0ECC0E9C0CF3BD10508F49BC0C03C49
:10073000D10508F4E1C0CE01805C91099EC0C115CD
:1007400090E2D90758F4C11521E0D20708F0D6C0CD
:10075000C03FD10508F4D0C0D065D0C0C11580E33A
:10076000D80708F08EC0CE019F7087C0C11595E5EF
:10077000D90708F043C0C11524E5D20708F0A2C08C
:10078000C11582E5D80708F5C11591E5D90708F02C
:1007900085C0CE0174E0969587957A95E1F78370D0
:1007A0009C2F937021E030E002C0220F331F9A95F6
:1007B000E2F73C68382BCF70C695C69580E2C89F9B
:1007C000E0011124C22BD32B99C09E012370332743
:1007D0008C2F86958695C115D34508F064C0C1E07D
:1007E000D0E002C0CC0FDD1F2A95E2F720E2829F05
:1007F000C0011124C82BD92BDC6880C0C11529E5A4
:10080000D207A0F4C11588E5D80708F060C0C1156B
:1008100096E5D90708F070C08C2F0E9416058F71DD
:10082000C82FD0E0DC2FCC27D06268C0C1152AE5E4
:10083000D20708F451C0CE0190568115904208F0BD
:100840005BC08D2F8F710E941605DD27D0628F71DE
:10085000D82B54C0C55AD0E0CD59DD4FC881D0E067
:10086000D0644CC0C85AD0E0CC0FDD1FCB5CDD4F4C
:100870000990D881C02DD46441C00E946203EC016C
:100880003DC0CE019927D3FF03C0EC01D86C36C020
:10089000EC01D06C33C0DF70D06A30C0DC2FCC27C5
:1008A000C16FD06A2BC0C1E0D0E002C0CC0FDD1F09
:1008B0002A95E2F720E2829FC0011124C82BD92B90
:1008C000DA681CC0DC2FCC27C46FD06A17C0DC2FBD
:1008D000CC27C06FD06A12C08C2F8F700E94160573
:1008E00094E0D695C7959A95E1F7CF70D0E0DC2FCC
:1008F000CC27D069C82B02C0C0E0D0E0CE01DF9188
:10090000CF9108958238910569F1B0F48133910552
:1009100009F46DC048F48932910509F463C08A3244
:10092000910509F469C008958533910509F455C00E
:1009300089339105B9F00895833E910569F138F442
:10094000803E9105B1F0823E910509F10895863E01
:100950009105A9F1873E9105B9F1843E910509F011
:1009600064C023C02091340420FD4FC021FD4DC040
:1009700008958091340480FD44C08091350480FF47
:1009800044C08091340484FD42C083EE4DC0809108
:10099000340482FF38C0F5CF8091340482FD33C027
:1009A0008091350480FD31C0ECCF8091350481FF0A
:1009B00032C08091340484FD2AC087EE35C0809116
:1009C000340483FF26C0F5CF8091340483FD21C019
:1009D0008091350481FD1FC0ECCF8091340485FDEA
:1009E0001CC01DC08091340485FD19C016C08091C3
:1009F000340486FD16C017C08091340486FD13C0F0
:100A000010C089E311C082EE0FC080EE0DC080E0FF
:100A10000BC086EE09C084EE07C089E205C085E3FD
:100A200003C08AE201C081E390E00895909134040C
:100A300092FF0DC0282F2871283019F4877F846019
:100A400006C0282F2471243011F48B7F886093FF17
:100A50000DC0282F2871283119F4877E846106C0C3
:100A6000282F2471243111F48B7E88612091350464
:100A700020FF0DC0382F3871383019F4877F81601E
:100A800006C0382F3171313011F48E7F886021FF1C
:100A90000DC0282F2871283119F4877E816106C086
:100AA000282F2171213111F48E7E886194FD877E7B
:100AB0000895E82FF0E0EE0FFF1FE95DFB4F808106
:100AC00091810895089580EA8A95F1F7089508952F
:100AD0000C9467050C9468050C9467050C946C05E0
:100AE000CF93DF93A2E7B2E046E752E061E070E027
:100AF0008D91E82FE295EF70F0E021A18F70EB016E
:100B000002C0CC0FDD1F8A95E2F7CE019C2F909595
:100B1000922391A392A1892B82A34A175B0741F7E5
:100B2000A6E6B2E041E050E08D91E82FE295EF704B
:100B3000F0E021A18F70BA0102C0660F771F8A957D
:100B4000E2F7CB01962F9095922391A392A1892B46
:100B500082A372E0A237B70739F7109220041092EF
:100B60001F0410922804109227041092220410925D
:100B7000210410922A041092290410922404109245
:100B8000230410922C0410922B041092260410922D
:100B9000250410922E0410922D0484E00E94610618
:100BA000DF91CF910C94DC026F927F928F929F9293
:100BB000AF92BF92CF92DF92EF92FF920F931F936B
:100BC000CF93DF9382E7C82E82E0D82E0FE114E0A6
:100BD00097E2A92E94E0B92E712C88248394912C4D
:100BE000F60181916F01C82FC295CF70D0E099A115
:100BF0008F70740101C0EE0C8A95EAF7892F8E2957
:100C000089A38AA16E2C609486218AA30E94630521
:100C1000E6E6F2E040E050E020E030E06191A62F0F
:100C2000A295AF70B0E090968C9190E06F7002C08A
:100C3000959587956A95E2F780FD08C0C401042E5A
:100C400002C0880F991F0A94E2F702C080E090E08A
:100C5000282B392B4F5F5F4F4C305105F9F689A196
:100C6000682269A28AA1E82AEAA2F801808191811A
:100C70002817390721F03183208381E001C080E00B
:100C8000782A0E5F1F4FA016B10609F0A9CF272DB5
:100C900044E067E274E08FE194E00E9462060E9403
:100CA000E602872DDF91CF911F910F91FF90EF907A
:100CB000DF90CF90BF90AF909F908F907F906F907C
:100CC00008950895FF920F931F93CF93DF93F82E0B
:100CD000092F162FD72FC42F222349F081E08093AC
:100CE00056030E94031790935503809354038091F9
:100CF00056038823D9F080915403909155030E94A4
:100D00000F17069798F0EF2DF02FA12FBD2F80E041
:100D100090E04C2F50E08417950734F421913191E5
:100D20002D933D930196F7CF10925603DF91CF910B
:100D30001F910F91FF9008950E940615811102C026
:100D40000E94AF150E94371580932F04282F2695F7
:100D50002695269530E02430310524F0877088618F
:100D600080932F0480912F0480FF04C08695869580
:100D7000869501C080E00C948A0220912F04822F76
:100D8000869586958695482F50E04330510554F45A
:100D90008F5F982F990F990F990F822F8770892B4A
:100DA00080932F0480912F04816080932F040E94F0
:100DB0003B1580912F048695869586950C948A0222
:100DC00080912F04982F969596959695A1F0915E17
:100DD000990F990F990F8770892B80932F04887F23
:100DE00091E009F490E080912F0490FB80F98093CA
:100DF0002F040E943B1580912F0486958695869539
:100E00000C948A0280912F0480FD13C0816080932E
:100E10002F04813019F489E080932F0480912F04EE
:100E20000E943B1580912F048695869586950C949B
:100E30008A02089580912F0480FF08C08E7F8093DE
:100E40002F040E943B1580E00C948A020895809143
:100E50002F0480FD0C941A070C94020790912F0424
:100E6000892F8695869586958F5F8F7197708430D0
:100E700038F4880F880F880F892B80932F0402C0C5
:100E800090932F0480912F04887F91E009F490E0E3
:100E900080912F0490FB80F980932F040E943B15D2
:100EA00080912F048695869586950C948A028430CD
:100EB00008F083E090912F049770282F220F220FC3
:100EC000220F922B90932F04987F21E009F420E0C9
:100ED00090912F0420FB90F990932F040C948A0298
:100EE0000E94570780912F040C943B159C01FB0135
:100EF0008281882349F12D3BFCE53F07C9F040F48E
:100F00002B3BECE53E0769F02C3B3C4561F0089536
:100F10002F3B9CE5390791F070F0203C3C4589F06F
:100F2000089583E001C080E00E94700780E008958A
:100F30000E94E006FBCF0E94BD06F8CF0E94270763
:100F4000F5CF0E942E07F2CF81E00895AF92BF92B5
:100F5000CF92DF92EF92FF920F931F93CF93DF9385
:100F60007C015B01C42FD22FFC0182818823F9F020
:100F7000409359030E94031790935803809357039B
:100F800080E28C0F883008F06EC0C77081E001C02D
:100F9000880FCA95EAF7DF91CF911F910F91FF90CB
:100FA000EF90DF90CF90BF90AF900C94F60B8091B4
:100FB0005903481335C080915703909158030E94FC
:100FC0000F176C01B701C5010E943F11C816D90661
:100FD00038F510E21D0FCD17B9F080E28C0F883084
:100FE00040F4C77081E001C0880FCA95EAF70E94FB
:100FF000FD0B183058F581E09D2F977001C0880FC8
:101000009A95EAF70E94F60B802F0E94E30B1830A6
:1010100050F5D77081E001C0880FDA95EAF70AC071
:1010200080E28C0F8830F8F4C77081E001C0880F2F
:10103000CA95EAF7DF91CF911F910F91FF90EF9042
:10104000DF90CF90BF90AF900C94FD0B802FDF917D
:10105000CF911F910F91FF90EF90DF90CF90BF90B5
:10106000AF900C94E30BDF91CF911F910F91FF9004
:10107000EF90DF90CF90BF90AF9008950F939C01B9
:10108000CB01233F4CE5340731F188F4283DFCE5E2
:101090003F07D9F0293D4CE5340779F1273D3C4520
:1010A000A9F506E221EE41EE67ED7CE52BC0253F78
:1010B000FCE53F07E1F0A8F0263F3C4539F507E2A3
:1010C00025EE46EE66EF7CE51DC007E225EE45EE17
:1010D00068ED7CE517C006E221EE40EE63EF7CE5AB
:1010E00011C007E225EE44EE64EF7CE50BC006E29A
:1010F00021EE42EE65EF7CE505C008E221E045EE19
:1011000069ED7CE50E94A60780E008C0FC018281B1
:10111000882319F01092590301C081E00F910895BE
:10112000CF93DF93EC01FB018281882309F41FC177
:10113000C230FCE5DF0708F41BC1C6319CE5D907C6
:1011400038F09E012A5F3C452930310508F010C176
:101150000E9419159093350480933404C031ECE556
:10116000DE0709F4C3C008F041C0C8308CE5D807D9
:1011700009F49AC0F0F4C430ECE5DE0709F487C046
:1011800068F4C2308CE5D80709F477C0C330DC4579
:1011900009F0E3C080913404826076C0C630ECE58B
:1011A000DE0709F46EC008F07BC0809134048860CB
:1011B0006BC0CC308CE5D80709F485C068F4CA3020
:1011C000ECE5DE0709F474C008F079C00E94860ED1
:1011D00080913404806858C0CE308CE5D80709F47B
:1011E00076C008F07FC0809134048BC0CB3FECE523
:1011F000DE0709F44FC018F5C3318CE5D80709F4B0
:101200007DC078F4C131ECE5DE0709F473C0C2316A
:10121000DC4509F0A2C00E94860E809134048F77CD
:1012200033C0C5318CE5D80709F472C008F486C014
:10123000CA3FDC4509F091C0809135043EC0CF3FE4
:10124000FCE5DF0709F45FC058F4CD3F9CE5D90702
:1012500009F444C008F43FC08091350482602DC079
:10126000C130FDE5DF0709F475C008F45DC0C23088
:10127000DD4509F072C080E06EC080913404816069
:1012800003C08091340480618093340466C08091EF
:10129000340411C0809135048260809335045DC0B0
:1012A000809134048062F0CF809134048064ECCF6C
:1012B0008091340488608460E7CF8160EECF8091B4
:1012C00034048E7FE1CF809134048D7FDDCF809117
:1012D0003404877FD9CF8091350418C080913504BC
:1012E0008D7FDBCF809134048F7ECECF809134040C
:1012F0008F7DCACF809134048F7BC6CF8091340418
:10130000877F8B7FC1CF809135048D7F8E7FC5CF46
:101310008091340482FB222720F991E0922790FBF0
:1013200082F990FB83F9B0CF80913504982F909586
:1013300091708E7F892B90FB81F9AFCF0E94860E32
:101340008091340487FB222720F991E0922790FBBB
:1013500087F99ACF81E00E94B11580913404909171
:1013600035040E942A150E94860E80E001C081E0AB
:10137000DF91CF910895CF93DF9386319C4541F55E
:10138000EB010E945514982F8A8120912002309100
:101390002102882379F09A7A81E009F480E0809331
:1013A0005A03911102C069E201C065E3C9010E94BC
:1013B0004C160AC080915A03811102C069E201C033
:1013C00065E3C9010E9457160E94A31480E001C082
:1013D00081E0DF91CF9108959093600380935F0344
:1013E0000895E0915F03F0916003309721F0019040
:1013F000F081E02D099480E00895E0915F03F09181
:101400006003309799F020913402222359F0209103
:10141000340427FF07C0DC012C9111962C931197FF
:1014200025E02C930280F381E02D09940895E0914A
:101430005F03F0916003309739F022E0DC012C93D8
:101440000480F581E02D0994089520915D03309189
:101450005E032817390771F090935E0380935D0354
:10146000E0915F03F0916003309721F00680F781EF
:10147000E02D0994089520915B0330915C032817B7
:10148000390771F090935C0380935B03E0915F03F5
:10149000F0916003309721F00084F185E02D0994EC
:1014A000089585B7806885BF85B7806885BF089532
:1014B00008950C94580A0C94590A0C94580A0C94E8
:1014C000580A0E94510A0E945D0A0C945B0A81E04E
:1014D00008950C94670A0E94FA160E9470050E94F3
:1014E00076170E949C060C945F0A7F928F929F92BF
:1014F000AF92BF92CF92DF92EF92FF920F931F9322
:10150000CF93DF93CDB7DEB72A970FB6F894DEBF3F
:101510000FBECDBF0E94D4050E94690A811111C07F
:101520008FEF89838A831B820E9403178160782F43
:101530009D838C8349815A816B818D810E94250B0B
:101540004FC042E6A42E43E0B42E00E010E0702E1F
:10155000802F0E9459056C01F501819091905F01E7
:10156000882699268114910431F40F5F1F4F0430AF
:10157000110569F7D5CF8091EE0381FD0E946205C8
:1015800080E0EE24E394F12C94012E213F21232BC3
:1015900009F18E837F82CE20DF2081E0CD2809F4FF
:1015A00080E088870E9403178160782F9A87898757
:1015B0004E815F8168858A850E94250B000F111F6F
:1015C000F801EE59FC4F80819181E826F926F182DD
:1015D000E08206C08F5FEE0CFF1C8C30A9F6C5CFF1
:1015E0000E9425190E94F109909161038917C9F0A1
:1015F0000E94F109809361032A960FB6F894DEBF2A
:101600000FBECDBFDF91CF911F910F91FF90EF9053
:10161000DF90CF90BF90AF909F908F907F900C9471
:10162000EF022A960FB6F894DEBF0FBECDBFDF9152
:10163000CF911F910F91FF90EF90DF90CF90BF90CF
:10164000AF909F908F907F900895CF93DF93CDB709
:10165000DEB72B970FB6F894DEBF0FBECDBF4F831A
:10166000588769877A878B87DE01119686E0FD01AE
:1016700011928A95E9F785E0FE01379601900D9267
:101680008A95E1F749815A816B817C818D819E81A8
:101690000E9442112B960FB6F894DEBF0FBECDBF4D
:1016A000DF91CF910895FC01808191810E941614F1
:1016B0000895CF93882309F450C0C82F8CEF8C0F66
:1016C000813AD0F46C2F80912002909121020E94E7
:1016D000CC15882349F06C2F809120029091210233
:1016E0000E9457160E94A3146C2F809120029091A3
:1016F00021020E944C160CC080E28C0F883058F4F6
:10170000C77081E001C0880FCA95EAF70E9458149B
:10171000CF910C94A314EBE5EC0FE33040F4F0E030
:10172000EC55FD4F808190E0CF910C94250AE8E5BF
:10173000EC0FE73150F4F0E0EE0FFF1FEA58FD4FD9
:1017400080819181CF910C943B0AC03F30F08C2F67
:101750000E941A18CF910C940719CF9108958823ED
:1017600089F19CEF980F913A40F4682F8091200204
:10177000909121020E9457160DC090E2980F983068
:1017800058F4877091E001C0990F8A95EAF7892F84
:101790000E945E140C94A3149BE5980F933020F4E0
:1017A00080E090E00C94250A98E5980F973120F49A
:1017B00080E090E00C943B0A803F20F00E94821869
:1017C0000C9407190895CF93C82F0E94590BC93361
:1017D00049F42FEF87EE93E0215080409040E1F7ED
:1017E00000C000008C2FCF910C94AF0B882321F008
:1017F0000E9458140C94A3140895882321F00E9489
:101800005E140C94A3140895CF92DF92EF92FF928E
:101810000F931F93CF93DF937C01062FC72FFC01FB
:10182000158112951F70D281D1110E9475140E94EA
:101830004E14882399F0DD2389F08C2F807F80342B
:1018400021F080E2800F883048F082E00E94ED14A1
:101850000E944E1491E0D82ED92601C0D12CCC2E56
:10186000C2948FE0C8228C2D90E0FC01E45BFF4F16
:101870000C942D218C2F807FCF70882311F0C2957E
:10188000C07FDD2399F0CC2309F48DC180E2800F65
:10189000883010F0011104C08C2F0E94581403C02E
:1018A0008C2F0E9468140E94A3147DC1802F0E9477
:1018B000AF0BCC2309F49CC180E2800F883010F07C
:1018C000011104C08C2F0E945E1403C08C2F0E9453
:1018D0006E140E94A3148CC18C2F807FCF70803235
:1018E00011F0C295C07F002319F00130C9F022C069
:1018F000DD2371F0112341F0113031F40E9488147E
:101900008C2B0E94901474C10E9488148C2B1DC0D3
:10191000112319F0113009F46BC10E94991425C0EC
:10192000DD2321F0163008F063C10EC0153008F039
:101930005FC11BC0DD2361F0112331F0F701858108
:1019400080FF31C18F7085838C2F0E94F60B50C1B0
:10195000112359F0093309F037C1FFEF27EE83E077
:10196000F15020408040E1F72DC18C2F0E94FD0BEB
:101970003FC18C2F86958695837019F0813061F078
:1019800037C1DD2321F0802F9C2F937002C080E0AF
:1019900090E00E94250A34C1DD2321F0802F9C2F86
:1019A000937002C080E090E00E943B0A29C1802F22
:1019B000DD2319F00E941A1802C00E9482180E94AA
:1019C00007191EC18C2F837009F045C0D11114C1B5
:1019D000402F429546954770440F440F602F6F701B
:1019E000862F90E0A0E0B0E0042E04C0880F991F7D
:1019F000AA1FBB1F0A94D2F704FF10C00FE010E02B
:101A000020E030E004C0000F111F221F331F4A9551
:101A1000D2F7009510952095309503C000E010E0B6
:101A20009801C695C695C370BC01CD01602B712B82
:101A3000822B932BC23049F058F4C13019F00E9428
:101A40009312DAC00E948112D7C00E94A512D4C09E
:101A50000E947F12D1C0DD2319F08C2F817001C04C
:101A60008695882309F4C8C0402F42954695477053
:101A7000440F440F602F6F70862F90E0A0E0B0E01D
:101A8000042E04C0880F991FAA1FBB1F0A94D2F707
:101A900004FF10C00FE010E020E030E004C0000FB1
:101AA000111F221F331F4A95D2F7009510952095DC
:101AB000309503C000E010E09801C695C695C3704C
:101AC000BC01CD01602B712B822B932BC23049F0CE
:101AD00058F4C13019F00E9458138EC00E9446136A
:101AE0008BC00E946A1388C00E94B91285C0CF7053
:101AF000DD2339F08C2F0E94DF12802F0E94F60B1D
:101B00007BC0802F0E94FD0B8C2F0E94001374C09D
:101B1000023F01F128F4003F41F0013FA1F03FC036
:101B2000033FF9F0043F39F13AC0DD2341F01530AD
:101B300008F05EC08C2F8F710E94251359C016309B
:101B400008F056C0F7CFDD2339F08C2F8F710E943B
:101B5000DF124EC0DD23C9F38C2F8F710E9400135A
:101B600047C0DD2329F08C2F8F710E94CA1240C01C
:101B70000E94C5123DC0DD2349F0CF718C2F0E9419
:101B8000DF1263E08C2F0E94D81432C081E00E94E3
:101B9000ED14123068F182E00E94ED1429C0DD23BB
:101BA00031F0112391F2802F0E94590B21C0112393
:101BB00099F2093349F49FEFE7EEF3E09150E040EA
:101BC000F040E1F700C00000802F0E94AF0B10C072
:101BD0004C2F4F70602FC7010E944B030E94F011E1
:101BE0000FC04C2F4F70602FC7010E944E0308C0DA
:101BF00088EF8C0D843020F40E94F1090E94EF02DE
:101C0000DD20C9F00E944A1480FD15C0F701128240
:101C10000E9444140E94DF12C7010E943C0E0E94E1
:101C20004414DF91CF911F910F91FF90EF90DF90BF
:101C3000CF900C940013DF91CF911F910F91FF90E3
:101C4000EF90DF90CF9008950F931F93CF93DF9382
:101C5000EC01688179818A810E9421148C010E94A3
:101C60007C130E946D12B801CE010E94040CDF911A
:101C7000CF911F910F910895CF93DF93EC0198813D
:101C800089812B813C81232B31F08F3F31F481E01E
:101C90009F3F19F403C081E001C080E080FD19C0BE
:101CA000CE010E94080381110CC00E944E148823AB
:101CB00081F08A81882369F082E0DF91CF910C94D2
:101CC000ED14CE010E94240ECE01DF91CF910C9431
:101CD000D102DF91CF9108950E9475140E9485145E
:101CE0000E94A3140E94381A0E94071980E090E015
:101CF0000E94250A80E090E00C943B0A809120022B
:101D0000909121020E9462160C946C0E0E94651440
:101D10000C947E0EE92FE295EF704E2F50E0FA0101
:101D20003297EE30F105B0F4E45AFF4F0C942D21B8
:101D3000803F91F018F4883E68F40EC0843F51F45F
:101D40000BC0883E48F0813F29F406C093FB8827EA
:101D500080F9089580E0089581E008950E941614A6
:101D60000E948A0E0895CF93DF9300D000D01F9277
:101D7000CDB7DEB70F900F900F900F900F90DF91BF
:101D8000CF910895CF93DF9300D000D000D0CDB78E
:101D9000DEB726960FB6F894DEBF0FBECDBFDF913B
:101DA000CF9108951F93CF93DF93C0916B0316E0FB
:101DB00080916C03C81799F0D0E01C9FF0011D9F23
:101DC000F00D1124E359FC4F4081518162817381F0
:101DD000848195810E94C20E2196C770E9CFDF9160
:101DE000CF911F91089540919D0350919E03609162
:101DF0009F037091A0038091A1039091A2030C9482
:101E0000C20E0F931F93CF93DF938091A20382950D
:101E10008F7009F05DC080919F03882309F458C03A
:101E200080916B0310916C0360919D0370919E03F0
:101E3000C091A003D091A10391E06F3F09F090E021
:101E4000292F06E0811709F443C0209721F07F3F36
:101E500021F030E003C031E001C0322F90E030FDCE
:101E600034C0089FF001099FF00D1124DF01A35930
:101E7000BC4F11963C911197371327C03C913613F4
:101E800024C012963C91129731111FC013964D91A8
:101E90005C9114974C1B5D0B483C5105B0F480914C
:101EA000A2038F7080618093A203EE58FC4F808163
:101EB0008F70806180838DE993E00E943C0EDF91FA
:101EC000CF911F910F910C94D20E01968770BACFCB
:101ED000DF91CF911F910F9108959F92AF92BF9282
:101EE000CF92DF92EF92FF920F931F93CF93DF93E6
:101EF000CDB7DEB761970FB6F894DEBF0FBECDBF8A
:101F00008C0185E0F801DE011D9601900D928A9505
:101F1000E1F7F80140815181E28090919D03609149
:101F20009E032091A0033091A1032115310531F0CA
:101F30006F3F31F481E09F3F19F403C081E001C09D
:101F400080E0F82FF1709F2E80FD46C1F801A3803C
:101F5000B4808DE9C82E83E0D82EF0909F03F50160
:101F6000E21BF30BFF2009F4DFC08091A203E83CE1
:101F7000F10508F09BC0282F207F09F052C05613AE
:101F800013C0491311C0FE2CE1100EC08F70806188
:101F90008093A2030E94F30EC6010E943C0E809122
:101FA000A203F801858358C1AB2831F05F3F31F4BB
:101FB00081E04F3F19F403C081E001C080E080FD63
:101FC00003C081E08E2502C080E090E0F82FF17020
:101FD000FF2E80FF1CC080916B0320916C0336E0C4
:101FE000821709F417C190E0389FF001399FF00D76
:101FF0001124E359FC4F6181561306C060814613DA
:1020000003C06281E61203C001968770E9CFFE2CFF
:10201000EE2009F421C18091A20381608093A20384
:102020005AC0561306C0491304C0E11002C0F8019B
:102030009FC04D875E878D859E850E94AE0E88234A
:1020400079F1EE2069F12091A203822F82958F70A1
:1020500090E0029774F080919D0390919E03988781
:102060008F831986BB86AA862C87CE0107960E948D
:102070003C0E86E0F801ADE9B3E001900D928A953F
:10208000E1F70E94010F0E94F30E0DC0561729F1CF
:102090004D875E878D859E850E94AE0E81112CC076
:1020A000C8010E943C0EFF24F394D6C0282F207F45
:1020B00069F77A2DB98AA88A6E2D89890E94B30E94
:1020C0008DE993E00E943C0E86E0F60111928A951C
:1020D000E9F70E94F30EF12CBFC04913D9CFE110EC
:1020E000D7CFF8018583C8010E943C0E86E0F60137
:1020F00011928A95E9F7B0C0EE2091F22091A203E7
:10210000822F82958F7090E002970CF4B2CF80916D
:102110009D0390919E039A8389831B82BD82AC822A
:102120002E83CE010196A3CFE83CF10508F047C00D
:10213000FE2CEE2009F4B4CF561330C049132EC044
:102140002091A20320FD21C0822F82958F70482FFD
:1021500050E041155105C9F0F80125834F30510574
:1021600041F08F5F982F9295907F822F8F70892BEF
:102170008583C8010E943C0E86E0F801ADE9B3E01A
:1021800001900D928A95E1F742C086E0F801ADE931
:10219000B3E001900D928A95E1F75EC04D875E87AE
:1021A0008D859E850E94AE0E811163CF8091A20322
:1021B00081608093A203C8010E943C0E4DC07A2D1D
:1021C000B98AA88A6E2D89890E94B30E86E0F6012D
:1021D00011928A95E9F71BC0EE2009F461CF4D8773
:1021E0005E878D859E850E94AE0EF82E882309F4A9
:1021F00057CF86E0F801ADE9B3E001900D928A95E2
:10220000E1F78DE993E00E94530B0E94010F0E94B9
:10221000F30E22C04D875E878D859E850E94161421
:10222000292F22952F70223028F49F7039F08111C8
:1022300005C00BC0243028F49F7049F4805E8830BC
:1022400020F0C8010E943C0E9F2CF92C05C0F8011B
:102250009581907F99F7F9CF8F2D61960FB6F894FD
:10226000DEBF0FBECDBFDF91CF911F910F91FF90C9
:10227000EF90DF90CF90BF90AF909F90089588EC43
:1022800090E008951F93CF93DF93CDB7DEB72C97DF
:102290000FB6F894DEBF0FBECDBF4F835887698756
:1022A0007A878B879C87CE0107960E946D0F8823C3
:1022B000D1F09F8188852A853B85232B31F08F3F84
:1022C00031F481E09F3F19F403C081E001C080E058
:1022D00080FD47C04F81588569857A858B859C85AF
:1022E0000E94C20E3EC086E0FE013796DE011196C6
:1022F00001900D928A95E1F7FF81E8856A857B85DB
:102300006115710531F0EF3F31F481E0FF3F19F4C1
:1023100003C081E001C080E080FD23C020916C03F8
:1023200030E0C90101968770992740916B0350E016
:1023300084179507F1F1F983EA837D836C8396E036
:10234000929FD001939FB00D1124A359BC4FFE0161
:10235000319601900D929A95E1F780936C030E945B
:10236000D20E16E080916B0390916C03891771F186
:10237000189FC001112483599C4F0E946D0F882320
:1023800029F1E0916B031E9FF0011124E359FC4FEA
:102390004081518162817381848195810E94C20E46
:1023A00080916B0390E001968770992780936B036F
:1023B000D9CF0E94860E10926C0310926B03EDE948
:1023C000F3E086E0DF011D928A95E9F72C960FB6BF
:1023D000F894DEBF0FBECDBFDF91CF911F9108955E
:1023E000EF92FF920F931F93CF93DF938C01892B72
:1023F00009F46CC0F12CEE24E394E8012196F80175
:102400008491843740F4843008F051C0813081F0E9
:10241000823019F15BC0853709F444C0A8F19CE70C
:10242000980F903708F052C08F770E94AF0B41C0D1
:102430000E5F1F4FFE01849190E2980F983050F488
:102440008770FE2D01C0FF0F8A95EAF78F2F0E943B
:10245000781414C00E94590B2DC00E5F1F4FFE014F
:10246000849190E2980F983060F48770FE2D01C03F
:10247000FF0F8A95EAF78F2F0E947E140E94A31403
:1024800019C00E94AF0B16C00E5F1F4FFE01C49112
:10249000CC2381F08FE99FE00197F1F700C00000A5
:1024A000C150F6CF0E5F1F4FFE01F49003C00E9493
:1024B000590B8E018F2D882309F49FCFEFE9FFE0A0
:1024C0003197F1F700C000008150F5CFDF91CF9137
:1024D0001F910F91FF90EF900895089508950C9427
:1024E0006E120C946F120E9471126093C503709368
:1024F000C6038093C7039093C8030C946C0E0C948E
:1025000073120F931F930091C5031091C60320917E
:10251000C7033091C803602B712B822B932B1F9123
:102520000F910C9473120F931F930091C503109198
:10253000C6032091C7033091C8036023712382230F
:1025400093231F910F910C9473120F931F9300917B
:10255000C5031091C6032091C7033091C8036027BB
:102560007127822793271F910F910C9473120C945B
:102570006E120E94B7126093C1037093C2038093DE
:10258000C3039093C4030C946C0E60E070E0CB0125
:102590000C94B9120F931F9341E050E060E070E09B
:1025A0008A019B0104C0000F111F221F331F8A954F
:1025B000D2F7C901B8011F910F910C94B9120F9372
:1025C0001F9341E050E060E070E004C0440F551FED
:1025D000661F771F8A95D2F78091C1039091C2033D
:1025E000A091C303B091C4038A019B01082B192B4E
:1025F0002A2B3B2BC901B8011F910F910C94B912E2
:102600000F931F9341E050E060E070E004C0440F7E
:10261000551F661F771F8A95D2F740955095609594
:1026200070958091C1039091C203A091C303B091B2
:10263000C4038A019B01082319232A233B23C901D0
:10264000B8011F910F910C94B9120F931F9341E0A1
:1026500050E060E070E004C0440F551F661F771F14
:102660008A95D2F78091C1039091C203A091C303D0
:10267000B091C4038A019B01082719272A273B2709
:10268000C901B8011F910F910C94B9120F931F93B8
:102690000091C1031091C2032091C3033091C40380
:1026A000602B712B822B932B1F910F910C94B912DD
:1026B0000F931F930091C1031091C2032091C30394
:1026C0003091C40360237123822393231F910F91C0
:1026D0000C94B9120F931F930091C1031091C20380
:1026E0002091C3033091C403602771278227932769
:1026F0001F910F910C94B91208952CE0929F800DB8
:102700001124E82FE695E695E695877051E001C023
:10271000550F8A95EAF785E0E89FF0011124ED5501
:10272000FC4F20E030E070E04081CB01022E02C07F
:10273000969587950A94E2F7817081958427852381
:10274000842781932F5F3F4F2530310569F7089526
:102750002CE0929F800D1124682F669566956695F2
:10276000982F977085E0689FB001112440E050E0F9
:1027700080E0FB01E40FF51FED55FC4F208130E0B8
:10278000092E02C0369527950A94E2F72170332767
:10279000042E01C0220F0A94EAF7822B4F5F5F4F8D
:1027A0004530510531F70895BF92CF92DF92EF92F5
:1027B000FF920F931F93CF93DF938C01C090C103BF
:1027C000D090C203E090C303F090C4038091C5038E
:1027D0009091C603A091C703B091C803C82AD92A13
:1027E000EA2AFB2ACFE1D0E0D701C6010C2E04C0B3
:1027F000B695A795979587950A94D2F780FD04C062
:10280000219790F7B12C07C0BC2EB8018C2F0E94E5
:102810006A030197A9F38B2DDF91CF911F910F913F
:10282000FF90EF90DF90CF90BF900895CF93DF930C
:10283000EC010E94D413BE010E946A03DF91CF9184
:1028400008951F93CF93DF93EB0190916A0399232F
:1028500021F0CB010E94161413C0882349F0CB014C
:102860000E94D413182F682FCE010E947D1304C03C
:10287000CB010E94A813182FBE01812F0E946A036A
:10288000DF91CF911F9108958091C903859585951A
:10289000859508958091C903877008959091C90323
:1028A000977081E009F480E008958091ED03089528
:1028B0009091ED03892B8093ED030895809590917D
:1028C000ED0389238093ED0308951092ED0308959D
:1028D0009091EC03892B8093EC030895809590915F
:1028E000EC0389238093EC0308951092EC03089580
:1028F0009091EB03892B8093EB0308958095909141
:10290000EB0389238093EB0308951092EB03089562
:102910008091CA03089508950C948B140C948C1420
:102920009091CA03981721F08093CA030C948E14D7
:1029300008958091CA03882329F01092CA0380E089
:102940000C948E140895E0912002F0912102809160
:10295000ED038083E0912002F0912102908180912B
:10296000EC03892B8083E0912002F0912102908179
:102970008091EB03892B80838091CA03882381F0A7
:10298000E0912002F09121029081892B8083809137
:102990002002909121020E94B61581110E94991483
:1029A00080912002909121020C94FD090C948B14CB
:1029B00098E0899F90011124262B2093C9030E943F
:1029C000DF128091C9038595859585950C94D61461
:1029D0001092C90380E00C94D6142091C90380950D
:1029E00082238093C903982F977079F430E0482FA1
:1029F000082E000C550B2417350739F08595859561
:102A000085950E9400130C94E814089580E090E0EE
:102A10000E94522121E08C3E9E4F09F020E0822F3F
:102A2000089582E090E00C944A2183E090E00C94B9
:102A30004A21CF9384E090E00E944A21C82F81E28E
:102A400090E00E944A212C2F30E0A901582BCA01A6
:102A5000CF910895CF93C92F682F84E090E00E9412
:102A600058216C2F81E290E0CF910C94582186E0A0
:102A700090E00C944A21682F86E090E00C94582155
:102A8000AB01BC018FE090E00C946A21AB01BC016A
:102A900083E190E00C946A2160E070E0CB010C943B
:102AA000461560E070E0CB010E9440150C944C1577
:102AB0006CEE7EEF80E090E00E94762160E082E0A4
:102AC00090E00E94582160E083E090E00E9458214D
:102AD0001092C5031092C6031092C7031092C80348
:102AE00060E084E090E00E94582160E081E290E0A4
:102AF0000E94582160E085E090E00E94582160E04B
:102B000086E090E00E9458216FEF87E090E00E94FD
:102B1000582140E050E0BA0188E090E00E946A212C
:102B200060E08DE090E00E94582140E050E0BA0162
:102B300088E190E00E946A2160E087E190E00E94D5
:102B4000582140E050E0BA018CE190E00E946A21F7
:102B500060E080E290E00E9458210C9451150C94A2
:102B60005815682F8EE090E00C945821FC013296A5
:102B700080913402882331F08091340487FF02C0B1
:102B80009EE101C096E080E0915028F0219122233F
:102B9000D9F38F5FF9CF0895662351F12091340264
:102BA0002223E9F02091340427FF19C0462F4695CF
:102BB000469546954E31E0F4677021E030E002C062
:102BC000220F331F6A95E2F7FC01E40FF11D8281A9
:102BD00090E02823392381E0232B69F409C0FC010C
:102BE000329608962191621729F0E817F907D1F774
:102BF00080E0089581E008959C01FC0132969FEFEA
:102C000080E04191461789F09F3F19F4411101C0BE
:102C1000982F8F5F8630A9F79F3F39F0F901E90FB0
:102C2000F11D97FDFA956283089508959C012A5F2E
:102C30003F4FFC014281461301C012820196821768
:102C40009307B9F70895262F2695269526952E31B8
:102C500068F4FC01E20FF11D677021E030E001C073
:102C6000220F6A95EAF78281282B22830895262F66
:102C70002695269526952E3170F4FC01E20FF11D64
:102C8000677021E030E001C0220F6A95EAF72095D5
:102C9000828128232283089520913402222329F05F
:102CA0002091340427FD0C9423160C94FC152091DC
:102CB0003402222329F02091340427FD0C94371686
:102CC0000C94161620913402FC013296222331F026
:102CD0008091340487FF02C08EE101C086E0DF01ED
:102CE0001D928A95E9F7089508950C9474160C9432
:102CF0007416CF930E9477160E94D4050E94751611
:102D0000C0E08C2F0E945905892B29F4CF5FC43075
:102D1000C1F780E001C081E0CF9108950C94741652
:102D20000C948E160E94901680913A04843061F1C2
:102D30001092EF0320E488E190E00FB6F894A89594
:102D4000809360000FBE2093600080E00E948A02A2
:102D500080E00E94EF020E94901683B7817F84601A
:102D600083BF83B7816083BF7894889583B78E7F54
:102D700083BF0FB6F894A895809160008861809316
:102D80006000109260000FBE08950C9474160E94AB
:102D9000860E0E949C060E94F1090E94EF020C948C
:102DA000C5161F920F920FB60F9211248F939F9307
:102DB000AF93BF938091EF03811113C080913004D2
:102DC00090913104A0913204B09133044196A11D39
:102DD000B11D8093300490933104A0933204B093DA
:102DE0003304BF91AF919F918F910F900FBE0F90C1
:102DF0001F90189582E084BD93E095BD9AEF97BD32
:102E000080936E0008952FB7F894809130049091CC
:102E10003104A0913204B09133042FBF08959C0176
:102E20004FB7F8948091300490913104A09132040E
:102E3000B09133044FBF821B930B089578941F9277
:102E40000F920FB60F9211248F939F93AF93BF935E
:102E50008091300490913104A0913204B0913304F8
:102E60000196A11DB11D8093300490933104A0936D
:102E70003204B0933304BF91AF919F918F910F9023
:102E80000FBE0F901F901895F89481E08093E0009A
:102E900080E28093D800E9ECF0E010828FE19EE4BC
:102EA0000197F1F700C000001DBA109268001CBC29
:102EB00010BE1FBA10927A0010926E0010926F002E
:102EC000109270001092710010821092BC0011B824
:102ED00014B817B81AB81DB810BA12B815B818B87F
:102EE0001BB81EB811BA0C9400FE08950E94061576
:102EF000811102C00E94AF150E9411158093EE034C
:102F00000E94191590933504809334040E9415157E
:102F1000682F70E080E090E00E947F126091C10312
:102F20007091C2038091C3039091C4030C94B712B3
:102F30008091F60380FF0BC06091270285E0689FB7
:102F4000B001112475956795759567952BC081FF24
:102F500009C06091270285E0689FB0011124759532
:102F6000679520C082FF07C06091270285E0689FB7
:102F7000B001112417C09091F5039923D1F060910D
:102F80002602961788F72091270285E0289F900156
:102F90001124929FA001939F500D112470E0CA014B
:102FA0000E9419216038710540F46115710519F40A
:102FB00006C065E070E0862F08958FE7089581E0F0
:102FC00008958091F60380FF08C06091230270E0AD
:102FD000759567957595679521C081FF06C06091CD
:102FE000230270E07595679519C082FF04C0609157
:102FF000230270E010C09091F403992399F060913E
:1030000022029617A0F780912302899FC001112404
:1030100070E00E9419216038710540F46115710556
:1030200019F406C061E070E0862F08958FE70895D7
:1030300081E00895803F21F40E949817819504C093
:10304000813F29F40E9498178093FA030895823FE4
:1030500021F40E949817819504C0833F29F40E94AF
:1030600098178093F9030895893F19F40E94E11796
:1030700005C08A3F31F40E94E11781958093FB03DC
:1030800008958B3F21F40E94E117819504C08C3F85
:1030900029F40E94E1178093FC030895843F21F4F2
:1030A0008091F803816017C0853F21F48091F80377
:1030B000826011C0863F21F48091F80384600BC0C8
:1030C000873F21F48091F803886005C0883F31F480
:1030D0008091F80380618093F80308958D3F21F477
:1030E0008091F60381600BC08E3F21F48091F6033E
:1030F000826005C08F3F29F48091F603846080933D
:10310000F6030895803F39F48091FA0387FF6AC07F
:103110001092FA0367C0813F29F48091FA031816D0
:10312000BCF360C09091F903823F29F497FF5AC025
:103130001092F90357C0833F19F41916CCF352C00B
:103140009091FB03893F31F419160CF04BC010929B
:10315000FB0348C08A3F19F497FF44C0F8CF8B3F68
:1031600039F48091FC0387FF3DC01092FC033AC004
:103170008C3F29F48091FC031816BCF333C0843FC4
:1031800021F48091F8038E7F17C0853F21F4809150
:10319000F8038D7F11C0863F21F48091F8038B7F67
:1031A0000BC0873F21F48091F803877F05C0883FDB
:1031B00031F48091F8038F7E8093F80313C08D3F24
:1031C00021F48091F6038E7F0BC08E3F21F4809115
:1031D000F6038D7F05C08F3F29F48091F6038B7F26
:1031E0008093F6038091F903811106C08091FA0360
:1031F000811102C01092F5038091FB03811106C07A
:103200008091FC03811102C01092F40308950E9482
:1032100003172091F903211104C02091FA032223FE
:1032200021F09093F3038093F2032091FB0321118B
:1032300004C02091FC03222321F09093F10380939A
:10324000F00387EF93E00C94170AEF92FF920F932D
:103250001F93CF93DF9300D000D000D0CDB7DEB75F
:1032600086E0E7EFF3E0DE01119601900D928A957A
:10327000E1F7E090F903F090FA030091FB0310915D
:10328000FC031092F9031092FA031092FB031092C0
:10329000FC03E11003C0FF2009F45DC08091F2033C
:1032A0009091F3030E940F17AC019091F5039923BD
:1032B00039F02091280230E02417350758F04BC030
:1032C000209129028AE0289F9001112424173507B4
:1032D00018F041C09F3F19F09F5F9093F503EE20D7
:1032E00061F00E9498171E1414F09FEF01C091E046
:1032F000989F902D11249093F903FF2061F00E9474
:1033000098171F1414F09FEF01C091E0989F902D23
:1033100011249093FA033091F9033323E1F02091C3
:10332000FA032223C1F045EB3403C0011124992391
:1033300019F09093F90303C081E08093F90335EB12
:103340002303C0011124992319F09093FA0303C0B9
:1033500081E08093FA03011103C0112309F45DC0D9
:103360008091F0039091F1030E940F17AC019091AE
:10337000F403992339F02091240230E02417350713
:1033800058F04BC0209125028AE0289F900111241B
:103390002417350718F041C09F3F19F09F5F9093A5
:1033A000F403002361F00E94E117101614F09FEF60
:1033B00001C091E0989F902D11249093FB0311235D
:1033C00061F00E94E117111614F09FEF01C091E027
:1033D000989F902D11249093FC033091FB0333238D
:1033E000E1F02091FC032223C1F045EB3403C0013E
:1033F0001124992319F09093FB0303C081E080937B
:10340000FB0335EB2303C0011124992319F090939A
:10341000FC0303C081E08093FC038091F9038111D8
:103420000BC08091FA03811107C08091FB038111C9
:1034300003C08091FC0381110E940719EB82FC827A
:103440000D831E8386E0FE013196A7EFB3E0019065
:103450000D928A95E1F726960FB6F894DEBF0FBE5F
:10346000CDBFDF91CF911F910F91FF90EF90089505
:10347000E7EFF3E086E0DF011D928A95E9F710920D
:10348000F5031092F4031092F603089580911D0441
:103490000895CF93DF9300D01F92CDB7DEB7909100
:1034A0003A04943019F589837B836A8382E08093A0
:1034B000E9008FEF9091E800815095FD06C095EDF1
:1034C0009A95F1F700008111F5CF8091E80085FF12
:1034D0000DC040E050E063E070E0CE0101960E9434
:1034E000741C8091E8008E778093E8000F900F9015
:1034F0000F90DF91CF910895BC0184E00C94491A9C
:10350000BC0183E00C94491A22E02093E9002FEFDC
:103510003091E800215035FD06C035ED3A95F1F7C0
:1035200000002111F5CF2091E80025FF0BC040E0FD
:1035300050E066E070E00E94741C8091E8008E7795
:103540008093E8000895CF93DF93209134022223E3
:1035500039F02091340427FF03C060E222E002C06A
:1035600068E021E02093E9002FEF3091E80021503E
:1035700035FD06C035ED3A95F1F700002111F5CF84
:103580002091E80025FF1DC0EC01809134028111DB
:1035900005C040E050E068E070E003C070E040E04B
:1035A00050E0CE010E94741C8091E8008E778093D9
:1035B000E80080E2FE01ADEFB3E001900D928A9544
:1035C000E1F7DF91CF91089580913904811109C00D
:1035D0000E94011E0E94631E8091E200846080931D
:1035E000E2000895109239040895089508950C9406
:1035F000C71642E061EC81E00E947A1D42E261EC74
:1036000082E00C947A1D80913C04833009F45EC002
:1036100030F4813071F0823009F497C008958A3017
:1036200009F483C08B3009F469C0893009F0A5C062
:1036300020C080913B04813A09F09FC08091E8004E
:10364000877F8093E80080913F0490914004892B0C
:1036500021F460E28DEF93E003C060E080E090E051
:1036600070E00E94BF1C8091E8008B778093E80097
:10367000089580913B04813209F07FC080913F041E
:1036800090914004029708F078C08091E800877F0D
:103690008093E8008091E80082FD05C080913A04A3
:1036A0008111F8CF6AC08091F2009091F3000297E7
:1036B00029F48091F1008B7F813021F48091F10019
:1036C00080931D048091E8008B7753C080913B0468
:1036D000813A09F052C080913F0490914004892BB7
:1036E00009F04BC08091E800877F8093E8008091CB
:1036F000E80080FFFCCF8091340236C080913B040B
:103700008132D9F580913F0490914004892BA9F52D
:103710008091E800877F8093E8000E94AF1D809130
:103720003D04809334020C94860E80913B048132D8
:1037300021F58091E800877F8093E8000E94AF1D0B
:1037400080913E0480931E04089580913B04813A49
:10375000A1F48091E800877F8093E8008091E800E1
:1037600080FFFCCF80911E048093F1008091E800DF
:103770008E778093E8000C94AF1D089584B7877FFF
:1037800084BF0FB6F894A8958091600088618093FB
:103790006000109260000FBE90E080E80FB6F894D1
:1037A00080936100909361000FBE0E94610A0E94A5
:1037B000011E0E94631E8091E20084608093E200FB
:1037C00078940E94FE200E946B0A8AE292E00E9496
:1037D000EC0980913A04853069F40E949216809138
:1037E00038048823B1F30E947916882391F30E944C
:1037F0005E1CEFCF0E94750AECCF0C94FF1B292FA3
:10380000332723303105C9F060F42130310581F0D0
:103810002230310509F04AC08BE390E02EEE32E011
:1038200049C02132310511F12232310579F13EC012
:1038300082E190E029E233E03DC099278130910593
:1038400061F040F08230910559F0039779F5E8EC8A
:10385000F2E008C0EAEEF2E005C0EEEDF2E002C0F0
:10386000EEECF2E0849190E09F0124C061157105B7
:1038700041F061307105D1F489E090E029E133E055
:1038800019C089E090E020E033E014C061157105B3
:1038900041F06130710551F48CEB90E02BE333E0A3
:1038A00009C080E490E027EF33E004C080E090E0BE
:1038B00020E030E0FA0131832083089584E189BD5E
:1038C00086E189BD09B400FEFDCF8091D8008F7DCF
:1038D0008093D8008091E00082608093E000809126
:1038E000E00081FDFCCF0895CF92DF92EF92FF922E
:1038F0000F931F93CF93DF93EC018B017A010E940A
:10390000CE1D811133C0E114F10439F0F70180813B
:103910009181081B190BC80FD91FC12CD12C01157F
:10392000110519F18091E80085FD16C08091E8002D
:103930008E778093E800E114F10449F0F70180816B
:103940009181C80ED91ED182C08285E00FC00E942D
:10395000CE1D882321F30AC089918093F100015084
:103960001109FFEFCF1ADF0ADACF80E0DF91CF91A4
:103970001F910F91FF90EF90DF90CF9008952091CD
:103980004104309142042617370748F0611571054C
:1039900039F42091E8002E772093E80001C0B901A6
:1039A000FC0120E06115710569F180913A048823DA
:1039B000E1F18530E1F18091E80083FD3AC080912A
:1039C000E80082FD2CC08091E80080FFEBCF809161
:1039D000F2009091F3006115710551F08830910566
:1039E00038F421912093F100615071090196F3CFD1
:1039F00021E0089709F020E08091E8008E7780931D
:103A0000E800D0CF2111D1CF0AC080913A04882399
:103A100061F0853061F08091E80083FD0AC08091FB
:103A2000E80082FFF2CF80E0089582E0089583E00D
:103A3000089581E0089520914104309142042617B1
:103A4000370748F06115710539F42091E8002E77A9
:103A50002093E80001C0B901FC0120E06115710567
:103A600081F180913A04882309F43EC0853009F43D
:103A70003DC08091E80083FD3BC08091E80082FD5D
:103A80002DC08091E80080FFE9CF8091F2009091F5
:103A9000F3006115710559F08830910540F42491C7
:103AA0002093F1003196615071090196F2CF21E027
:103AB000089709F020E08091E8008E778093E80075
:103AC000CDCF2111CECF0AC080913A04882361F076
:103AD000853061F08091E80083FD0AC08091E800A4
:103AE00082FFF2CF80E0089582E0089583E0089598
:103AF00081E00895982F973068F59093E900981722
:103B000039F07091EC002091ED005091F00003C06D
:103B1000242F762F50E021FD02C09F5FECCF309123
:103B2000EB003E7F3093EB003091ED003D7F309312
:103B3000ED003091EB0031603093EB007093EC00BE
:103B40002093ED005093F0002091EE0027FDE5CF8B
:103B500080E008958F708093E90081E0089580915E
:103B60003B0487FF11C08091E80082FD05C0809171
:103B70003A048111F8CF11C08091E8008B770BC017
:103B800080913A04882349F08091E80080FFF8CFC3
:103B90008091E8008E778093E80008952091E400FA
:103BA0003091E50095E64091EC00842F817040FF54
:103BB00023C08091E80080FD1DC080913A048823D5
:103BC00099F0853099F08091EB0085FD11C040910E
:103BD000E4005091E5002417350729F3915011F0C6
:103BE0009A01E1CF84E0089582E0089583E008958A
:103BF00081E0089580E008954091E80042FFDDCF24
:103C000008950E94721E0E947A1EE0EEF0E080810C
:103C100081608083E8EDF0E080818F77808319BC3C
:103C2000A7EDB0E08C918E7F8C9380818F7E808316
:103C30001092390408950F931F93CF93DF930E943E
:103C4000721E0E947A1EC8EDD0E088818F7788832B
:103C500088818068888388818F7D8883E7EDF0E0A4
:103C600080818068808319BC10923A0410923604D7
:103C7000109238041092370400EE10E0F8018081B1
:103C80008B7F808388818160888342E060E080E070
:103C90000E947A1DE1EEF0E080818E7F8083E2EE6B
:103CA000F0E0808181608083808188608083F8017A
:103CB00080818E7F8083888180618883DF91CF912E
:103CC0001F910F910895E8EDF0E080818F7E808351
:103CD000E7EDF0E080818160808381E080933904AA
:103CE0000C941B1EE8EDF0E080818C7F80831092A5
:103CF000E20008951092DA001092E10008951F92F8
:103D00000F920FB60F9211240BB60F922F933F9381
:103D10004F935F936F937F938F939F93AF93BF93D3
:103D2000EF93FF938091E10082FF0BC08091E2004E
:103D300082FF07C08091E1008B7F8093E1000E94A9
:103D4000FD208091DA0080FF1FC08091D80080FFA5
:103D50001BC08091DA008E7F8093DA008091D900B9
:103D600080FF0DC084E189BD86E189BD09B400FEF4
:103D7000FDCF81E080933A040E94E41A05C019BC8B
:103D800010923A040E94F21A8091E10080FF19C05B
:103D90008091E20080FF15C08091E2008E7F8093C9
:103DA000E2008091E20080618093E2008091D8007F
:103DB00080628093D80019BC85E080933A040E9409
:103DC000F61A8091E10084FF30C08091E20084FF08
:103DD0002CC084E189BD86E189BD09B400FEFDCF18
:103DE0008091D8008F7D8093D8008091E1008F7EF4
:103DF0008093E1008091E2008F7E8093E2008091C9
:103E0000E20081608093E20080913604882311F003
:103E100084E007C08091E30087FD02C081E001C01B
:103E200083E080933A040E94F71A8091E10083FFB7
:103E300029C08091E20083FF25C08091E100877F47
:103E40008093E10082E080933A04109236048091DE
:103E5000E1008E7F8093E1008091E2008E7F80936D
:103E6000E2008091E20080618093E20042E060E045
:103E700080E00E947A1D8091F00088608093F000BD
:103E80000E94F51AFF91EF91BF91AF919F918F9191
:103E90007F916F915F914F913F912F910F900BBE4A
:103EA0000F900FBE0F901F9018951F920F920FB694
:103EB0000F9211240BB60F922F933F934F935F9362
:103EC0006F937F938F939F93AF93BF93CF93DF9322
:103ED000EF93FF93C091E900CF708091EC00D82F51
:103EE000D17080FDD0E81092E9008091F000877FCA
:103EF0008093F00078940E949D1F1092E9008091B9
:103F0000F00088608093F000CD2BCF70C093E90063
:103F1000FF91EF91DF91CF91BF91AF919F918F91E1
:103F20007F916F915F914F913F912F910F900BBEB9
:103F30000F900FBE0F901F9018951F93CF93DF9394
:103F4000CDB7DEB7AA970FB6F894DEBF0FBECDBFD0
:103F5000EBE3F4E08091F100819324E0E334F20795
:103F6000C9F70E94031B8091E80083FF2EC1809156
:103F70003B0490913C04492F50E04A30510508F031
:103F800024C1FA01E659FF4F0C942D21803821F00D
:103F9000823809F01AC108C0809137049091380422
:103FA000992389F082600FC080913F048F70873021
:103FB00008F00BC18093E9008091EB0085FB882716
:103FC00080F91092E9009091E800977F9093E800C3
:103FD0008093F1001092F100D1C0282F2D7F09F0BD
:103FE000F4C0882319F0823061F0EFC080913D0465
:103FF000813009F0EAC0933009F080E08093380402
:104000002EC080913D0481112AC080913F048F70A1
:104010002FEF280F263008F0D8C08093E9002091B8
:10402000EB0020FF1CC0933021F48091EB008062F4
:1040300014C09091EB0090619093EB0021E030E090
:10404000A90102C0440F551F8A95E2F74093EA0088
:104050001092EA008091EB0088608093EB00109250
:10406000E9008091E800877F8093E8000E94AF1DFF
:10407000ACC08111AAC010913D041F778091E3006C
:104080008078812B8093E3008091E800877F809384
:10409000E8000E94AF1D8091E80080FFFCCF809176
:1040A000E30080688093E300111102C082E001C048
:1040B00083E080933A0489C08058823008F085C03C
:1040C00080913D0490913E048C3D53E0950779F535
:1040D00083E08A838AE289834FB7F894DE011396DE
:1040E00020E03EE051E2E32FF0E050935700E491EE
:1040F00020FF03C0E295EF703F5FEF708E2F90E0DE
:10410000EA3010F0C79601C0C0968D939D932F5F43
:10411000243149F74FBF8091E800877F8093E80002
:104120006AE270E0CE0101960E94BF1C16C0609149
:104130003F0470914004AE014F5F5F4F0E94FD1B32
:10414000BC01892B09F441C09091E800977F9093BE
:10415000E80089819A810E941B1D8091E8008B777D
:104160008093E80032C0803881F58091E800877F35
:104170008093E800809136048093F1008091E800FC
:104180008E7772CF811121C080913D0490913E04C1
:1041900099270297D4F48091E800877F8093E80004
:1041A00080913D04809336040E94AF1D80913604B7
:1041B000811106C08091E30087FD02C081E001C04B
:1041C00084E080933A040E94F91A8091E80083FF0A
:1041D0000AC08091E800877F8093E8008091EB001F
:1041E00080628093EB00AA960FB6F894DEBF0FBEF4
:1041F000CDBFDF91CF911F9108950895CF93809106
:104200003A048823A1F0C091E900CF709091EC00AE
:10421000892F817090FD80E8C82B1092E900809171
:10422000E80083FD0E949D1FCF70C093E900CF91ED
:10423000089597FB072E16F4009407D077FD09D058
:104240000E94362107FC05D03EF4909581959F4F42
:104250000895709561957F4F0895EE0FFF1F00241C
:10426000001C0BBE0790F691E02D0994AA1BBB1B06
:1042700051E107C0AA1FBB1FA617B70710F0A61B66
:10428000B70B881F991F5A95A9F780959095BC0187
:10429000CD010895F999FECF92BD81BDF89A992775
:1042A00080B50895A8E1B0E042E050E00C947E2192
:1042B000262FF999FECF92BD81BDF89A019700B4DF
:1042C000021639F01FBA20BD0FB6F894FA9AF99A7F
:1042D0000FBE08950396272F0E9459210E9458214E
:1042E000252F0E945921242F0C9459210196272F04
:1042F0000E9459210C945821DC01CB01FC01F99951
:10430000FECF06C0F2BDE1BDF89A319600B40D9221
:0C43100041505040B8F70895F894FFCFDA
:10431C00FF00000000000000000000000000000092
:10432C000000000000000000000000000000000081
:10433C000000000000000000000000000000000071
:10434C00FFFFFFFFFFFFFFFFFFFFFFFFFFFFFFFF71
:10435C00FFFFFFFFFFFFFFFFFFFFFFFFFFFFFFFF61
:10436C00FFFFFFFFFFFFFFFFFFFFFFFFFFFFFFFF51
:10437C00FFFFFFFFFFFFFF0F0F0FFFFFFFFFFFFF11
:10438C00FFFFFF0F0F0FFFFFFFFFFFFFFFFFFF0FF1
:10439C000F0FFFFFFFFFFFFFFFFFFF0FFFFFFFFFF1
:1043AC00FFFFFFFFFFFFFFFFFFFFFFFFFFFFFFFF11
:1043BC00FFFF0F0F0F0FFFFFFFFFFFFFFFFFFFFFC1
:1043CC00FFFFFFFFFFFFFFFFFFFFFFFFFFFFFFFFF1
:1043DC00FFFF0FFFFFFFFFFFFFFFFF0FFF0F0F0F91
:1043EC00FF0FFFFFFFFFFFFFFFFFFFFFFFFFFFFFC1
:1043FC00FFFFFFFFFF0FFFFFFFFFFFFF0F0F0F0F71
:10440C00FFFF0FFFFFFFFF0F0F0F0F0FFF0F0F0F20
:10441C00FFFFFF0F0F0F0FFFFFFFFFFFFFFFFFFF60
:10442C00FFFFFFFFFFFFFFFFFFFFFFFFFFFFFFFF90
:10443C00CB032808641E140A321E461AA31A841AC7
:10444C00801A7C1A01E200E900EA00B500B600B758
:10445C0000CD008301CC008A01920194012102233A
:10446C000224022502260227022A02B300B4006F9E
:10447C0000700081828393929190373635343332B9
:10448C00313094959697E200E900EA00B500B60049
:10449C00B700CD008301CC008A0192019401210266
:1044AC00230224022502260227022A02B300B400AA
:0844BC006F0070008182830093
:00000001FF
